:100000000C945F000C94DC070C9409080C94870096
:100010000C9487000C9487000C9487000C94870044
:100020000C9487000C9487000C9487000C94870034
:100030000C9487000C9487000C9487000C94870024
:100040000C9436080C9487000C94200B0C94520BE3
:100050000C9487000C9487000C9487000C94870004
:100060000C9487000C948700000000080002010037
:100070000003040700000000000000000102040863
:100080001020408001020408102001020408102002
:10009000040404040404040402020202020203032E
:1000A0000303030300000000250028002B000000CC
:1000B0000000240027002A008C04820BD0041124A5
:1000C0001FBECFEFD8E0DEBFCDBF11E0A0E0B1E0B2
:1000D000EAEAF5E202C005900D92AC33B107D9F718
:1000E00022E0ACE3B1E001C01D92AA34B207E1F70F
:1000F00010E0CCEBD0E004C02297FE010E94481033
:10010000C83BD107C9F70E94C60B0C94C8120C94C7
:1001100000008091540190915501019690935501F2
:10012000809354010895CF92DF92EF92FF920E9444
:100130008008C0905001D0905101E0905201F090A1
:1001400053016C197D098E099F0940911A01509144
:100150001B0120910A0130910B01429F6001439FD6
:10016000D00C529FD00C1124EE24D7FCE094FE2C2E
:100170006C157D058E059F0508F45CC080E00E942B
:10018000CC076091540170915501882777FD8095C7
:10019000982F0E94C70E6B017C016091180170912D
:1001A0001901882777FD8095982F0E94C70E9B0123
:1001B000AC01C701B6010E942C0E6B017C0160915D
:1001C0001A0170911B01882777FD8095982F0E9456
:1001D000C70E2FE632E143E85AE30E947B0F9B01F2
:1001E000AC01C701B6010E942C0E26E636E646E6B3
:1001F00050E40E947B0F60934C0170934D018093FB
:100200004E0190934F0110925501109254010E949B
:100210008008609350017093510180935201909334
:10022000530143E050E069E870E080E00E94AC07D1
:1002300081E001C080E0FF90EF90DF90CF900895C3
:1002400060E082E00E946C0961E082E00E94A50902
:1002500043E050E069E870E080E00E94AC0761E0B4
:1002600085E00E946C0961E084E00E946C091092B4
:100270008F0110929001109291011092920161E011
:1002800070E086E591E00E94ED0626E040E855E248
:1002900060E070E088EA91E00E94BE0A61E084E0DC
:1002A0000C94A5098F929F92AF92BF92CF92DF924A
:1002B000EF92FF920F931F93CF93DF93CDB7DEB7EB
:1002C0006C970FB6F894DEBF0FBECDBF982E8B0192
:1002D00080E5A82EA9829A82882777FD8095982F9D
:1002E0000E94C70E6B017C012FE632E143E85AE31E
:1002F0000E947B0F0E94990E862F1AE0612F0E94A8
:10030000EE0FB92E9B832AE037ED43E25CE3C70191
:10031000B6010E947B0F0E94990E862F612F0E94CA
:10032000EE0F892E9C832DEC3CEC4CEC5DE3C70179
:10033000B6010E947B0F0E94990E862F612F0E94AA
:10034000EE0F292F9D83802F0E94EE0F9E8399260A
:100350009A249B24982492269F824AE06B2DCE01FA
:100360000B960E94000D60E070E0CE010B960E949B
:100370006C0DFC0180818B83CE010B960E94440C96
:100380004AE06C81CE010B960E94000D60E070E0A7
:10039000CE010B960E946C0DFC0180818C83CE01F6
:1003A0000B960E94440C4AE06D81CE010B960E9490
:1003B000000D60E070E0CE010B960E946C0DFC0118
:1003C00080818D83CE010B960E94440C4AE06E81A1
:1003D000CE010B960E94000D60E070E0CE010B96FE
:1003E0000E946C0DFC0180818E83CE010B960E94D1
:1003F000440C40E16F81CE0141960E94000D69E2FC
:1004000071E0CE010B960E94B20CBE016F5E7F4F71
:10041000CE010B960E94590DBC01CE0147960E9459
:10042000DF0CCE010B960E94440CCE0141960E9437
:10043000440C2B8D3C8DA90142505109BE01695ECF
:100440007F4FCE010B960E947E0DBE01655F7F4FF0
:10045000CE0147960E94C80CCE010B960E94440C18
:1004600060E070E0CE0147960E946C0DFC01808137
:100470008F8361E070E0CE0147960E946C0DFC0115
:10048000808188878DE089871A87E091A801F091A3
:10049000A9010280F381E02D4AE050E0BE016F5FC8
:1004A0007F4F88EA91E00995CE0147960E94440C5F
:1004B0006C960FB6F894DEBF0FBECDBFDF91CF9123
:1004C0001F910F91FF90EF90DF90CF90BF90AF9072
:1004D0009F908F900895AF92BF92CF92DF92EF924C
:1004E000FF920F931F9320910A0130910B0180ED31
:1004F00097E0289F8001299F100D389F100D11242F
:100500000E948008C0904201D0904301E0904401D5
:10051000F09045016C197D098E099F09222717FD6E
:100520002095322F061717072807390760F58EE048
:100530000E94C708BC01882777FD8095982F1F92DD
:100540001F921F922AE52F93A12CB12C6501EE2456
:10055000EA9413E0F12E00E010E020E030E0A90181
:100560000E94FD0B81E40E9452010E94800860936A
:1005700042017093430180934401909345010F9091
:100580000F900F900F901F910F91FF90EF90DF90C1
:10059000CF90BF90AF9008954F925F926F927F92ED
:1005A0008F929F92AF92BF92CF92DF92EF92FF9283
:1005B0000F931F93CF93DF9300D000D0CDB7DEB75A
:1005C0000E946B0220E030E048EC52E4609114019C
:1005D0007091150180911601909117010E947B0F77
:1005E0006B017C0120E030E0A9010E94770F20E040
:1005F00030E040E05FE387FD05C0C701B6010E941F
:10060000C40D04C0C701B6010E94C30D0E94940E20
:10061000162F072FF82EE92E81E10E94C708BC0192
:10062000882777FD8095982FEF92FF920F931F9365
:10063000A12CB12C6501EE24EA9413E0F12E00E028
:1006400010E020E030E0A9010E94FD0B0E94C70EDF
:1006500020E030E048EC52E40E942C0E6093480108
:100660007093490180934A0190934B010E9493003B
:100670000F900F900F900F90882309F438C180914C
:100680004C0190914D01A0914E01B0914F0180938A
:10069000970190939801A0939901B0939A0180914A
:1006A000480190914901A0914A01B0914B0180937A
:1006B0008F0190939001A0939101B0939201C0900B
:1006C0001C01D0901D01E0901E01F0901F010091CF
:1006D00020011091210120912201309123014091AC
:1006E000240150912501609126017091270186E532
:1006F00091E00E94F405C0909301D0909401E090A5
:100700009501F090960186E591E00E94D4048090D6
:10071000100190901101A0901201B0901301A70157
:10072000960160919301709194018091950190914F
:1007300096010E94C30DA50194010E94770F18161F
:1007400074F4A5019401C701B6010E94C40D609321
:100750009301709394018093950190939601A70162
:10076000960160919301709194018091950190910F
:1007700096010E94C30DA501940150580E94280EB5
:1007800087FF0EC0A5019401C701B6010E94C30DE9
:1007900060939301709394018093950190939601D7
:1007A00020E030E040E251E46091930170919401C7
:1007B00080919501909196010E94770F181664F42C
:1007C00080E090E0A0E2B1E48093930190939401E3
:1007D000A0939501B0939601C0900C01D0900D01AB
:1007E000C601AA2797FDA095BA2F89839A83AB8368
:1007F000BC8380900E0190900F015401CC24B7FC73
:10080000C094DC2C20E030E048EC52E4609114010C
:100810007091150180911601909117010E947B0F34
:100820002B013C0120E030E0A9010E94770F20E07D
:1008300030E040E05FE387FD05C0C301B2010E94E4
:10084000C40D04C0C301B2010E94C30D0E94940EE6
:100850002B013C0120E030E048EC52E46091930130
:100860007091940180919501909196010E947B0F67
:100870000E94940EAC81AF93BB81BF93EA81EF934A
:10088000F981FF938301720120E030E0A9010E9409
:10089000FD0B709347016093460120910C0130914C
:1008A0000D010F900F900F900F902617370724F42B
:1008B00030934701209346016091460170914701B2
:1008C00085E00F900F900F900F90DF91CF911F91C7
:1008D0000F91FF90EF90DF90CF90BF90AF909F90DF
:1008E0008F907F906F905F904F900C94E4080F90E2
:1008F0000F900F900F90DF91CF911F910F91FF906C
:10090000EF90DF90CF90BF90AF909F908F907F90AF
:100910006F905F904F900895AF92BF92CF92DF9209
:10092000EF92FF920F931F93A0902001B0902101AE
:10093000C0902201D0902301E0902401F090250185
:1009400000912601109127011F921F9280911F0193
:100950008F9380911E018F9380911D018F938091C1
:100960001C018F932FE831E043E951E067E971E022
:1009700086E591E00E943F070F900F900F900F9037
:100980000F900F906AE271E08CE391E01F910F915C
:10099000FF90EF90DF90CF90BF90AF900C94B20C8F
:1009A0008CE391E00C94440C2F923F924F925F9213
:1009B0006F927F928F929F92AF92BF92CF92DF926F
:1009C000EF92FF920F931F93CF93DF93CDB7DEB7D4
:1009D0002B970FB6F894DEBF0FBECDBF9B878A87DB
:1009E000DC01D896BC91B983B11102C01982E2C072
:1009F0000E9480086A837B838C839D83EA85FB85C4
:100A000080A191A1A2A1B3A14A815B816C817D816A
:100A1000481B590B6A0B7B0B84A595A5A6A5B7A50A
:100A2000481759076A077B0708F3028CF38DE02DFE
:100A300080809180A280B380AA85BB855E96ED916F
:100A4000FC915F97A50194016081718182819381FE
:100A50000E94C30D2B013C01EA85FB852089318969
:100A6000428953890E947B0FAA85BB8594962D915C
:100A70003D914D915C9197970E94C40D6B017C0153
:100A8000EA85FB8564A375A386A397A324A835A84C
:100A900006A917A99101A8010E94770F18161CF446
:100AA000C101D80118C0AA85BB85D0968D919D91B2
:100AB0000D90BC91A02D8E839F83A887B9879C0140
:100AC000AD01C701B6010E94280E87FF0AC08E81C2
:100AD0009F81A885B985EA85FB8584A395A3A6A3F4
:100AE000B7A3AA85BB851C962D913D914D915C9134
:100AF0001F97C301B2010E947B0FEA85FB8524A1E9
:100B000035A146A157A10E94C40D6B017C01AA85A5
:100B1000BB8598962D913D914D915C919B97C50118
:100B2000B4010E94C30DEA85FB8524893589468975
:100B300057890E947B0F9B01AC01C701B6010E943F
:100B4000C30D6B017C019101A8010E94770F18165B
:100B5000BCF0AA85BB85D0962C90D097D1963C90BE
:100B6000D197D2960C91D297D3961C919101A8015E
:100B7000B601C7010E94280E87FD02C01601870139
:100B8000AA85BB855C96ED91FC915D97C101D8016A
:100B900080839183A283B383EA85FB8580A691A697
:100BA000A2A6B3A68A819B81AC81BD8180A391A3BB
:100BB000A2A3B3A389812B960FB6F894DEBF0FBE14
:100BC000CDBFDF91CF911F910F91FF90EF90DF90FC
:100BD000CF90BF90AF909F908F907F906F905F90DD
:100BE0004F903F902F9008952F923F924F925F9297
:100BF0006F927F928F929F92AF92BF92CF92DF922D
:100C0000EF92FF920F931F93CF93DF9300D000D00A
:100C1000CDB7DEB71C012A013B014801590120E094
:100C200030E0A901C301B2010E94280E87FD78C0FF
:100C300020E030E0A901C501B4010E94280E87FD23
:100C40006FC020E030E0A901C701B6010E94280E64
:100C500087FD66C0F1014082518262827382848284
:100C60009582A682B782C086D186E286F38664A585
:100C700075A586A597A50E94C50E20E030E04AE73D
:100C800054E40E942C0E69837A838B839C83F10148
:100C900044865586668677869B01AC01C501B40102
:100CA0000E947B0F4B015C01F101608B718B828B89
:100CB000938B29813A814B815C81C701B6010E94E7
:100CC0002C0E6B017C01F101648B758B868B978BED
:100CD000808D918D019721F5A301920160E070E074
:100CE000CB010E94C30DF1016487758786879787C2
:100CF000A501940160E070E0CB010E94C30DF101F9
:100D0000608B718B828B938BA701960160E070E002
:100D1000CB010E94C30DF101648B758B868B978B81
:100D20000F900F900F900F90DF91CF911F910F9127
:100D3000FF90EF90DF90CF90BF90AF909F908F90FB
:100D40007F906F905F904F903F902F9008958F927B
:100D50009F92AF92BF92CF92DF92EF92FF92CF938A
:100D6000DF93EC01EC8DFD8DC080D180E280F380BB
:100D7000CCA2DDA2EEA2FFA2EA8DFB8D8081918143
:100D8000A281B38188A799A7AAA7BBA78CA89DA871
:100D9000AEA8BFA8A5019401C701B6010E94770FB4
:100DA000181664F088A899A8AAA8BBA8A501940160
:100DB000C701B6010E94280E87FF04C08CA29DA225
:100DC000AEA2BFA2DF91CF91FF90EF90DF90CF90C6
:100DD000BF90AF909F908F9008951F93CF93DF9314
:100DE000EC0111E06130710509F010E088AD91E08F
:100DF0008927181303C0CE010E94A70618AFDF9100
:100E0000CF911F9108950F931F93CF93DF93EC0120
:100E10008B0188AD882361F1888D998D68177907DA
:100E200039F12C853D854E855F8560E070E0CB0112
:100E30000E94C30D6C877D878E879F87288939899B
:100E40004A895B8960E070E0CB010E94C30D688B2A
:100E5000798B8A8B9B8B2C893D894E895F8960E0D9
:100E600070E0CB010E94C30D6C8B7D8B8E8B9F8BB2
:100E7000198F088FDF91CF911F910F9108954F9295
:100E80005F926F927F928F929F92AF92BF92CF921A
:100E9000DF92EF92FF920F931F93CF93DF9300D0D7
:100EA00000D0CDB7DEB74C0127013801A982BA8244
:100EB000CB82DC82FC01558F448F738F628F378F1A
:100EC000268F10AE10AA11AA12AA13AA80E090E0F1
:100ED000AFE7B3E484AB95ABA6ABB7AB84E690E0E9
:100EE000A0E0B0E084A795A7A6A7B7A76B8D7C8DDF
:100EF000C4010E940307CF88D88CE98CFA8C098141
:100F00001A812B813C81B301A201C4010E94F40526
:100F10000E948008F40144A455A466A477A464192F
:100F200075098609970960A371A382A393A30F9003
:100F30000F900F900F90DF91CF911F910F91FF9025
:100F4000EF90DF90CF90BF90AF909F908F907F9069
:100F50006F905F904F9008958230E8F4E82FF0E0B2
:100F6000EE0FFF1FE556FE4F71836083813041F025
:100F7000809169008C7F842B80936900E89A0895A2
:100F800080916900440F551F440F551F837F842BA8
:100F900080936900E99A0895823068F4813011F0F5
:100FA000E89801C0E998E82FF0E0EE0FFF1FE55642
:100FB000FE4F1182108208951F920F920FB60F926A
:100FC00011242F933F934F935F936F937F938F934E
:100FD0009F93AF93BF93EF93FF9380919B01909169
:100FE0009C01892B29F0E0919B01F0919C010995CE
:100FF000FF91EF91BF91AF919F918F917F916F91F1
:101000005F914F913F912F910F900FBE0F901F90C6
:1010100018951F920F920FB60F9211242F933F93A2
:101020004F935F936F937F938F939F93AF93BF93F0
:10103000EF93FF9380919D0190919E01892B29F060
:10104000E0919D01F0919E010995FF91EF91BF9173
:10105000AF919F918F917F916F915F914F913F9150
:101060002F910F900FBE0F901F9018951F920F9207
:101070000FB60F9211242F933F938F939F93AF93AB
:10108000BF938091A0019091A101A091A201B09184
:10109000A30130919F0123E0230F2D3720F4019607
:1010A000A11DB11D05C026E8230F0296A11DB11D8B
:1010B00020939F018093A0019093A101A093A2018E
:1010C000B093A3018091A4019091A501A091A601E4
:1010D000B091A7010196A11DB11D8093A401909329
:1010E000A501A093A601B093A701BF91AF919F91D5
:1010F0008F913F912F910F900FBE0F901F901895D9
:101100002FB7F8946091A0017091A1018091A20184
:101110009091A3012FBF0895789484B5826084BD17
:1011200084B5816084BD85B5826085BD85B58160EB
:1011300085BDEEE6F0E0808181608083E1E8F0E04B
:101140001082808182608083808181608083E0E87A
:10115000F0E0808181608083E1EBF0E08081846059
:101160008083E0EBF0E0808181608083EAE7F0E05B
:1011700080818460808380818260808380818160BF
:1011800080838081806880831092C10008958E30B2
:1011900008F08E5087702091280190E4299F9001DB
:1011A0001124822B80937C0080917A00806480934C
:1011B0007A0080917A0086FDFCCF809178002091A2
:1011C000790090E0922B08951F93CF93DF93182F0F
:1011D000EB0161E00E946C09209711F460E004C00B
:1011E000CF3FD10539F461E0812FDF91CF911F917D
:1011F0000C94A509E12FF0E0E859FF4FE491E330AA
:10120000F9F048F4E130B9F0E230A1F584B580623C
:1012100084BDC8BD34C0E730E9F0E83019F1E430EE
:1012200049F580918000806280938000D0938B008C
:10123000C0938A0024C084B5806884BDC7BD1FC028
:1012400080918000806880938000D0938900C09353
:10125000880015C08091B00080688093B000C09372
:10126000B3000DC08091B00080628093B000C09345
:10127000B40005C0C038D1050CF0B5CFAFCFDF91B9
:10128000CF911F910895833081F028F4813099F037
:101290008230A1F008958730A9F08830B9F0843009
:1012A000D1F4809180008F7D03C0809180008F7782
:1012B00080938000089584B58F7702C084B58F7DB8
:1012C00084BD08958091B0008F7703C08091B000F5
:1012D0008F7D8093B0000895CF93DF9390E0FC0161
:1012E000E458FF4F2491FC01E057FF4F849188237D
:1012F00049F190E0880F991FFC01E255FF4FA5913D
:10130000B4918C559F4FFC01C591D4919FB7611149
:1013100008C0F8948C91209582238C938881822335
:101320000AC0623051F4F8948C91322F30958323A7
:101330008C938881822B888304C0F8948C91822BB3
:101340008C939FBFDF91CF9108950F931F93CF93FD
:10135000DF931F92CDB7DEB7282F30E0F901E859AF
:10136000FF4F8491F901E458FF4F1491F901E057C0
:10137000FF4F04910023C9F0882321F069830E9464
:1013800043096981E02FF0E0EE0FFF1FEC55FF4F9E
:10139000A591B4919FB7F8948C91611103C01095F9
:1013A000812301C0812B8C939FBF0F90DF91CF9140
:1013B0001F910F910895FC01818D228D90E0805C3A
:1013C0009F4F821B91098F7399270895FC01918D7E
:1013D000828D981731F0828DE80FF11D858D90E098
:1013E00008958FEF9FEF0895FC01918D828D9817DE
:1013F00061F0828DDF01A80FB11D5D968C91928DF9
:101400009F5F9F73928F90E008958FEF9FEF0895F5
:1014100088E79BE0892B49F080E090E0892B29F058
:101420000E94780B81110C9400000895FC01848DBA
:10143000DF01A80FB11DA35ABF4F2C91848D90E0FE
:1014400001968F739927848FA689B7892C93A089D9
:10145000B1898C9180648C93938D848D981306C090
:101460000288F389E02D80818F7D80830895CF935A
:10147000DF93EC01888D8823C9F0EA89FB8980819C
:1014800085FD05C0A889B9898C9186FD0FC00FB66E
:1014900007FCF5CF808185FFF2CFA889B9898C91AF
:1014A00085FFEDCFCE010E94160AE7CFDF91CF91E5
:1014B0000895CF92DF92FF920F931F93CF93DF9304
:1014C0001F92CDB7DEB76C0181E0D60158968C93A0
:1014D00058975B969C915B975C968C915C97981360
:1014E00007C05096ED91FC915197808185FD2EC0EB
:1014F000F601038D10E00F5F1F4F0F731127F02EC1
:10150000F601848DF81211C00FB607FCF9CFD60191
:101510005096ED91FC915197808185FFF1CFC601E6
:1015200069830E94160A6981EBCF838DE80FF11D54
:10153000E35AFF4F6083D6015B960C935B975296FC
:10154000ED91FC915397808180620CC0D601569634
:10155000ED91FC91579760835096ED91FC915197D6
:1015600080818064808381E090E00F90DF91CF9153
:101570001F910F91FF90DF90CF900895BF92CF926F
:10158000DF92EF92FF92CF93DF93EC016A017B0130
:10159000B22EE889F98982E08083411581EE5807EF
:1015A00061057105A1F060E079E08DE390E0A701AD
:1015B00096010E94FA0F21503109410951095695AF
:1015C000479537952795211580E1380798F0E889E8
:1015D000F989108260E874E88EE190E0A701960135
:1015E0000E94FA0F2150310941095109569547953A
:1015F00037952795EC85FD853083EE85FF85208323
:10160000188EEC89FD89B082EA89FB89808180612E
:101610008083EA89FB89808188608083EA89FB89ED
:10162000808180688083EA89FB8980818F7D8083C7
:10163000DF91CF91FF90EF90DF90CF90BF90089512
:101640001F920F920FB60F9211242F938F939F9397
:10165000EF93FF93E091B801F091B9018081E0919F
:10166000BE01F091BF0182FD12C090818091C10145
:101670008F5F8F732091C201821751F0E091C101F9
:10168000F0E0E855FE4F958F8093C10101C0808145
:10169000FF91EF919F918F912F910F900FBE0F901F
:1016A0001F9018951F920F920FB60F9211242F932F
:1016B0003F934F935F936F937F938F939F93AF93DA
:1016C000BF93EF93FF9388EA91E00E94160AFF917F
:1016D000EF91BF91AF919F918F917F916F915F91AA
:1016E0004F913F912F910F900FBE0F901F90189523
:1016F00088EA91E00E94DB0921E0892B09F420E0CF
:10170000822F08951092AB011092AA0188EE93E007
:10171000A0E0B0E08093AC019093AD01A093AE0146
:10172000B093AF018FE291E09093A9018093A8015B
:1017300085EC90E09093B5018093B40184EC90E047
:101740009093B7018093B60180EC90E09093B9013B
:101750008093B80181EC90E09093BB018093BA0133
:1017600082EC90E09093BD018093BC0186EC90E008
:101770009093BF018093BE011092C1011092C201EB
:101780001092C3011092C401089508950E948C081C
:101790000E94C50B0E942001C8E0DAE00E94CC0242
:1017A0002097E1F30E94080AF9CFCF92DF92EF92DF
:1017B000FF920F931F93CF93DF936C017A01EB019C
:1017C000E60EF71E00E010E0CE15DF0561F069912E
:1017D000D601ED91FC910190F081E02DC6010995B3
:1017E000080F191FF1CFC801DF91CF911F910F9101
:1017F000FF90EF90DF90CF9008954F925F926F929D
:101800007F92AF92BF92CF92DF92EF92FF920F93AF
:101810001F93CF93DF93CDB7DEB729013A01621B47
:10182000730B840B950B29893A894B895C892A199A
:101830003B094C095D09298B3A8B4B8B5C8B9B01D7
:10184000AC0169897A898B899C890E94DE0FE41832
:10185000F50806091709A80197010E941C102A0D16
:101860003B1D4C1D5D1DCA01B901DF91CF911F9138
:101870000F91FF90EF90DF90CF90BF90AF907F904F
:101880006F905F904F900895FC01808191810C943E
:10189000F310CF93DF93EC0188819981009711F0C9
:1018A0000E94F310198218821D821C821B821A82E8
:1018B000DF91CF9108950F931F93CF93DF93EC01A6
:1018C0008B016F5F7F4F888199810E948211009701
:1018D00031F0998388831B830A8381E001C080E013
:1018E000DF91CF911F910F910895CF93DF93EC017A
:1018F00088819981892B29F08A819B818617970796
:1019000060F4CE010E945B0C882341F08C819D81A4
:10191000892B19F4E881F981108281E0DF91CF9160
:101920000895EF92FF920F931F93CF93DF93EC01F3
:101930007B018A01BA010E94750C811104C0CE019D
:101940000E94490C07C01D830C83B70188819981CF
:101950000E945512CE01DF91CF911F910F91FF9000
:10196000EF900895FC011182108213821282158279
:1019700014826115710559F0FB0101900020E9F70F
:10198000AF0141505109461B570B0C94910C08951F
:10199000CF93DF93EC01FB018617970761F060811D
:1019A00071816115710529F0448155810E94910C66
:1019B00002C00E94490CCE01DF91CF910895FC0135
:1019C0001182108213821282158214820C94C80C28
:1019D000CF93DF93EC016115710561F0FB0101907C
:1019E0000020E9F7AF0141505109461B570B0E94F7
:1019F000910C02C00E94490CCE01DF91CF91089555
:101A00000F931F93CF93DF93CDB7DEB729970FB610
:101A1000F894DEBF0FBECDBF8C01862FF801118276
:101A20001082138212821582148250E0BE016F5F11
:101A30007F4F90E00E945C12BE016F5F7F4FC80134
:101A40000E94E80C29960FB6F894DEBF0FBECDBFFA
:101A5000DF91CF911F910F910895EF92FF920F9315
:101A60001F93CF93DF93EC017B010C811D816115E6
:101A7000710511F480E016C04115510591F0040F75
:101A8000151FB8010E94750C8823A1F328813981A4
:101A90008C819D81B701820F931F0E9455121D8377
:101AA0000C8381E0DF91CF911F910F91FF90EF9018
:101AB0000895CF93DF93EC01FB0144815581608150
:101AC00071810E942D0D811103C0CE010E94490C2D
:101AD000CE01DF91CF910895FC0184819581681733
:101AE000790720F480819181009729F410924502B2
:101AF00085E492E00895860F971F0895BF92CF92D4
:101B0000DF92EF92FF920F931F93CF93DF936C01BD
:101B10007B01EA0189012417350720F48D2FE901A3
:101B2000042F182F6AE271E0C6010E94B20CD7019F
:101B300014968D919C911597C817D907C8F48017F2
:101B4000910708F48C01D701ED91FC911197E00FFA
:101B5000F11FB08010826D917C916C0F7D1FC601CA
:101B60000E94E80CD701ED91FC91E00FF11FB082CB
:101B7000C601DF91CF911F910F91FF90EF90DF9001
:101B8000CF90BF9008955058BB27AA270ED075C19B
:101B900066D130F06BD120F031F49F3F11F41EF488
:101BA0005BC10EF4E095E7FB51C1E92F77D180F3DB
:101BB000BA17620773078407950718F071F49EF54A
:101BC0008FC10EF4E0950B2EBA2FA02D0B01B90199
:101BD00090010C01CA01A0011124FF27591B99F0A3
:101BE000593F50F4503E68F11A16F040A22F232FAF
:101BF000342F4427585FF3CF469537952795A795FF
:101C0000F0405395C9F77EF41F16BA0B620B730BA5
:101C1000840BBAF09150A1F0FF0FBB1F661F771F16
:101C2000881FC2F70EC0BA0F621F731F841F48F4CB
:101C3000879577956795B795F7959E3F08F0B3CF51
:101C40009395880F08F09927EE0F9795879508953B
:101C5000D9D008F481E008950CD00FC107D140F02D
:101C6000FED030F021F45F3F19F0F0C0511139C1BE
:101C7000F3C014D198F39923C9F35523B1F3951BFD
:101C8000550BBB27AA2762177307840738F09F5F9D
:101C90005F4F220F331F441FAA1FA9F333D00E2E0C
:101CA0003AF0E0E830D091505040E695001CCAF779
:101CB00029D0FE2F27D0660F771F881FBB1F26173E
:101CC00037074807AB07B0E809F0BB0B802DBF0111
:101CD000FF2793585F4F2AF09E3F510568F0B6C02A
:101CE00000C15F3FECF3983EDCF3869577956795EE
:101CF000B795F7959F5FC9F7880F911D96958795C2
:101D000097F90895E1E0660F771F881FBB1F6217E0
:101D100073078407BA0720F0621B730B840BBA0B9E
:101D2000EE1F88F7E095089504D06894B111D9C0EA
:101D30000895BCD088F09F5790F0B92F9927B751DC
:101D4000A0F0D1F0660F771F881F991F1AF0BA957F
:101D5000C9F712C0B13081F0C3D0B1E00895C0C05E
:101D6000672F782F8827B85F39F0B93FCCF3869575
:101D700077956795B395D9F73EF4909580957095D2
:101D800061957F4F8F4F9F4F0895E89409C097FB4F
:101D90003EF490958095709561957F4F8F4F9F4F42
:101DA0009923A9F0F92F96E9BB279395F695879586
:101DB00077956795B795F111F8CFFAF4BB0F11F449
:101DC00060FF1BC06F5F7F4F8F4F9F4F16C08823F0
:101DD00011F096E911C0772321F09EE8872F762F26
:101DE00005C0662371F096E8862F70E060E02AF067
:101DF0009A95660F771F881FDAF7880F9695879553
:101E000097F90895990F0008550FAA0BE0E8FEEF27
:101E100016161706E807F907C0F012161306E407AE
:101E2000F50798F0621B730B840B950B39F40A26A7
:101E300061F0232B242B252B21F408950A2609F485
:101E4000A140A6958FEF811D811D089597F99F6789
:101E500080E870E060E008959FEF80EC0895002432
:101E60000A941616170618060906089500240A94FF
:101E700012161306140605060895092E0394000C85
:101E800011F4882352F0BB0F40F4BF2B11F460FF14
:101E900004C06F5F7F4F8F4F9F4F089557FD90583D
:101EA000440F551F59F05F3F71F04795880F97FB1E
:101EB000991F61F09F3F79F08795089512161306D8
:101EC0001406551FF2CF4695F1DF08C01616170607
:101ED0001806991FF1CF869571056105089408953C
:101EE000E894BB2766277727CB0197F908958ADF07
:101EF00008F48FEF08950BD0C0CFB1DF28F0B6DF24
:101F000018F0952309F0A2CFA7CF1124EACFC6DF9E
:101F1000A0F3959FD1F3950F50E0551F629FF001FC
:101F2000729FBB27F00DB11D639FAA27F00DB11D55
:101F3000AA1F649F6627B00DA11D661F829F2227DE
:101F4000B00DA11D621F739FB00DA11D621F839F65
:101F5000A00D611D221F749F3327A00D611D231F3B
:101F6000849F600D211D822F762F6A2F11249F5789
:101F700050408AF0E1F088234AF0EE0FFF1FBB1FAC
:101F8000661F771F881F91505040A9F79E3F51054B
:101F900070F05CCFA6CF5F3FECF3983EDCF3869504
:101FA00077956795B795F795E7959F5FC1F7FE2BF6
:101FB000880F911D9695879597F90895DB018F936A
:101FC0009F930E943B10BF91AF91A29F800D911DE6
:101FD000A39F900DB29F900D11240895991B79E055
:101FE00004C0991F961708F0961B881F7A95C9F7A9
:101FF00080950895A1E21A2EAA1BBB1BFD010DC0FE
:10200000AA1FBB1FEE1FFF1FA217B307E407F507A8
:1020100020F0A21BB30BE40BF50B661F771F881F84
:10202000991F1A9469F760957095809590959B011A
:10203000AC01BD01CF010895052E97FB1EF400945D
:102040000E94331057FD07D00E94FA0F07FC03D0FF
:102050004EF40C94331050954095309521953F4F98
:102060004F4F5F4F089590958095709561957F4F84
:102070008F4F9F4F08950E944C10A59F900DB49FC5
:10208000900DA49F800D911D11240895EE0FFF1F48
:102090000590F491E02D0994A29FB001B39FC00177
:1020A000A39F700D811D1124911DB29F700D811D84
:1020B0001124911D0895CF93DF938230910510F480
:1020C00082E090E0E0914802F091490220E030E0A7
:1020D000A0E0B0E0309739F14081518148175907AD
:1020E000B8F04817590771F482819381109729F04D
:1020F00013969C938E9312972CC0909349028093D1
:10210000480227C02115310531F04217530718F056
:10211000A901DB0101C0EF019A01BD01DF010280CD
:10212000F381E02DD7CF21153105F9F0281B390BAC
:102130002430310580F48A819B816115710521F07D
:10214000FB019383828304C09093490280934802E9
:10215000FE01329644C0FE01E20FF31F819391937A
:1021600022503109398328833AC0209146023091A8
:102170004702232B41F42091020130910301309357
:102180004702209346022091000130910101211560
:10219000310541F42DB73EB740910401509105013E
:1021A000241B350BE0914602F0914702E217F3073A
:1021B000A0F42E1B3F0B2817390778F0AC014E5FB7
:1021C0005F4F2417350748F04E0F5F1F50934702AB
:1021D000409346028193919302C0E0E0F0E0CF018A
:1021E000DF91CF910895CF93DF93009709F487C0D3
:1021F000FC01329713821282C0914802D0914902A9
:10220000209781F420813181280F391F8091460267
:10221000909147028217930779F5F0934702E09374
:1022200046026DC0DE0120E030E0AE17BF0750F47B
:1022300012964D915C9113979D014115510509F13D
:10224000DA01F3CFB383A28340815181840F951FBC
:102250008A179B0771F48D919C911197840F951F9C
:1022600002969183808312968D919C91139793830C
:1022700082832115310529F4F0934902E093480245
:102280003EC0D9011396FC93EE9312974D915D9148
:10229000A40FB51FEA17FB0779F480819181840FA1
:1022A000951F0296D90111969C938E9382819381FA
:1022B00013969C938E931297E0E0F0E08A819B81C5
:1022C000009719F0FE01EC01F9CFCE0102962881AA
:1022D0003981820F931F20914602309147022817BF
:1022E000390769F4309729F4109249021092480294
:1022F00002C013821282D0934702C0934602DF913C
:10230000CF910895A0E0B0E0E8E8F1E10C949512D7
:10231000EC01CB01209719F40E945B10B8C0FE01BC
:10232000E60FF71F9E0122503109E217F30708F468
:10233000ACC0D9010D911C91119706171707B8F081
:102340000530110508F49FC0A801445051094617F3
:10235000570708F498C002501109061B170B019388
:1023600011936D937C93CF010E94F3108CC05B019D
:10237000A01AB10A4E01800E911EA0914802B091A0
:102380004902612C712C60E070E0109709F449C09B
:10239000A815B905C9F5ED90FC901197670142E0C9
:1023A000C40ED11CCA14DB0478F147018A189B08BB
:1023B000640142E0C40ED11C1296BC901297139691
:1023C000AC91B5E0CB16D10440F0B282A3839182E8
:1023D0008082D9018D939C9309C00E5F1F4F0E0D13
:1023E0001F1DF90111830083EB2DFA2F6115710573
:1023F00031F0DB011396FC93EE93129744C0F093F7
:102400004902E09348023FC06D917C911197661696
:10241000770608F43B01BD0112960D90BC91A02DEA
:10242000B4CF609146027091470268157905E9F4CE
:1024300068167906D0F440910001509101014115D0
:10244000510541F44DB75EB76091040170910501EB
:10245000461B570BE417F507C0F4F0934702E093CF
:102460004602F901918380830EC00E945B107C01BB
:10247000009759F0A801BE010E944C12CE010E94A3
:10248000F310C70104C0CE0102C080E090E0CDB7D8
:10249000DEB7EEE00C94B112FB01DC0102C001904A
:1024A0000D9241505040D8F70895FB01DC01019096
:1024B0000D920020E1F708954532510520F4423095
:1024C00010F00C946712FB011082CB010895BB271A
:1024D000FB015527AA27880F991FAA1FA41710F0E0
:1024E000A41B83955051B9F7A05DAA3308F0A95DEC
:1024F000A193009779F7B111B1931192CB010C948C
:102500008112DC01FC01672F71917723E1F732978B
:1025100004C07C916D9370836291AE17BF07C8F3BE
:1025200008952F923F924F925F926F927F928F9277
:102530009F92AF92BF92CF92DF92EF92FF920F9352
:102540001F93CF93DF93CDB7DEB7CA1BDB0B0FB65C
:10255000F894DEBF0FBECDBF09942A883988488819
:102560005F846E847D848C849B84AA84B984C884AF
:10257000DF80EE80FD800C811B81AA81B981CE0FA6
:10258000D11D0FB6F894DEBF0FBECDBFED0108958B
:1025900010E0CCEBD0E004C0FE010E94481022966F
:0A25A000CE3BD107C9F7F894FFCF36
:1025AA0000004A0280000100000001003C00050012
:1025BA00CDCCCC3D0000C040120264009A99993EED
:1025CA00CDCCCC3E9A99193F013000000000005949
:0C25DA000AD50BDB09F409E609370A00FA
:00000001FF
