:100000000C9463000C948B000C948B000C948B006C
:100010000C948B000C948B000C948B000C941105A9
:100020000C948B000C948B000C948B000C948B0024
:100030000C948B000C948B000C948B000C948B0014
:100040000C94B60B0C948B000C94970E0C94C90E68
:100050000C948B000C948B000C948B000C948B00F4
:100060000C948B000C948B0000000008000201002F
:100070000003040700000000000000000102040863
:100080001020408001020408102001020408102002
:10009000040404040404040402020202020203032E
:1000A00003030303000000002300260029000000D2
:1000B0000000250028002B0000000000240027007D
:1000C0002A00D502F90E11241FBECFEFD8E0DEBF03
:1000D000CDBF12E0A0E0B1E0E6E7F6E202C0059095
:1000E0000D92A231B107D9F724E0A2E1B2E001C03C
:1000F0001D92A836B207E1F710E0C6ECD0E004C0CC
:100100002297FE010E942613C23CD107C9F70E9424
:100110003D0F0C9439130C940000CF93DF9326E02D
:1001200040E052EC61E070E08BEC93E00E94350E11
:10013000C6E0D1E060E088810E94BA0C61E088816D
:100140000E94F30C83EF92E00E94FA0460E0809139
:1001500004010E94BA0C61E080910201DF91CF910D
:100160000C94BA0CBF92CF92DF92EF92FF920F9352
:100170001F93CF93DF93EC018881998190930101C4
:10018000809300018F3F2FEF920709F053C068E082
:1001900071E08BEC93E00E94970F8C859D85019711
:1001A000909317028093160288E1E82E82E0F82EE1
:1001B00092E0C92ED12C01E010E022E3B22E809112
:1001C000160290911702801791078CF18A859B8502
:1001D000FC01EC0DFD1D20813181B29EC001B39E5A
:1001E000900D112400FF08C084569109F7019183F6
:1001F00080836DE271E007C08C599F4FF7019183B6
:10020000808360E371E08BEC93E00E948A0FF7013A
:10021000619171917F014AE050E08BEC93E00E9484
:1002200061100F5F1F4FF2E0CF0ED11CC8CF65E009
:1002300072E014C081309105F1F463E371E08BEC5E
:1002400093E00E948A0F8C819D81AE81BF818F3F98
:100250009F4FAF4FBF4FD1F562E471E08BEC93E05D
:10026000DF91CF911F910F91FF90EF90DF90CF9092
:10027000BF900C94970F8230910519F464E571E0FA
:1002800005C08330910539F464E671E08BEC93E0AE
:100290000E948A0F1BC0049719F463E771E0F6CF40
:1002A00062E871E08BEC93E00E948A0F609100019C
:1002B000709101014AE050E08BEC93E00E944C10F9
:1002C00065E072E08BEC93E00E94970F4C815D81BA
:1002D0006E817F8120E130E08BEC93E00E9467101B
:1002E0008C819D81AE81BF818093E0029093E10279
:1002F000A093E202B093E302888599859093170258
:1003000080931602DF91CF911F910F91FF90EF9094
:10031000DF90CF90BF900895CF93DF93E0910001DD
:10032000F0910101E130F105F9F4209116023091CC
:100330001702892B51F04FEF5FEFBA0182EF92E085
:100340000E94650367E971E0C6C04091E0025091E8
:10035000E1026091E2027091E30282EF92E00E947A
:10036000650367EA71E015C0E230F10531F52091CF
:100370001602309117024091E0025091E102609123
:10038000E2027091E30282EF92E00E94B00361EB1F
:1003900071E08BEC93E00E948A0F4091E002509153
:1003A000E1026091E2027091E30220E130E08BEC27
:1003B00093E0DF91CF910C9467109F012350310996
:1003C0002230310508F077C0892B61F481E090E09C
:1003D0002091140230911502821B930B9093150209
:1003E000809314022091160230911702E90121979F
:1003F00041E050E00C2E02C0440F551F0A94E2F772
:1004000040955095662757FD6095762F8091E002C4
:100410009091E102A091E202B091E30248235923B6
:100420006A237B2380911402909115020C2E02C046
:10043000880F991F0A94E2F7AA2797FDA095BA2F73
:10044000482B592B6A2B7B2B4093E0025093E102FF
:100450006093E2027093E302339731F56CEB71E045
:100460008BEC93E00E948A0F4091E0025091E102F0
:100470006091E2027091E30220E130E08BEC93E0C6
:100480000E94671020911602309117024091E002FD
:100490005091E1026091E2027091E30282EF92E0FA
:1004A000DF91CF910C942D0482EF92E00E94890499
:1004B00066EC71E06ECF3196A1F440911602509136
:1004C000170226E230E068E172E082EF92E00E94DB
:1004D000FD0360ED71E08BEC93E0DF91CF910C9424
:1004E000970FDF91CF910895CF93DF93809104010F
:1004F0000E94290DEC018091120290911302019744
:1005000069F4209769F469ED71E08BEC93E00E9447
:10051000970F83EF92E00E94FA0426C0209721F102
:1005200062EE71E08BEC93E00E94970F61E08091A6
:1005300002010E94F30C81E090E0209112023091C0
:1005400013022C173D0711F080E090E00E948C010F
:1005500060E0809102010E94F30C62E370E080E0B1
:1005600090E00E94230C1AC064EE72E083EF92E0E8
:100570000E944B0B892B91F061E0809102010E9457
:10058000F30C84EE92E00E94B20083EF92E00E94AE
:10059000B00560E0809102010E94F30CD093130239
:1005A000C0931202DF91CF9108956091060170917E
:1005B000070183EF92E00C94F504CF92DF92EF9263
:1005C000FF92CF93DF93EC01882777FD8095982FDA
:1005D0000E947E116B017C0120E030E040E45FE38B
:1005E0000E942E1220E030E048E452E40E94E31022
:1005F0000E944B11C617D707ECF020E030E040EA2C
:100600005FE3C701B6010E942E1220E030E048E40B
:1006100052E40E94E31020E030E040E85FE30E94F3
:100620007B100E944B1121E06C177D070CF420E039
:10063000822F01C080E090E0DF91CF91FF90EF909A
:10064000DF90CF900895CB012091B00020622093DD
:10065000B0001816190614F40C944B0C0895CB0135
:100660002091B0002F7D2093B0001816190614F4C5
:100670000C944B0C0895CF93DF93EB011092700014
:1006800061E083E00E94BA0C60E083E00E94F30C1A
:100690009E01442737FD4095542F60E47FE180E0C0
:1006A00090E00E94C31281E08093B00089E08093C3
:1006B000B1002093B3008BEA289F212D11242695A9
:1006C0002093B400DF91CF910895AF92BF92CF9263
:1006D000DF92EF92FF920F931F93CF93DF93EC0182
:1006E0006A017B01590166E270E00E943B0368E207
:1006F00073E2CE010E94230364E971E1CE010E94FE
:100700002F0300E010E060E372E0CE010A151B0544
:10071000ACF4F7FE05C00E94230360E476E004C059
:100720000E94230360E372E0CE010E942F03CC0CF1
:10073000DD1CEE1CFF1C0F5F1F4FE5CF0E94230343
:100740008091B0008F7D8093B000DF91CF911F9199
:100750000F91FF90EF90DF90CF90BF90AF900895F2
:10076000AF92BF92CF92DF92EF92FF920F931F93BF
:10077000CF93DF93EC016A017B01590168E270E0DD
:100780000E943B0360E679E0CE010E94230368E506
:1007900072E0CE010E942F0380E290E08A199B094B
:1007A00004C0CC0CDD1CEE1CFF1C8A95D2F700E0C7
:1007B00010E00A151B05B4F4F7FE03C060EB74E00B
:1007C00002C068E572E0CE010E94230368E572E092
:1007D000CE010E942F03CC0CDD1CEE1CFF1C0F5F12
:1007E0001F4FE7CFDF91CF911F910F91FF90EF90B7
:1007F000DF90CF90BF90AF900895CF92DF92EF92AD
:10080000FF920F931F93CF93DF937C018B016A01BB
:10081000B9010E943B03E80100E010E00C151D0542
:1008200074F468817981C70100FF03C00E942F031F
:1008300002C00E9423030F5F1F4F2296EFCF8091CB
:10084000B0008F7D8093B000DF91CF911F910F9109
:10085000FF90EF90DF90CF900895AF92BF92CF922C
:10086000DF92EF92FF920F931F93CF93DF93EC01F0
:100870006A017B01590164E270E00E943B0380E25F
:1008800090E08A199B0904C0CC0CDD1CEE1CFF1CF7
:100890008A95D2F769E773E0CE010E94230369E7E6
:1008A00073E0CE010E942F0369E773E0CE010E943E
:1008B000230300E010E00A151B05DCF469E773E090
:1008C000CE01F7FE08C00E942F0369E773E0CE0156
:1008D0000E94230307C00E94230369E773E0CE014F
:1008E0000E942F03CC0CDD1CEE1CFF1C0F5F1F4F62
:1008F000E2CF8091B0008F7D8093B000DF91CF91E7
:100900001F910F91FF90EF90DF90CF90BF90AF902D
:1009100008958F929F92AF92BF92CF92DF92EF9203
:10092000FF920F931F93CF93DF93EC016A017B013A
:10093000590164E270E00E943B0380E290E08A1972
:100940009B0904C0CC0CDD1CEE1CFF1C8A95D2F761
:100950006AE67AE0CE010E94230369E773E0CE01E4
:100960000E942F036CEB71E0CE010E9423036CEB1D
:1009700071E0CE010E942F03812C912C8A149B04DC
:1009800014F583E08816910419F408E713E002C017
:100990000CEB11E0B801CE01F7FE07C00E94230363
:1009A000B801CE010E942F0306C00E942F03B80198
:1009B000CE010E942303CC0CDD1CEE1CFF1C8FEF2C
:1009C000881A980ADBCF8091B0008F7D8093B000A9
:1009D000DF91CF911F910F91FF90EF90DF90CF901B
:1009E000BF90AF909F908F9008956093F402109203
:1009F000F6020895F89482E08093B0008093B100ED
:100A000094E69093B3001092B200809370007894B3
:100A10008093F5021092C1038091F40260E00C947F
:100A2000BA0C1F920F920FB60F9211242F933F937F
:100A30004F935F936F937F938F939F93AF93BF93E6
:100A4000EF93FF938091F4020E94290D2091F70209
:100A50003091F8022F5F3F4F3093F8022093F70256
:100A60009091C103943618F095E09093F50290911F
:100A7000F5029330B9F018F4923039F057C0943041
:100A800059F1953009F44CC051C081114FC02091EB
:100A9000F7023091F8022436310508F443C0109271
:100AA000C1031CC0813009F041C0E091C10391E055
:100AB0009E0F9093C103F0E02091F7023091F8026D
:100AC000EE0FFF1FEC50FD4F368325831092F80286
:100AD0001092F70294E021C0811117C0E091C10388
:100AE00091E09E0F9093C103F0E02091F7023091C6
:100AF000F802EE0FFF1FEC50FD4F36832583109256
:100B0000F8021092F70293E008C02091F7023091AA
:100B1000F8022536310550F095E09093F50206C0B5
:100B2000811104C01092F8021092F7029091F6021F
:100B3000992329F0811102C02D9A01C02D98FF91AF
:100B4000EF91BF91AF919F918F917F916F915F9145
:100B50004F913F912F910F900FBE0F901F901895BE
:100B600082E08093F5021092C1030895CF93DF9342
:100B7000FB01C285D3858A819B81885891098D3577
:100B8000910500F58091C103843029F48C819D8109
:100B900080974797D8F08091C103843498F08C8176
:100BA0009D81825491098E9768F4269623E030E067
:100BB00080E090E0DC014881598149505109493079
:100BC0005105D8F060E070E0CB013AC08E819F8182
:100BD0000997099700F7118610868FEF9FEFDC01C8
:100BE00084839583A683B78381E090E0918380839B
:100BF00061E070E080E090E023C04A815B81465173
:100C000051094131510580F4880F991FAA1FBB1F5C
:100C100081602E5F3F4F24962334310561F620E238
:100C200030E031872087DCCF4A815B814650510913
:100C30004730510538F6880F991FAA1FBB1FE9CF0F
:100C4000DF91CF9108950F931F93CF93DF93FB0113
:100C50008091C1038A3108F44DC0C285D385888153
:100C60009981843F914060F4118610868FEF9FEF49
:100C7000DC0184839583A683B78389E090E033C049
:100C80008A819B8185974B97A8F58E010A5F1F4F3C
:100C900022E030E080E090E0DC014091C10350E0D0
:100CA000B9016F5F7F4F641775075CF4A80142506C
:100CB0005109EA014881598147505109473051058E
:100CC000E8F02150310935952795318720872C3060
:100CD00031051CF4118610860DC084839583A6838C
:100CE000B78382E090E09183808361E070E080E0F0
:100CF00090E023C060E070E0CB011FC0E8014881B4
:100D00005981435151094F30510550F4880F991FB3
:100D1000AA1FBB1F81602E5F3F4F0C5F1F4FBDCFCF
:100D2000E801488159814A5051094930510510F76D
:100D3000880F991FAA1FBB1FEECFDF91CF911F9184
:100D40000F9108950F931F93CF93DF93FB01809131
:100D5000C1038A3108F451C0C285D3858881998145
:100D60008032934030F4118610868FEF9FEFDC01C4
:100D700007C08A819B81C697869708F442C03DC010
:100D800084839583A683B78389E090E091838083F1
:100D900061E070E080E090E04FC0E8014881598157
:100DA000455251094B315105D0F5880F991FAA1FA3
:100DB000BB1F81602E5F3F4F0C5F1F4F4091C103EF
:100DC00050E0B9016F5F7F4F641775075CF4A801AD
:100DD00042505109EA01488159814C5051094B3028
:100DE0005105D8F221503109359527953187208753
:100DF0002C3031052CF61186108660E070E0CB01B6
:100E00001BC08C819D81C6978697B8F78E01085FBD
:100E10001F4F23E030E080E090E0DC01CFCFE8011D
:100E2000488159814C5051094A30510530F7880F9B
:100E3000991FAA1FBB1FBECFDF91CF911F910F91AA
:100E40000895EF92FF920F931F93CF93DF93FB01CF
:100E50008091C103823208F44DC0C285D3858A8156
:100E60009B810697079708F045C07E0186E0E80E53
:100E7000F11C22E030E080E090E0DC01B9016F5F1E
:100E80007F4F4091C10350E064177507D4F4E70128
:100E90002297088119810E5111090731110570F54A
:100EA000880F991FAA1FBB1F8160E70148815981E4
:100EB000D4E0ED0EF11C435051094530510550F17D
:100EC0009B012150310935952795318720872031A5
:100ED00031051CF4118610860DC084839583A6838A
:100EE000B7838AE090E09183808361E070E080E0E6
:100EF00090E013C060E070E0CB010FC048815981E1
:100F00004C5051094B305105A8F7880F991FAA1F63
:100F1000BB1FCBCF2E5F3F4FB1CFDF91CF911F9142
:100F20000F91FF90EF9008958F929F92AF92BF9292
:100F3000CF92DF92EF92FF920F931F93CF93DF93A5
:100F40007A016901DA01CD91DC91FB0184859585F7
:100F5000C817D9070CF04AC0CE01880F991F028428
:100F6000F385E02DE80FF91FA080B180C170DD2767
:100F7000F1E0CF27209719F484E690E002C08CE9D5
:100F80009FEF4801880E991EB401C5010E94DD0241
:100F9000892B99F4800E911EB401C5010E94DD02D7
:100FA000892B71F4B401600F711FC5010E94DD022D
:100FB000892BF9F023E030E005C021E030E002C0E9
:100FC00022E030E0D6018D919C9111970196821715
:100FD000930744F0F60111821082D7018D919C9104
:100FE000119701968D939C93CE0105C081E090E00E
:100FF00002C08FEF9FEFDF91CF911F910F91FF9074
:10100000EF90DF90CF90BF90AF909F908F9008951A
:101010004F925F926F927F928F929F92AF92BF9208
:10102000CF92DF92EF92FF920F931F93CF93DF93B4
:1010300000D000D0CDB7DEB76C017B018091C10339
:101040008D3020F460E070E0CB017AC081E090E068
:101050009C838B831A82198209E713E09E012F5F1C
:101060003F4FAE014D5F5F4FC6010E949407892B31
:1010700049F79E012F5F3F4FAE014D5F5F4FB701B4
:10108000C6010E9494070197E9F69E012F5F3F4F2A
:10109000AE014D5F5F4FB701C6010E949407892BD7
:1010A00089F6A12CB12C412C512C32018091C10325
:1010B00090E02B813C81281739079CF509E713E064
:1010C0009E012F5F3F4FAE014D5F5F4FB701C601DD
:1010D0000E9494074C019E012F5F3F4FAE014D5F70
:1010E0005F4FB701C6010E94940721E08216910468
:1010F00051F4892B09F0A6CF440C551C661C771CB3
:10110000689440F80AC0892809F09CCF019709F03B
:1011100099CF440C551C661C771C8FEFA81AB80A8F
:10112000C5CFF701B186A086448255826682778258
:1011300083E090E09183808361E070E080E090E064
:101140000F900F900F900F90DF91CF911F910F9103
:10115000FF90EF90DF90CF90BF90AF909F908F90D7
:101160007F906F905F904F9008952F923F924F9293
:101170005F926F927F928F929F92AF92BF92CF9227
:10118000DF92EF92FF920F931F93CF93DF9300D0E4
:1011900000D0CDB7DEB76C017B01DB011C968D91D1
:1011A0009C911D971816190624F060E070E0CB01A1
:1011B000B4C081E090E09C838B83DB011A96ED91B3
:1011C000FC911B978281938189974E9770F782E0FB
:1011D00090E09C838B83848195810B970A9728F7F5
:1011E00083E090E09C838B831A8219820CEB11E0E0
:1011F0009E012F5F3F4FAE014D5F5F4FC6010E94C2
:101200009407892B91F60CEB11E09E012F5F3F4F65
:10121000AE014D5F5F4FB701C6010E949407019771
:1012200021F6A12CB12C212C312C21012B813C81C8
:10123000F70184859585281739070CF060C00CEB01
:1012400011E09E012F5F3F4FAE014D5F5F4FB70131
:10125000C6010E9494073C01B3E0AB16B10491F0C3
:101260000CEB11E09E012F5F3F4FAE014D5F5F4FD2
:10127000B701C6010E9494074C01E3E0AE16B10429
:1012800009F510C00CEB11E09E012F5F3F4FAE013E
:101290004D5F5F4FB701C6010E949407681679063B
:1012A000F9F283CF0CEB11E09E012F5F3F4FAE01AF
:1012B0004D5F5F4FB701C6010E94940788169906DB
:1012C00009F073CF6114710459F48A94892809F0E4
:1012D0006CCF220C331C441C551C689420F80BC0A6
:1012E0006A94672809F061CF892809F05ECF220C43
:1012F000331C441C551CAFEFAA1ABA0A97CFB1860B
:10130000A086248235824682578284E090E09183D1
:10131000808361E070E080E090E00F900F900F908C
:101320000F90DF91CF911F910F91FF90EF90DF9081
:10133000CF90BF90AF909F908F907F906F905F9075
:101340004F903F902F9008950F931F93CF93DF936B
:10135000FB01A285B38512968D919C911397C69738
:101360008697D0F414968D919C9115974B9745973D
:1013700098F41696C3E0D0E020E030E040E050E082
:1013800060E070E080E090E00D911C9111970950B1
:1013900011090830110520F060E070E0CB0135C084
:1013A00012960D911C911397015111090D301105E1
:1013B000F8F401E00E94ED12216022961496C336E3
:1013C000D10511F7248335834683578300E20E94B9
:1013D00008132283338387E090E09183808380E346
:1013E00090E09187808761E070E080E090E00DC040
:1013F00012960D911C911397045011090530110597
:1014000058F601E00E94ED12D8CFDF91CF911F91E5
:101410000F9108950F931F93CF93DF93FB0180915A
:10142000C103028513858232A9F4D80112968D91E9
:101430009C9113970A97099768F48091C103D8018A
:10144000A80FB11DA80FB11D12978D919C910A97FD
:10145000099770F0D80112968D919C911397895736
:1014600091098335910550F060E070E0CB015EC0DA
:10147000118610868FEF9FEFDC014CC08091C10375
:10148000813290F3E8018C819D81CA97899760F73A
:1014900098012A5F3F4F43E050E080E090E0DC019C
:1014A000E901688179816A50710969307105E0F656
:1014B000E9016A817B816651710961317105E0F44E
:1014C000880F991FAA1FBB1F81604E5F5F4F2C5F63
:1014D0003F4F4332510521F7E801CA5BDF4F2881B6
:1014E00039812A5031092930310508F0BDCF20E17A
:1014F00030E0318720870EC0E9016A817B81665028
:1015000071096730710508F0AFCF880F991FAA1FC6
:10151000BB1FDBCF84839583A683B78388E090E0ED
:101520009183808361E070E080E090E0DF91CF9173
:101530001F910F9108958F929F92AF92BF92CF9279
:10154000DF92EF92FF927B01BA0180E090E00E946F
:101550007C114B015C01B70180E090E00E947C119E
:101560006B017C012DEC3CEC4CE45FE30E942E12FD
:101570009B01AC01C501B4010E94DF1087FD17C0BB
:101580002DEC3CEC4CE45FE3C501B4010E942E124B
:101590009B01AC01C701B6010E94DF10992787FDAE
:1015A00090958827990F881F9927019602C080E09F
:1015B00090E0FF90EF90DF90CF90BF90AF909F9022
:1015C0008F9008958F929F92AF92BF92CF92DF92A9
:1015D000EF92FF920F931F93CF93DF936C01EB0178
:1015E000EC84FD8486E0E816F1040CF444C0EE0CB3
:1015F000FF1C06E010E045EC842E4DE9942E4CE1F2
:10160000A42E41E8B42E8A859B85FC01E00FF11FD2
:1016100040815181F8013497E80FF91F6081718191
:10162000C6010E949B0AFC01A501940163E971E0D7
:1016300080E091E00E9491124F01AA2497FCA094AF
:10164000BA2C86269726A826B9260E5F1F4F0E15A0
:101650001F05C9F68C829D82AE82BF8280E290E037
:10166000998788878FEF9FEF9983888361E070E087
:1016700080E090E003C060E070E0CB01DF91CF91AB
:101680001F910F91FF90EF90DF90CF90BF90AF90A0
:101690009F908F9008950F931F93CF93DF938C01AA
:1016A000EB0189EF92E09B878A878091C10390E0EC
:1016B0009D878C878091F502853009F050C0C80164
:1016C0000E94B605672B682B692B19F081E090E02A
:1016D00048C0BE01C8010E942306672B682B692BF6
:1016E000A9F7BE01C8010E94A206672B682B692BCF
:1016F00069F7BE01C8010E942107672B682B692B7F
:1017000029F7BE01C8010E940808672B682B692BC6
:10171000E9F6BE01C8010E94B508672B682B692B4A
:10172000A9F6BE01C8010E94A409672B682B692B8A
:1017300069F6BE01C8010E940A0A672B682B692B53
:1017400029F6BE01C8010E94E20A672B682B692BAB
:1017500009F0BCCF82E08093F5021092C10380E0D3
:1017600090E0DF91CF911F910F9108951F920F92FA
:101770000FB60F9211242F933F938F939F93AF93A4
:10178000BF938091C3039091C403A091C503B0910E
:10179000C6033091C20323E0230F2D3720F40196B6
:1017A000A11DB11D05C026E8230F0296A11DB11D84
:1017B0002093C2038093C3039093C403A093C503F3
:1017C000B093C6038091C7039091C803A091C90349
:1017D000B091CA030196A11DB11D8093C7039093D8
:1017E000C803A093C903B093CA03BF91AF919F915F
:1017F0008F913F912F910F900FBE0F901F901895D2
:101800003FB7F8948091C7039091C803A091C90392
:10181000B091CA0326B5A89B05C02F3F19F00196C9
:10182000A11DB11D3FBF6627782F892F9A2F620F08
:10183000711D811D911D42E0660F771F881F991F42
:101840004A95D1F70895CF92DF92EF92FF92CF930E
:10185000DF936B017C010E94000CEB01C114D104E9
:10186000E104F10489F00E9479100E94000C6C1BC5
:101870007D0B683E734090F381E0C81AD108E108FF
:10188000F108C851DC4FEACFDF91CF91FF90EF9084
:10189000DF90CF9008958230910538F0880F991F1E
:1018A000880F991F05970197F1F70895789484B5EB
:1018B000826084BD84B5816084BD85B5826085BD4C
:1018C00085B5816085BDEEE6F0E080818160808332
:1018D000E1E8F0E010828081826080838081816015
:1018E0008083E0E8F0E0808181608083E1EBF0E0DC
:1018F000808184608083E0EBF0E080818160808380
:10190000EAE7F0E080818460808380818260808368
:101910008081816080838081806880831092C10093
:101920000895833081F028F4813099F08230A1F05D
:1019300008958730A9F08830B9F08430D1F48091CF
:1019400080008F7D03C0809180008F77809380001E
:10195000089584B58F7702C084B58F7D84BD0895C6
:101960008091B0008F7703C08091B0008F7D80930D
:10197000B0000895CF93DF9390E0FC01E458FF4F4F
:101980002491FC01E057FF4F8491882349F190E0B6
:10199000880F991FFC01E854FF4FA591B49182551F
:1019A0009F4FFC01C591D4919FB7611108C0F89475
:1019B0008C91209582238C93888182230AC0623087
:1019C00051F4F8948C91322F309583238C93888135
:1019D000822B888304C0F8948C91822B8C939FBFB8
:1019E000DF91CF9108950F931F93CF93DF931F92B1
:1019F000CDB7DEB7282F30E0F901E859FF4F8491C9
:101A0000F901E458FF4F1491F901E057FF4F049199
:101A10000023C9F0882321F069830E94910C698119
:101A2000E02FF0E0EE0FFF1FE255FF4FA591B491BC
:101A30009FB7F8948C91611103C01095812301C068
:101A4000812B8C939FBF0F90DF91CF911F910F91AE
:101A50000895CF93DF93282F30E0F901E859FF4F25
:101A60008491F901E458FF4FD491F901E057FF4FF9
:101A7000C491CC2391F081110E94910CEC2FF0E0E5
:101A8000EE0FFF1FEC55FF4FA591B4912C912D2324
:101A900081E090E021F480E002C080E090E0DF91FE
:101AA000CF910895FC01818D228D90E0805C9F4F45
:101AB000821B91098F7399270895FC01918D828D66
:101AC000981731F0828DE80FF11D858D90E0089513
:101AD0008FEF9FEF0895FC01918D828D981761F033
:101AE000828DDF01A80FB11D5D968C91928D9F5F55
:101AF0009F73928F90E008958FEF9FEF08958FEE80
:101B00009EE0892B49F080E090E0892B29F00E942B
:101B1000EF0E81110C9400000895FC01848DDF010B
:101B2000A80FB11DA35ABF4F2C91848D90E0019650
:101B30008F739927848FA689B7892C93A089B1893F
:101B40008C9180648C93938D848D981306C0028849
:101B5000F389E02D80818F7D80830895CF93DF937B
:101B6000EC01888D8823C9F0EA89FB89808185FD95
:101B700005C0A889B9898C9186FD0FC00FB607FCF6
:101B8000F5CF808185FFF2CFA889B9898C9185FF37
:101B9000EDCFCE010E948D0DE7CFDF91CF9108955B
:101BA000CF92DF92FF920F931F93CF93DF931F92F9
:101BB000CDB7DEB76C0181E0D60158968C9358976B
:101BC0005B969C915B975C968C915C97981307C091
:101BD0005096ED91FC915197808185FD2EC0F601C4
:101BE000038D10E00F5F1F4F0F731127F02EF601CA
:101BF000848DF81211C00FB607FCF9CFD6015096AC
:101C0000ED91FC915197808185FFF1CFC6016983E9
:101C10000E948D0D6981EBCF838DE80FF11DE35A92
:101C2000FF4F6083D6015B960C935B975296ED91C4
:101C3000FC915397808180620CC0D6015696ED913D
:101C4000FC91579760835096ED91FC91519780815C
:101C50008064808381E090E00F90DF91CF911F91AD
:101C60000F91FF90DF90CF900895BF92CF92DF92B7
:101C7000EF92FF92CF93DF93EC016A017B01B22ECA
:101C8000E889F98982E08083411581EE5807610572
:101C90007105A1F060E079E08DE390E0A701960185
:101CA0000E94A112215031094109510956954795C9
:101CB00037952795211580E1380798F0E889F9894B
:101CC000108260E874E88EE190E0A70196010E941E
:101CD000A11221503109410951095695479537956F
:101CE0002795EC85FD853083EE85FF852083188E52
:101CF000EC89FD89B082EA89FB89808180618083DB
:101D0000EA89FB89808188608083EA89FB898081F8
:101D100080688083EA89FB8980818F7D8083DF9161
:101D2000CF91FF90EF90DF90CF90BF9008951F92DA
:101D30000F920FB60F9211242F938F939F93EF93CF
:101D4000FF93E091DB03F091DC038081E091E103FC
:101D5000F091E20382FD12C090818091E4038F5FD5
:101D60008F732091E503821751F0E091E403F0E0D6
:101D7000E553FC4F958F8093E40301C08081FF9170
:101D8000EF919F918F912F910F900FBE0F901F9009
:101D900018951F920F920FB60F9211242F933F9315
:101DA0004F935F936F937F938F939F93AF93BF9363
:101DB000EF93FF938BEC93E00E948D0DFF91EF91D9
:101DC000BF91AF919F918F917F916F915F914F9153
:101DD0003F912F910F900FBE0F901F9018958BEC95
:101DE00093E00E94520D21E0892B09F420E0822F1C
:101DF00008951092CE031092CD0388EE93E0A0E0F8
:101E0000B0E08093CF039093D003A093D103B0931D
:101E1000D20387EF91E09093CC038093CB0385ECC2
:101E200090E09093D8038093D70384EC90E0909354
:101E3000DA038093D90380EC90E09093DC038093E5
:101E4000DB0381EC90E09093DE038093DD0382EC72
:101E500090E09093E0038093DF0386EC90E0909312
:101E6000E2038093E1031092E4031092E5031092E1
:101E7000E6031092E703089508950E94560C0E940D
:101E80003C0F0E948D00CFE7DDE00E947402209796
:101E9000E1F30E947F0DF9CFCF92DF92EF92FF9294
:101EA0000F931F93CF93DF936C017A01EB01E60E42
:101EB000F71E00E010E0CE15DF0561F06991D60154
:101EC000ED91FC910190F081E02DC6010995080F7C
:101ED000191FF1CFC801DF91CF911F910F91FF9092
:101EE000EF90DF90CF9008956115710581F0DB01CF
:101EF0000D900020E9F7AD0141505109461B570BE9
:101F0000DC01ED91FC910280F381E02D099480E0E9
:101F100090E008950C94740FDC01ED91FC91019018
:101F2000F081E02D099463E072E00C94740F0F933C
:101F30001F93CF93DF93EC010E94740F8C01CE01AD
:101F40000E94930F800F911FDF91CF911F910F91EE
:101F500008958F929F92AF92BF92CF92DF92EF92AD
:101F6000FF920F931F93CF93DF93CDB7DEB7A19767
:101F70000FB6F894DEBF0FBECDBF7C01C42EE52F97
:101F8000CB01D22E19A221E02D1510F02AE0D22E7D
:101F90008E010F5D1F4F8D2C912CA12CB12C6C2D1F
:101FA0007E2FA50194010E94A1128C2DD29E801932
:101FB0001124015011098A3014F4805D01C0895C3C
:101FC000F8018083211531054105510521F0C22E0C
:101FD000E32FCA01E4CFB801C7010E94740FA19694
:101FE0000FB6F894DEBF0FBECDBFDF91CF911F912A
:101FF0000F91FF90EF90DF90CF90BF90AF909F90A8
:102000008F900895CF92DF92EF92FF920F931F93DC
:10201000CF93DF93EC016A017B012115310579F43F
:10202000E881F9810190F081E02D642FDF91CF915B
:102030001F910F91FF90EF90DF90CF9009942A307D
:102040003105E9F477FF1AC06DE20E948C0F8C0114
:1020500044275527BA014C195D096E097F092AE00A
:10206000CE010E94A90F800F911FDF91CF911F9188
:102070000F91FF90EF90DF90CF9008952AE0B70185
:10208000A601CE01DF91CF911F910F91FF90EF90AC
:10209000DF90CF900C94A90F9A01AB01662757FDF2
:1020A0006095762F0C9402102115310541F4DC0166
:1020B000ED91FC910190F081E02D642F09940C9436
:1020C000A90F9A01AB0160E070E00C9454100F93DB
:1020D0001F93CF93DF93EC010E9454108C01CE012B
:1020E0000E94930F800F911FDF91CF911F910F914D
:1020F000089508955058BB27AA270ED075C166D100
:1021000030F06BD120F031F49F3F11F41EF45BC12D
:102110000EF4E095E7FB51C1E92F77D180F3BA17B0
:10212000620773078407950718F071F49EF58FC155
:102130000EF4E0950B2EBA2FA02D0B01B9019001E2
:102140000C01CA01A0011124FF27591B99F0593F26
:1021500050F4503E68F11A16F040A22F232F342F6E
:102160004427585FF3CF469537952795A795F040BC
:102170005395C9F77EF41F16BA0B620B730B840BD1
:10218000BAF09150A1F0FF0FBB1F661F771F881F89
:10219000C2F70EC0BA0F621F731F841F48F48795E1
:1021A00077956795B795F7959E3F08F0B3CF9395D0
:1021B000880F08F09927EE0F979587950895D9D045
:1021C00008F481E008950CD00FC107D140F0FED093
:1021D00030F021F45F3F19F0F0C0511139C1F3C064
:1021E00014D198F39923C9F35523B1F3951B550BDB
:1021F000BB27AA2762177307840738F09F5F5F4FDA
:10220000220F331F441FAA1FA9F333D00E2E3AF01A
:10221000E0E830D091505040E695001CCAF729D034
:10222000FE2F27D0660F771F881FBB1F2617370783
:102230004807AB07B0E809F0BB0B802DBF01FF27B3
:1022400093585F4F2AF09E3F510568F0B6C000C119
:102250005F3FECF3983EDCF3869577956795B795ED
:10226000F7959F5FC9F7880F911D9695879597F908
:102270000895E1E0660F771F881FBB1F6217730781
:102280008407BA0720F0621B730B840BBA0BEE1F96
:1022900088F7E095089504D06894B111D9C00895E5
:1022A000BCD088F09F5790F0B92F9927B751A0F074
:1022B000D1F0660F771F881F991F1AF0BA95C9F7DA
:1022C00012C0B13081F0C3D0B1E00895C0C0672F13
:1022D000782F8827B85F39F0B93FCCF3869577958A
:1022E0006795B395D9F73EF4909580957095619573
:1022F0007F4F8F4F9F4F0895E89409C097FB3EF49E
:1023000090958095709561957F4F8F4F9F4F992342
:10231000A9F0F92F96E9BB279395F69587957795C0
:102320006795B795F111F8CFFAF4BB0F11F460FF80
:102330001BC06F5F7F4F8F4F9F4F16C0882311F0D8
:1023400096E911C0772321F09EE8872F762F05C0EC
:10235000662371F096E8862F70E060E02AF09A9587
:10236000660F771F881FDAF7880F9695879597F97C
:102370000895990F0008550FAA0BE0E8FEEF161616
:102380001706E807F907C0F012161306E407F50769
:1023900098F0621B730B840B950B39F40A2661F0DD
:1023A000232B242B252B21F408950A2609F4A14080
:1023B000A6958FEF811D811D089597F99F6780E88D
:1023C00070E060E008959FEF80EC089500240A9487
:1023D0001616170618060906089500240A94121600
:1023E0001306140605060895092E0394000C11F433
:1023F000882352F0BB0F40F4BF2B11F460FF04C0E0
:102400006F5F7F4F8F4F9F4F089557FD9058440F38
:10241000551F59F05F3F71F04795880F97FB991F43
:1024200061F09F3F79F08795089512161306140600
:10243000551FF2CF4695F1DF08C01616170618068D
:10244000991FF1CF86957105610508940895E89468
:10245000BB2766277727CB0197F908950BD0C4CF08
:10246000B5DF28F0BADF18F0952309F0A6CFABCF7F
:102470001124EECFCADFA0F3959FD1F3950F50E062
:10248000551F629FF001729FBB27F00DB11D639F26
:10249000AA27F00DB11DAA1F649F6627B00DA11DCC
:1024A000661F829F2227B00DA11D621F739FB00D72
:1024B000A11D621F839FA00D611D221F749F3327E2
:1024C000A00D611D231F849F600D211D822F762F7B
:1024D0006A2F11249F5750408AF0E1F088234AF078
:1024E000EE0FFF1FBB1F661F771F881F91505040C4
:1024F000A9F79E3F510570F060CFAACF5F3FECF384
:10250000983EDCF3869577956795B795F795E795AF
:102510009F5FC1F7FE2B880F911D9695879597F9C0
:102520000895DB018F939F930E94E212BF91AF91B8
:10253000A29F800D911DA39F900DB29F900D11241D
:102540000895A1E21A2EAA1BBB1BFD010DC0AA1FF4
:10255000BB1FEE1FFF1FA217B307E407F50720F00C
:10256000A21BB30BE40BF50B661F771F881F991F87
:102570001A9469F760957095809590959B01AC01D0
:10258000BD01CF010895052E97FB1EF400940E9413
:10259000DA1257FD07D00E94A11207FC03D04EF4B7
:1025A0000C94DA1250954095309521953F4F4F4F3E
:1025B0005F4F089590958095709561957F4F8F4FEF
:1025C0009F4F08950E942A13A59F900DB49F900DD0
:1025D000A49F800D911D112408950F93083090F051
:1025E000982F872F762F652F542F432F322F222796
:1025F0000850F4CF220F331F441F551F661F771F4B
:10260000881F991F0A95B2F70F91089597FB10F84C
:10261000169400080F93083098F00850232F342F99
:10262000452F562F672F782F892F902DF4CF0594A3
:1026300097958795779567955795479537952795FA
:102640000A95AAF70F910895EE0FFF1F0590F491D8
:10265000E02D0994A29FB001B39FC001A39F700D0C
:10266000811D1124911DB29F700D811D1124911D9A
:062670000895F894FFCF6D
:10267600FFFF0D000C00070052656365697665640F
:1026860020756E6B6E6F776E20636F64652C20739A
:102696006176696E672061732072617700206D0034
:1026A6002073005265636569766564204E45433A3A
:1026B60020007265706561743B2069676E6F726990
:1026C6006E672E00526563656976656420534F4ECA
:1026D600593A200052656365697665642052433530
:1026E6003A20005265636569766564205243363A3E
:1026F6002000556E657870656374656420636F6449
:102706006554797065200053656E74204E454320EC
:102716007265706561740053656E74204E45432082
:102726000053656E7420536F6E79200053656E7486
:1027360020524335200053656E74205243362000E4
:1027460053656E74207261770052656C65617365BE
:102756006400507265737365642C2073656E6469DA
:102766006E670000000000D00D4C0F520D6B0D5D22
:102776000DAE0D0D0A006E616E00696E66006F7615
:022786006600EB
:00000001FF
