:020000040000FA
:02000000BD2918
:040002000034003492
:08000800F300030EF400851E55
:10001000EC20E2180C281A210C1C3E280C1064005D
:100020007D08033A03197D15701C272885107D1D56
:100030001B28093021287108093A03197D14000092
:1000400071085F20860005147010F0145528F01C0C
:10005000552805100311F20803193B287D1D32288D
:10006000093038287D107208093A0319FD14720806
:100070005F2086008514F010701455287808643CC1
:10008000F900791C4528171646281712F91C4A282A
:1000900097164B28971279089500F01908008C01E3
:1000A00083168C100C1483120E28FE308F00003043
:1000B0008E000C10740E8300F30E730E09008A017B
:1000C00082078034F9344C34683439342A340A34A1
:1000D000F834083428345C349B21C020C0206214DA
:1000E000B320E2147E15E5010521E5007808E5025C
:1000F00003198728F803F10AB82071080A3A031D8A
:100100006D28F101F20A72080A3A031D6D28B82021
:10011000E210F8080319FE15E529E2146210FE1931
:10012000A921C020C020B320FD01F80A7E15F103EB
:10013000B8207108FF3A031D9128F803F101F20875
:10014000031DA628F108031D9128AE280930F100EF
:10015000F2037E10031D9128FE149128E210FE1177
:100160006430F800E5298C1083160C108312080007
:1001700083168C148312080083168C1083120800D7
:10018000C320C3200800C620C6200800CC20CC20F5
:10019000CC20CC20CC200800CF20CF2008007A3003
:1001A000F5000730F600F50BD3286400F60BD328D2
:1001B00064000000000008005930FB00FE30FC0025
:1001C000FA0A031D5528FB0A031D5528FC0A031DC6
:1001D0005528DC20E10A080003018B1383169B00DD
:1001E00078089A001C1583128C13831655309D00D5
:1001F000AA309D009C1483128C1FFC2883161C11AE
:1002000083120C108B176214080083161C11003027
:100210009B001C141A08831208008C0140308B00CC
:10022000701410148B17970191018316633092009C
:1002300083120800E701051967148519E714690896
:10024000EA0003396706031908006A08EB00031087
:10025000EB0D03106B0D6704EA00E9006A08E13A50
:10026000031937296A08D23A03195C2908007E1F4E
:100270009B21C6206214FE195429B320F8030319E8
:1002800054297E15F10AE40AB82071080A3A031DC0
:100290000800E401F101F20A72080A3A031D08009D
:1002A000FE150930F20008000930F2000930F100B3
:1002B000FE15B820F8010800FE19A9217E1D8B2922
:1002C000FE13C620B320FD01F80A7808653A031929
:1002D0008B297808643A03198B29F103B820710837
:1002E000FF3C0319832908000000E40303197C295B
:1002F0007108031D080083296408003A031D0800E3
:10030000F1017E1408000930F100E400F203031D3E
:100310000800FE140800F101F2017E11ED01B82081
:100320006430F80062100800E30A63189929851701
:100330006D28851308006430F800F101F2017E1782
:100340000D2195011C3097008C100E3092009421E5
:1003500008000930F100E4000930F200FD01F80A5C
:10036000F80A7E15FE11FE160D21643095000C3042
:1003700097008C107E309200080085018601F20102
:1003800007309F0083167C30850086010E30810087
:1003900001308C0092018312F001F101F201F901A8
:1003A000FA01FB01FC01FD01FE01E001E101DC01BC
:1003B000E201F801E301970195019601ED018C013D
:1003C00040308B00701410148B17051EE92964004F
:0803D000E52962188D286C2854
:02400E00143F5D
:024200000000BC
:00000001FF
