:100000000C945D000C9485000C9485000C94850084
:100010000C9485000C9485000C9485000C9485004C
:100020000C9485000C9485000C9485000C9485003C
:100030000C9485000C9485000C9485000C9485002C
:100040000C9466010C9485000C948F040C94C104EC
:100050000C9485000C9485000C9485000C9485000C
:100060000C9485000C94850000000008000201003B
:100070000003040700000000000000000102040863
:100080001020408001020408102001020408102002
:10009000040404040404040402020202020203032E
:1000A0000303030300000000250028002B000000CC
:1000B0000000240027002A00F10411241FBECFEF06
:1000C000D8E0DEBFCDBF11E0A0E0B1E0E4EFF3E1A6
:1000D00002C005900D92A834B107D9F721E0A8E439
:1000E000B1E001C01D92A83FB207E1F710E0CAEBF2
:1000F000D0E004C02297FE010E946D07C83BD107E3
:10010000C9F70E9435050C94F8090C940000CF93B0
:10011000DF9385B5887F826085BDCCE0D1E061E06A
:1001200088810E94DB0261E080910E010E94DB0267
:1001300061E080910A010E94DB0260E088810E94F8
:10014000140326E040E855E260E070E087E591E0C6
:10015000DF91CF910C942D04AF92BF92CF92DF929A
:10016000EF92FF920F931F93CF93DF93CDB7DEB73C
:1001700062970FB6F894DEBF0FBECDBF809110011D
:100180000E94360290934B0180934A0161E00B97E5
:100190000CF460E080910C010E94140361E08091F6
:1001A0004A0190914B010B970CF460E080910E0195
:1001B0000E94140360914A0170914B01882777FDDA
:1001C0008095982F1F921F921F922FEF2F93A12C93
:1001D000B12C6501E12C14E0F12E00E010E020E0EC
:1001E00030E0A9010E94A60570934901609348017F
:1001F00080910A010E945302609148017091490167
:1002000080914C0190914D01861B970B97FF03C085
:100210009195819591090F900F900F900F900297F3
:100220000CF443C04AE0CE0101960E948906609119
:100230004A0170914B014AE0CE010D960E94890659
:1002400063E171E0CE0107960E945B06BE01635F29
:100250007F4FCE0107960E94E1066BE171E00E949C
:10026000F406BE016F5F7F4F0E94E106BC0187E587
:1002700091E00E949405CE0107960E94ED05CE0103
:100280000D960E94ED05CE0101960E94ED0561E0FC
:1002900070E080E090E00E94D3018091480190914D
:1002A000490190934D0180934C0162960FB6F894EA
:1002B000DEBF0FBECDBFDF91CF911F910F91FF9099
:1002C000EF90DF90CF90BF90AF9008951F920F9264
:1002D0000FB60F9211242F933F938F939F93AF9359
:1002E000BF9380914F0190915001A0915101B09125
:1002F000520130914E0123E0230F2D3720F4019657
:10030000A11DB11D05C026E8230F0296A11DB11D38
:1003100020934E0180934F0190935001A09351017F
:10032000B09352018091530190915401A0915501D5
:10033000B09156010196A11DB11D80935301909378
:100340005401A0935501B0935601BF91AF919F9175
:100350008F913F912F910F900FBE0F901F90189586
:100360003FB7F8948091530190915401A0915501A9
:10037000B091560126B5A89B05C02F3F19F00196F4
:10038000A11DB11D3FBF6627782F892F9A2F620FBD
:10039000711D811D911D42E0660F771F881F991FF7
:1003A0004A95D1F70895CF92DF92EF92FF92CF93C3
:1003B000DF936B017C010E94B001EB01C114D104F9
:1003C000E104F10489F00E940E070E94B0016C1B49
:1003D0007D0B683E734090F381E0C81AD108E108B4
:1003E000F108C851DC4FEACFDF91CF91FF90EF9039
:1003F000DF90CF900895789484B5826084BD84B5F1
:10040000816084BD85B5826085BD85B5816085BD0F
:10041000EEE6F0E0808181608083E1E8F0E0108228
:10042000808182608083808181608083E0E8F0E069
:10043000808181608083E1EBF0E080818460808353
:10044000E0EBF0E0808181608083EAE7F0E080818A
:1004500084608083808182608083808181608083EA
:100460008081806880831092C10008958E3008F0EA
:100470008E5087702091120190E4299F90011124E1
:10048000822B80937C0080917A00806480937A0034
:1004900080917A0086FDFCCF8091780020917900D0
:1004A00090E0922B08951F93CF93DF93182FEB01C9
:1004B00061E00E94DB02209711F460E004C0CF3FAE
:1004C000D10539F461E0812FDF91CF911F910C9418
:1004D0001403E12FF0E0E859FF4FE491E330F9F025
:1004E00048F4E130B9F0E230A1F584B5806284BD12
:1004F000C8BD34C0E730E9F0E83019F1E43049F51F
:1005000080918000806280938000D0938B00C093A4
:100510008A0024C084B5806884BDC7BD1FC0809197
:100520008000806880938000D0938900C093880009
:1005300015C08091B00080688093B000C093B30074
:100540000DC08091B00080628093B000C093B40071
:1005500005C0C038D1050CF0B5CFAFCFDF91CF913A
:100560001F910895833081F028F4813099F0823012
:10057000A1F008958730A9F08830B9F08430D1F423
:10058000809180008F7D03C0809180008F77809361
:100590008000089584B58F7702C084B58F7D84BDB7
:1005A00008958091B0008F7703C08091B0008F7D57
:1005B0008093B0000895CF93DF9390E0FC01E4585E
:1005C000FF4F2491FC01E057FF4F8491882349F1AC
:1005D00090E0880F991FFC01E255FF4FA591B4915F
:1005E0008C559F4FFC01C591D4919FB7611108C0F4
:1005F000F8948C91209582238C93888182230AC061
:10060000623051F4F8948C91322F309583238C937F
:100610008881822B888304C0F8948C91822B8C93E0
:100620009FBFDF91CF9108950F931F93CF93DF93D7
:100630001F92CDB7DEB7282F30E0F901E859FF4F00
:100640008491F901E458FF4F1491F901E057FF4FED
:1006500004910023C9F0882321F069830E94B2022B
:100660006981E02FF0E0EE0FFF1FEC55FF4FA591E1
:10067000B4919FB7F8948C91611103C010958123B8
:1006800001C0812B8C939FBF0F90DF91CF911F9161
:100690000F910895FC01818D228D90E0805C9F4F29
:1006A000821B91098F7399270895FC01918D828D8A
:1006B000981731F0828DE80FF11D858D90E0089537
:1006C0008FEF9FEF0895FC01918D828D981761F057
:1006D000828DDF01A80FB11D5D968C91928D9F5F79
:1006E0009F73928F90E008958FEF9FEF089587EEAC
:1006F00094E0892B49F080E090E0892B29F00E945A
:10070000E70481110C9400000895FC01848DDF0141
:10071000A80FB11DA35ABF4F2C91848D90E0019674
:100720008F739927848FA689B7892C93A089B18963
:100730008C9180648C93938D848D981306C002886D
:10074000F389E02D80818F7D80830895CF93DF939F
:10075000EC01888D8823C9F0EA89FB89808185FDB9
:1007600005C0A889B9898C9186FD0FC00FB607FC1A
:10077000F5CF808185FFF2CFA889B9898C9185FF5B
:10078000EDCFCE010E948503E7CFDF91CF91089591
:10079000CF92DF92FF920F931F93CF93DF931F921D
:1007A000CDB7DEB76C0181E0D60158968C9358978F
:1007B0005B969C915B975C968C915C97981307C0B5
:1007C0005096ED91FC915197808185FD2EC0F601E8
:1007D000038D10E00F5F1F4F0F731127F02EF601EE
:1007E000848DF81211C00FB607FCF9CFD6015096D0
:1007F000ED91FC915197808185FFF1CFC60169830E
:100800000E9485036981EBCF838DE80FF11DE35AC8
:10081000FF4F6083D6015B960C935B975296ED91E8
:10082000FC915397808180620CC0D6015696ED9161
:10083000FC91579760835096ED91FC915197808180
:100840008064808381E090E00F90DF91CF911F91D1
:100850000F91FF90DF90CF900895BF92CF92DF92DB
:10086000EF92FF92CF93DF93EC016A017B01B22EEE
:10087000E889F98982E08083411581EE5807610596
:100880007105A1F060E079E08DE390E0A7019601A9
:100890000E941F072150310941095109569547957A
:1008A00037952795211580E1380798F0E889F9896F
:1008B000108260E874E88EE190E0A70196010E9442
:1008C0001F07215031094109510956954795379520
:1008D0002795EC85FD853083EE85FF852083188E76
:1008E000EC89FD89B082EA89FB89808180618083FF
:1008F000EA89FB89808188608083EA89FB8980811D
:1009000080688083EA89FB8980818F7D8083DF9185
:10091000CF91FF90EF90DF90CF90BF9008951F92FE
:100920000F920FB60F9211242F938F939F93EF93F3
:10093000FF93E0916701F09168018081E0916D0182
:10094000F0916E0182FD12C09081809170018F5FE5
:100950008F7320917101821751F0E0917001F0E0E6
:10096000E95AFE4F958F8093700101C08081FF91FD
:10097000EF919F918F912F910F900FBE0F901F902D
:1009800018951F920F920FB60F9211242F933F9339
:100990004F935F936F937F938F939F93AF93BF9387
:1009A000EF93FF9387E591E00E948503FF91EF911C
:1009B000BF91AF919F918F917F916F915F914F9177
:1009C0003F912F910F900FBE0F901F90189587E5C4
:1009D00091E00E944A0321E0892B09F420E0822F54
:1009E000089510925A011092590188EE93E0A0E008
:1009F000B0E080935B0190935C01A0935D01B093A4
:100A00005E018AE291E0909358018093570185EC52
:100A100090E0909364018093630184EC90E0909364
:100A200066018093650180EC90E09093680180936B
:100A3000670181EC90E090936A018093690182ECF8
:100A400090E090936C0180936B0186EC90E0909322
:100A50006E0180936D0110927001109271011092DD
:100A6000720110927301089508950E94FB010E9483
:100A700034050E948700C7E7D3E00E94AC002097AE
:100A8000E1F30E947703F9CFCF92DF92EF92FF92CA
:100A90000F931F93CF93DF936C017A01EB01E60E66
:100AA000F71E00E010E0CE15DF0561F06991D60178
:100AB000ED91FC910190F081E02DC6010995080FA0
:100AC000191FF1CFC801DF91CF911F910F91FF90B6
:100AD000EF90DF90CF9008956115710581F0DB01F3
:100AE0000D900020E9F7AD0141505109461B570B0D
:100AF000DC01ED91FC910280F381E02D099480E00E
:100B000090E00895DC01ED91FC91DB0114964D918C
:100B10005C9115976D917C910280F381E02D099491
:100B200066E371E00C946C050F931F93CF93DF93F2
:100B3000EC010E9482058C01CE010E949005800F7D
:100B4000911FDF91CF911F910F9108954F925F9266
:100B50006F927F92AF92BF92CF92DF92EF92FF920D
:100B60000F931F93CF93DF93CDB7DEB729013A01DF
:100B7000621B730B840B950B29893A894B895C891D
:100B80002A193B094C095D09298B3A8B4B8B5C8BED
:100B90009B01AC0169897A898B899C890E940F0726
:100BA000E418F50806091709A80197010E944107F2
:100BB0002A0D3B1D4C1D5D1DCA01B901DF91CF916E
:100BC0001F910F91FF90EF90DF90CF90BF90AF906B
:100BD0007F906F905F904F900895FC01808191818C
:100BE0000C941808CF93DF93EC01888199810097CA
:100BF00011F00E941808198218821D821C821B8223
:100C00001A82DF91CF9108950F931F93CF93DF93B3
:100C1000EC018B016F5F7F4F888199810E94A7084B
:100C2000009731F0998388831B830A8381E001C098
:100C300080E0DF91CF911F910F910895CF93DF93C3
:100C4000EC0188819981892B29F08A819B81861703
:100C5000970760F4CE010E940406882341F08C813E
:100C60009D81892B19F4E881F981108281E0DF915F
:100C7000CF910895EF92FF920F931F93CF93DF933D
:100C8000EC017B018A01BA010E941E06811104C099
:100C9000CE010E94F20507C01D830C83B701888135
:100CA00099810E947A09CE01DF91CF911F910F9116
:100CB000FF90EF900895FC0111821082138212823E
:100CC000158214826115710559F0FB010190002015
:100CD000E9F7AF0141505109461B570B0C943A06F6
:100CE0000895CF93DF93EC016115710561F0FB016D
:100CF00001900020E9F7AF0141505109461B570B05
:100D00000E943A0602C00E94F205CE01DF91CF9107
:100D100008950F931F93CF93DF93CDB7DEB76297FC
:100D20000FB6F894DEBF0FBECDBF8C01CB01F8012A
:100D300011821082138212821582148250E0BE0149
:100D40006F5F7F4F0E948109BE016F5F7F4FC801B7
:100D50000E94710662960FB6F894DEBF0FBECDBF3B
:100D6000DF91CF911F910F910895EF92FF920F9312
:100D70001F93CF93DF93EC017B010C811D816115E3
:100D8000710511F480E016C04115510591F0040F72
:100D9000151FB8010E941E068823A1F328813981FE
:100DA0008C819D81B701820F931F0E947A091D8358
:100DB0000C8381E0DF91CF911F910F91FF90EF9015
:100DC0000895CF93DF93EC01FB014481558160814D
:100DD00071810E94B506811103C0CE010E94F20507
:100DE000CE01DF91CF910895CF93DF93EC01611590
:100DF000710569F0FB0101900020E9F7AF01415056
:100E00005109461B570B0E94B506811103C0CE0144
:100E10000E94F205CE01DF91CF9108950895DB0184
:100E20008F939F930E946007BF91AF91A29F800D07
:100E3000911DA39F900DB29F900D11240895A1E2E2
:100E40001A2EAA1BBB1BFD010DC0AA1FBB1FEE1F44
:100E5000FF1FA217B307E407F50720F0A21BB30B8F
:100E6000E40BF50B661F771F881F991F1A9469F70B
:100E700060957095809590959B01AC01BD01CF0167
:100E80000895052E97FB1EF400940E94580757FD05
:100E900007D00E941F0707FC03D04EF40C9458079C
:100EA00050954095309521953F4F4F4F5F4F089596
:100EB00090958095709561957F4F8F4F9F4F0895C6
:100EC0000E947107A59F900DB49F900DA49F800D67
:100ED000911D11240895EE0FFF1F0590F491E02D50
:100EE0000994A29FB001B39FC001A39F700D811D03
:100EF0001124911DB29F700D811D1124911D089523
:100F0000CF93DF938230910510F482E090E0E0917E
:100F1000F601F091F70120E030E0A0E0B0E030977A
:100F200039F14081518148175907B8F048175907DE
:100F300071F482819381109729F013969C938E937C
:100F400012972CC09093F7018093F60127C02115CA
:100F5000310531F04217530718F0A901DB0101C038
:100F6000EF019A01BD01DF010280F381E02DD7CFAF
:100F700021153105F9F0281B390B2430310580F497
:100F80008A819B816115710521F0FB019383828326
:100F900004C09093F7018093F601FE01329644C09D
:100FA000FE01E20FF31F819391932250310939839F
:100FB00028833AC02091F4013091F501232B41F4AC
:100FC00020910201309103013093F5012093F40147
:100FD00020910001309101012115310541F42DB717
:100FE0003EB74091040150910501241B350BE0915F
:100FF000F401F091F501E217F307A0F42E1B3F0B6B
:101000002817390778F0AC014E5F5F4F241735077A
:1010100048F04E0F5F1F5093F5014093F401819308
:10102000919302C0E0E0F0E0CF01DF91CF9108950D
:10103000CF93DF93009709F487C0FC0132971382A6
:101040001282C091F601D091F701209781F420819E
:101050003181280F391F8091F4019091F501821799
:10106000930779F5F093F501E093F4016DC0DE018B
:1010700020E030E0AE17BF0750F412964D915C911E
:1010800013979D014115510509F1DA01F3CFB3839F
:10109000A28340815181840F951F8A179B0771F4A9
:1010A0008D919C911197840F951F02969183808357
:1010B00012968D919C91139793838283211531050C
:1010C00029F4F093F701E093F6013EC0D90113969D
:1010D000FC93EE9312974D915D91A40FB51FEA1703
:1010E000FB0779F480819181840F951F0296D901C5
:1010F00011969C938E938281938113969C938E93E9
:101100001297E0E0F0E08A819B81009719F0FE01E0
:10111000EC01F9CFCE01029628813981820F931F0D
:101120002091F4013091F5012817390769F43097BF
:1011300029F41092F7011092F60102C01382128274
:10114000D093F501C093F401DF91CF910895A0E011
:10115000B0E0EDEAF8E00C94C509EC01CB01209772
:1011600019F40E948007B8C0FE01E60FF71F9E0128
:1011700022503109E217F30708F4ACC0D9010D91F0
:101180001C91119706171707B8F00530110508F4E0
:101190009FC0A801445051094617570708F498C04A
:1011A00002501109061B170B019311936D937C9349
:1011B000CF010E9418088CC05B01A01AB10A4E0131
:1011C000800E911EA091F601B091F701612C712C57
:1011D00060E070E0109709F449C0A815B905C9F599
:1011E000ED90FC901197670142E0C40ED11CCA1427
:1011F000DB0478F147018A189B08640142E0C40EC1
:10120000D11C1296BC9012971396AC91B5E0CB16F8
:10121000D10440F0B282A38391828082D9018D9360
:101220009C9309C00E5F1F4F0E0D1F1DF901118306
:101230000083EB2DFA2F6115710531F0DB01139658
:10124000FC93EE93129744C0F093F701E093F601FC
:101250003FC06D917C9111976616770608F43B01AB
:10126000BD0112960D90BC91A02DB4CF6091F401F8
:101270007091F50168157905E9F468167906D0F4DE
:1012800040910001509101014115510541F44DB7C4
:101290005EB76091040170910501461B570BE4177E
:1012A000F507C0F4F093F501E093F401F90191839F
:1012B00080830EC00E9480077C01009759F0A8012E
:1012C000BE010E947109CE010E941808C70104C026
:1012D000CE0102C080E090E0CDB7DEB7EEE00C9426
:1012E000E109FB01DC0102C001900D924150504028
:1012F000D8F70895FB01DC0101900D920020E1F781
:1013000008954532510520F4423010F00C948C09B8
:10131000FB011082CB010895BB274A3031F4992399
:1013200022F4BDE2909581959F4F0C949809BB27BC
:10133000FB015527AA27880F991FAA1FA41710F091
:10134000A41B83955051B9F7A05DAA3308F0A95D9D
:10135000A193009779F7B111B1931192CB010C943D
:10136000B109DC01FC01672F71917723E1F7329716
:1013700004C07C916D9370836291AE17BF07C8F370
:1013800008952F923F924F925F926F927F928F9229
:101390009F92AF92BF92CF92DF92EF92FF920F9304
:1013A0001F93CF93DF93CDB7DEB7CA1BDB0B0FB60E
:1013B000F894DEBF0FBECDBF09942A8839884888CB
:1013C0005F846E847D848C849B84AA84B984C88461
:1013D000DF80EE80FD800C811B81AA81B981CE0F58
:1013E000D11D0FB6F894DEBF0FBECDBFED0108953D
:0413F000F894FFCF9F
:1013F4000000F801800001000000050004000D0059
:10140400110001496E7075743A20002C204F7574D8
:101414007075743A200000000000C80344054A03B4
:1014240063035503A6030D0A006E616E00696E66C0
:08143400006F7666002E000037
:00000001FF
