:100000000C9463000C948B000C948B000C948B006C
:100010000C948B000C948B000C948B000C94C601F8
:100020000C948B000C948B000C948B000C948B0024
:100030000C948B000C948B000C948B000C948B0014
:100040000C946B080C948B000C94F60A0C94280BFF
:100050000C948B000C948B000C948B000C948B00F4
:100060000C948B000C948B0000000008000201002F
:100070000003040700000000000000000102040863
:100080001020408001020408102001020408102002
:10009000040404040404040402020202020203032E
:1000A00003030303000000002300260029000000D2
:1000B0000000250028002B0000000000240027007D
:1000C0002A005C01580B11241FBECFEFD8E0DEBF21
:1000D000CDBF11E0A0E0B1E0EEE7F5E202C005908F
:1000E0000D92AA35B107D9F722E0AAE5B1E001C027
:1000F0001D92A13EB207E1F710E0C6ECD0E004C0CB
:100100002297FE010E94FA0FC23CD107C9F70E9454
:100110009C0B0C94BD120C940000CF93DF9388E6E7
:1001200091E00E94AF01C6E0D1E060E088810E94CA
:10013000190961E088810E94520926E040E052ECF2
:1001400061E070E080E492E0DF91CF910C94940A3A
:10015000CF93DF93CDB7DEB72C970FB6F894DEBF01
:100160000FBECDBF6AE571E088E691E00E9400080D
:10017000892B09F498C060915A0170915B014AE0A3
:10018000CE0107960E94A90C68E071E0CE010196AD
:100190000E947B0CBE01695F7F4FCE0101960E94D9
:1001A0005A0DBC0180E492E00E94FB0BCE01019647
:1001B0000E940D0CCE0107960E940D0C60915C010F
:1001C00070915D014AE0CE0107960E94D50C66E170
:1001D00071E0CE0101960E947B0CBE01695F7F4FEA
:1001E000CE0101960E945A0DBC0180E492E00E946B
:1001F000FB0BCE0101960E940D0CCE0107960E94CA
:100200000D0C40915E0150915F0160916001709111
:1002100061012AE0CE0107960E94010D69E271E0BA
:10022000CE0101960E947B0CBE01695F7F4FCE011B
:1002300001960E945A0DBC0180E492E00E94FB0BE3
:10024000CE0101960E940D0CCE0107960E940D0C66
:1002500060916201709163014AE0CE0107960E94AD
:10026000A90C61E371E0CE0101960E947B0CBE01F6
:10027000695F7F4FCE0101960E945A0DBC0180E458
:1002800092E00E94FB0BCE0101960E940D0CCE0164
:1002900007960E940D0C80E492E00E94F70B88E61E
:1002A00091E00E9465022C960FB6F894DEBF0FBE57
:1002B000CDBFDF91CF910895609106017091070144
:1002C00088E691E00C94AA01CF92DF92EF92FF9220
:1002D000CF93DF93EC01882777FD8095982F0E94BC
:1002E000710E6B017C0120E030E040E45FE30E948E
:1002F000210F20E030E048E452E40E94D60D0E9435
:100300003E0EC617D707ECF020E030E040EA5FE38E
:10031000C701B6010E94210F20E030E048E452E41A
:100320000E94D60D20E030E040E85FE30E946E0DB1
:100330000E943E0E21E06C177D070CF420E0822F16
:1003400001C080E090E0DF91CF91FF90EF90DF90CF
:10035000CF9008956093690110926B010895F8940D
:1003600082E08093B0008093B10094E69093B30054
:100370001092B20080937000789480936A0110927A
:1003800036028091690160E00C9419091F920F9266
:100390000FB60F9211242F933F934F935F936F9358
:1003A0007F938F939F93AF93BF93EF93FF9380912E
:1003B00069010E94880920916C0130916D012F5FC5
:1003C0003F4F30936D0120936C019091360294362B
:1003D00018F095E090936A0190916A019330B9F01A
:1003E00018F4923039F057C0943059F1953009F42F
:1003F0004CC051C081114FC020916C0130916D01F2
:100400002436310508F443C0109236021CC08130F6
:1004100009F041C0E091360291E09E0F90933602C0
:10042000F0E020916C0130916D01EE0FFF1FE75954
:10043000FE4F3683258310926D0110926C0194E07B
:1004400021C0811117C0E091360291E09E0F909378
:100450003602F0E020916C0130916D01EE0FFF1F2C
:10046000E759FE4F3683258310926D0110926C017F
:1004700093E008C020916C0130916D012536310563
:1004800050F095E090936A0106C0811104C010926B
:100490006D0110926C0190916B01992329F08111EB
:1004A00002C02D9A01C02D98FF91EF91BF91AF919D
:1004B0009F918F917F916F915F914F913F912F917C
:1004C0000F900FBE0F901F90189582E080936A01E5
:1004D000109236020895CF93DF93FB01C285D38536
:1004E0008A819B81885891098D35910500F580910D
:1004F0003602843029F48C819D8180974797D8F00B
:1005000080913602843498F08C819D8182549109C7
:100510008E9768F4269623E030E080E090E0DC01DE
:10052000488159814950510949305105D8F060E05E
:1005300070E0CB013AC08E819F810997099700F73F
:10054000118610868FEF9FEFDC0184839583A6834D
:10055000B78381E090E09183808361E070E080E088
:1005600090E023C04A815B814651510941315105D8
:1005700080F4880F991FAA1FBB1F81602E5F3F4F19
:1005800024962334310561F620E230E0318720875C
:10059000DCCF4A815B81465051094730510538F61E
:1005A000880F991FAA1FBB1FE9CFDF91CF91089534
:1005B0000F931F93CF93DF93FB01809136028A3113
:1005C00008F44DC0C285D38588819981843F9140CC
:1005D00060F4118610868FEF9FEFDC018483958392
:1005E000A683B78389E090E033C08A819B81859799
:1005F0004B97A8F58E010A5F1F4F22E030E080E0A4
:1006000090E0DC014091360250E0B9016F5F7F4F0E
:10061000641775075CF4A80142505109EA0148814A
:1006200059814750510947305105E8F021503109AF
:1006300035952795318720872C3031051CF411869C
:1006400010860DC084839583A683B78382E090E0F3
:100650009183808361E070E080E090E023C060E0FF
:1006600070E0CB011FC0E801488159814351510915
:100670004F30510550F4880F991FAA1FBB1F81608E
:100680002E5F3F4F0C5F1F4FBDCFE801488159815E
:100690004A5051094930510510F7880F991FAA1F78
:1006A000BB1FEECFDF91CF911F910F9108950F9354
:1006B0001F93CF93DF93FB01809136028A3108F4B8
:1006C00051C0C285D385888199818032934030F4AE
:1006D000118610868FEF9FEFDC0107C08A819B8116
:1006E000C697869708F442C03DC084839583A6834D
:1006F000B78389E090E09183808361E070E080E0DF
:1007000090E04FC0E80148815981455251094B3171
:100710005105D0F5880F991FAA1FBB1F81602E5F5E
:100720003F4F0C5F1F4F4091360250E0B9016F5FA1
:100730007F4F641775075CF4A80142505109EA0124
:10074000488159814C5051094B305105D8F2215004
:10075000310935952795318720872C3031052CF6C6
:100760001186108660E070E0CB011BC08C819D81FA
:10077000C6978697B8F78E01085F1F4F23E030E0D9
:1007800080E090E0DC01CFCFE801488159814C50F6
:1007900051094A30510530F7880F991FAA1FBB1F16
:1007A000BECFDF91CF911F910F910895EF92FF92ED
:1007B0000F931F93CF93DF93FB0180913602823218
:1007C00008F44DC0C285D3858A819B81069707971F
:1007D00008F045C07E0186E0E80EF11C22E030E022
:1007E00080E090E0DC01B9016F5F7F4F40913602FD
:1007F00050E064177507D4F4E70122970881198146
:100800000E5111090731110570F5880F991FAA1FA4
:10081000BB1F8160E70148815981D4E0ED0EF11CD6
:10082000435051094530510550F19B012150310988
:100830003595279531872087203131051CF41186A5
:1008400010860DC084839583A683B7838AE090E0E9
:100850009183808361E070E080E090E013C060E00D
:1008600070E0CB010FC0488159814C5051094B3089
:100870005105A8F7880F991FAA1FBB1FCBCF2E5F6A
:100880003F4FB1CFDF91CF911F910F91FF90EF902C
:1008900008958F929F92AF92BF92CF92DF92EF9284
:1008A000FF920F931F93CF93DF937A016901DA01CF
:1008B000CD91DC91FB0184859585C817D9070CF093
:1008C0004AC0CE01880F991F0284F385E02DE80FFE
:1008D000F91FA080B180C170DD27F1E0CF272097FC
:1008E00019F484E690E002C08CE99FEF4801880E7D
:1008F000991EB401C5010E946401892B99F4800EF0
:10090000911EB401C5010E946401892B71F4B401E8
:10091000600F711FC5010E946401892BF9F023E06B
:1009200030E005C021E030E002C022E030E0D60136
:100930008D919C91119701968217930744F0F601CF
:1009400011821082D7018D919C91119701968D9300
:100950009C93CE0105C081E090E002C08FEF9FEF35
:10096000DF91CF911F910F91FF90EF90DF90CF908B
:10097000BF90AF909F908F9008954F925F926F922B
:100980007F928F929F92AF92BF92CF92DF92EF921F
:10099000FF920F931F93CF93DF9300D000D0CDB77A
:1009A000DEB76C017B01809136028D3020F460E06F
:1009B00070E0CB017AC081E090E09C838B831A8247
:1009C000198209E713E09E012F5F3F4FAE014D5F93
:1009D0005F4FC6010E944904892B49F79E012F5F92
:1009E0003F4FAE014D5F5F4FB701C6010E94490402
:1009F0000197E9F69E012F5F3F4FAE014D5F5F4FBC
:100A0000B701C6010E944904892B89F6A12CB12C9B
:100A1000412C512C32018091360290E02B813C8197
:100A2000281739079CF509E713E09E012F5F3F4F18
:100A3000AE014D5F5F4FB701C6010E9449044C01F2
:100A40009E012F5F3F4FAE014D5F5F4FB701C60163
:100A50000E94490421E08216910451F4892B09F087
:100A6000A6CF440C551C661C771C689440F80AC03D
:100A7000892809F09CCF019709F099CF440C551CA7
:100A8000661C771C8FEFA81AB80AC5CFF701B1868C
:100A9000A086448255826682778283E090E09183CB
:100AA000808361E070E080E090E00F900F900F9005
:100AB0000F90DF91CF911F910F91FF90EF90DF90FA
:100AC000CF90BF90AF909F908F907F906F905F90EE
:100AD0004F9008952F923F924F925F926F927F9224
:100AE0008F929F92AF92BF92CF92DF92EF92FF923E
:100AF0000F931F93CF93DF9300D000D0CDB7DEB715
:100B00006C017B01DB011C968D919C911D97181641
:100B1000190624F060E070E0CB01B4C081E090E001
:100B20009C838B83DB011A96ED91FC911B9782814C
:100B3000938189974E9770F782E090E09C838B8336
:100B4000848195810B970A9728F783E090E09C8336
:100B50008B831A8219820CEB11E09E012F5F3F4FAD
:100B6000AE014D5F5F4FC6010E944904892B91F68B
:100B70000CEB11E09E012F5F3F4FAE014D5F5F4FC9
:100B8000B701C6010E944904019721F6A12CB12C9E
:100B9000212C312C21012B813C81F7018485958505
:100BA000281739070CF060C00CEB11E09E012F5F95
:100BB0003F4FAE014D5F5F4FB701C6010E94490430
:100BC0003C01B3E0AB16B10491F00CEB11E09E01D7
:100BD0002F5F3F4FAE014D5F5F4FB701C6010E94CF
:100BE00049044C01E3E0AE16B10409F510C00CEB6A
:100BF00011E09E012F5F3F4FAE014D5F5F4FB70188
:100C0000C6010E94490468167906F9F283CF0CEBFD
:100C100011E09E012F5F3F4FAE014D5F5F4FB70167
:100C2000C6010E9449048816990609F073CF611421
:100C3000710459F48A94892809F06CCF220C331C72
:100C4000441C551C689420F80BC06A94672809F06E
:100C500061CF892809F05ECF220C331C441C551C3F
:100C6000AFEFAA1ABA0A97CFB186A086248235823E
:100C70004682578284E090E09183808361E070E057
:100C800080E090E00F900F900F900F90DF91CF9148
:100C90001F910F91FF90EF90DF90CF90BF90AF909A
:100CA0009F908F907F906F905F904F903F902F908C
:100CB00008950F931F93CF93DF93FB01A285B38514
:100CC00012968D919C911397C6978697D0F414969F
:100CD0008D919C9115974B97459798F41696C3E084
:100CE000D0E020E030E040E050E060E070E080E004
:100CF00090E00D911C9111970950110908301105D0
:100D000020F060E070E0CB0135C012960D911C918F
:100D10001397015111090D301105F8F401E00E94FB
:100D2000C10F216022961496C336D10511F7248392
:100D300035834683578300E20E94DC0F228333838E
:100D400087E090E09183808380E390E091878087C3
:100D500061E070E080E090E00DC012960D911C9172
:100D60001397045011090530110558F601E00E944F
:100D7000C10FD8CFDF91CF911F910F9108950F939D
:100D80001F93CF93DF93FB01809136020285138579
:100D90008232A9F4D80112968D919C9113970A97EB
:100DA000099768F480913602D801A80FB11DA80FE9
:100DB000B11D12978D919C910A97099770F0D801F7
:100DC00012968D919C9113978957910983359105BE
:100DD00050F060E070E0CB015EC0118610868FEFAE
:100DE0009FEFDC014CC080913602813290F3E80124
:100DF0008C819D81CA97899760F798012A5F3F4F40
:100E000043E050E080E090E0DC01E9016881798115
:100E10006A50710969307105E0F6E9016A817B81E8
:100E20006651710961317105E0F4880F991FAA1F9D
:100E3000BB1F81604E5F5F4F2C5F3F4F43325105B8
:100E400021F7E801CA5BDF4F288139812A50310937
:100E50002930310508F0BDCF20E130E0318720870F
:100E60000EC0E9016A817B816650710967307105A6
:100E700008F0AFCF880F991FAA1FBB1FDBCF848359
:100E80009583A683B78388E090E09183808361E0B7
:100E900070E080E090E0DF91CF911F910F91089575
:100EA0008F929F92AF92BF92CF92DF92EF92FF927A
:100EB0007B01BA0180E090E00E946F0E4B015C0163
:100EC000B70180E090E00E946F0E6B017C012DEC79
:100ED0003CEC4CE45FE30E94210F9B01AC01C50197
:100EE000B4010E94D20D87FD17C02DEC3CEC4CE400
:100EF0005FE3C501B4010E94210F9B01AC01C70152
:100F0000B6010E94D20D992787FD90958827990FE9
:100F1000881F9927019602C080E090E0FF90EF9033
:100F2000DF90CF90BF90AF909F908F9008958F9259
:100F30009F92AF92BF92CF92DF92EF92FF920F9368
:100F40001F93CF93DF936C01EB01EC84FD8486E06B
:100F5000E816F1040CF444C0EE0CFF1C06E010E0AF
:100F600045EC842E4DE9942E4CE1A42E41E8B42E9C
:100F70008A859B85FC01E00FF11F40815181F801BA
:100F80003497E80FF91F60817181C6010E945007F4
:100F9000FC01A501940163E971E080E091E00E9409
:100FA000840F4F01AA2497FCA094BA2C862697267A
:100FB000A826B9260E5F1F4F0E151F05C9F68C8295
:100FC0009D82AE82BF8280E290E0998788878FEF12
:100FD0009FEF9983888361E070E080E090E003C038
:100FE00060E070E0CB01DF91CF911F910F91FF90F6
:100FF000EF90DF90CF90BF90AF909F908F9008952B
:101000000F931F93CF93DF938C01EB018EE691E05A
:101010009B878A878091360290E09D878C8780919C
:101020006A01853009F050C0C8010E946B02672B2D
:10103000682B692B19F081E090E048C0BE01C8011F
:101040000E94D802672B682B692BA9F7BE01C80143
:101050000E945703672B682B692B69F7BE01C801F3
:101060000E94D603672B682B692B29F7BE01C801A4
:101070000E94BD04672B682B692BE9F6BE01C801ED
:101080000E946A05672B682B692BA9F6BE01C8016F
:101090000E945906672B682B692B69F6BE01C801AF
:1010A0000E94BF06672B682B692B29F6BE01C80179
:1010B0000E949707672B682B692B09F0BCCF82E051
:1010C00080936A011092360280E090E0DF91CF9128
:1010D0001F910F9108951F920F920FB60F92112436
:1010E0002F933F938F939F93AF93BF938091380239
:1010F00090913902A0913A02B0913B0230913702AF
:1011000023E0230F2D3720F40196A11DB11D05C04A
:1011100026E8230F0296A11DB11D2093370280936C
:10112000380290933902A0933A02B0933B02809127
:101130003C0290913D02A0913E02B0913F02019687
:10114000A11DB11D80933C0290933D02A0933E02ED
:10115000B0933F02BF91AF919F918F913F912F919B
:101160000F900FBE0F901F901895789484B58260F1
:1011700084BD84B5816084BD85B5826085BD85B53B
:10118000816085BDEEE6F0E0808181608083E1E8EA
:10119000F0E0108280818260808380818160808322
:1011A000E0E8F0E0808181608083E1EBF0E0808125
:1011B00084608083E0EBF0E0808181608083EAE7F7
:1011C000F0E0808184608083808182608083808180
:1011D000816080838081806880831092C10008953F
:1011E000833081F028F4813099F08230A1F00895A5
:1011F0008730A9F08830B9F08430D1F48091800034
:101200008F7D03C0809180008F7780938000089548
:1012100084B58F7702C084B58F7D84BD0895809199
:10122000B0008F7703C08091B0008F7D8093B000B5
:101230000895CF93DF9390E0FC01E458FF4F249191
:10124000FC01E057FF4F8491882349F190E0880F1B
:10125000991FFC01E854FF4FA591B49182559F4F0F
:10126000FC01C591D4919FB7611108C0F8948C918D
:10127000209582238C93888182230AC0623051F4A6
:10128000F8948C91322F309583238C938881822B14
:10129000888304C0F8948C91822B8C939FBFDF913C
:1012A000CF9108950F931F93CF93DF931F92CDB7E4
:1012B000DEB7282F30E0F901E859FF4F8491F9019A
:1012C000E458FF4F1491F901E057FF4F04910023B8
:1012D000C9F0882321F069830E94F0086981E02F1A
:1012E000F0E0EE0FFF1FE255FF4FA591B4919FB7BD
:1012F000F8948C91611103C01095812301C0812B5A
:101300008C939FBF0F90DF91CF911F910F91089504
:10131000CF93DF93282F30E0F901E859FF4F8491F4
:10132000F901E458FF4FD491F901E057FF4FC49100
:10133000CC2391F081110E94F008EC2FF0E0EE0F29
:10134000FF1FEC55FF4FA591B4912C912D2381E007
:1013500090E021F480E002C080E090E0DF91CF9146
:101360000895FC01818D228D90E0805C9F4F821B4F
:1013700091098F7399270895FC01918D828D98179B
:1013800031F0828DE80FF11D858D90E008958FEF8B
:101390009FEF0895FC01918D828D981761F0828DE9
:1013A000DF01A80FB11D5D968C91928D9F5F9F7399
:1013B000928F90E008958FEF9FEF08958EE49BE069
:1013C000892B49F080E090E0892B29F00E944E0B98
:1013D00081110C9400000895FC01848DDF01A80F99
:1013E000B11DA35ABF4F2C91848D90E001968F734D
:1013F0009927848FA689B7892C93A089B1898C916C
:1014000080648C93938D848D981306C00288F38931
:10141000E02D80818F7D80830895CF93DF93EC0151
:10142000888D8823C9F0EA89FB89808185FD05C004
:10143000A889B9898C9186FD0FC00FB607FCF5CF3E
:10144000808185FFF2CFA889B9898C9185FFEDCF86
:10145000CE010E94EC09E7CFDF91CF910895CF92A2
:10146000DF92FF920F931F93CF93DF931F92CDB71D
:10147000DEB76C0181E0D60158968C9358975B9645
:101480009C915B975C968C915C97981307C05096E3
:10149000ED91FC915197808185FD2EC0F601038D61
:1014A00010E00F5F1F4F0F731127F02EF601848D90
:1014B000F81211C00FB607FCF9CFD6015096ED9186
:1014C000FC915197808185FFF1CFC60169830E940D
:1014D000EC096981EBCF838DE80FF11DE35AFF4FD3
:1014E0006083D6015B960C935B975296ED91FC91CD
:1014F0005397808180620CC0D6015696ED91FC9185
:10150000579760835096ED91FC915197808180644C
:10151000808381E090E00F90DF91CF911F910F9138
:10152000FF90DF90CF900895BF92CF92DF92EF921D
:10153000FF92CF93DF93EC016A017B01B22EE88921
:10154000F98982E08083411581EE580761057105B4
:10155000A1F060E079E08DE390E0A70196010E94A0
:10156000940F2150310941095109569547953795F6
:101570002795211580E1380798F0E889F9891082CC
:1015800060E874E88EE190E0A70196010E94940F54
:1015900021503109410951095695479537952795AD
:1015A000EC85FD853083EE85FF852083188EEC89E0
:1015B000FD89B082EA89FB89808180618083EA8924
:1015C000FB89808188608083EA89FB8980818068CB
:1015D0008083EA89FB8980818F7D8083DF91CF9131
:1015E000FF90EF90DF90CF90BF9008951F920F92E1
:1015F0000FB60F9211242F938F939F93EF93FF9326
:10160000E0915002F09151028081E0915602F091F8
:10161000570282FD12C09081809159028F5F8F73B3
:1016200020915A02821751F0E0915902F0E0E05CFB
:10163000FD4F958F8093590201C08081FF91EF91FA
:101640009F918F912F910F900FBE0F901F90189523
:101650001F920F920FB60F9211242F933F934F9327
:101660005F936F937F938F939F93AF93BF93EF930A
:10167000FF9380E492E00E94EC09FF91EF91BF910B
:10168000AF919F918F917F916F915F914F913F911A
:101690002F910F900FBE0F901F90189580E492E04D
:1016A0000E94B10921E0892B09F420E0822F0895DE
:1016B000109243021092420288EE93E0A0E0B0E064
:1016C0008093440290934502A0934602B093470250
:1016D0008CE391E0909341028093400285EC90E08E
:1016E00090934D0280934C0284EC90E090934F02D3
:1016F00080934E0280EC90E09093510280935002D0
:1017000081EC90E0909353028093520282EC90E03F
:10171000909355028093540286EC90E09093570288
:10172000809356021092590210925A0210925B0254
:1017300010925C02089508950E94B5080E949B0BC8
:101740000E948D00CEEDD9E00E94A8002097E1F321
:101750000E94DE09F9CFCF92DF92EF92FF920F93B2
:101760001F93CF93DF936C017A01EB01E60EF71E16
:1017700000E010E0CE15DF0561F06991D601ED9132
:10178000FC910190F081E02DC6010995080F191F09
:10179000F1CFC801DF91CF911F910F91FF90EF9092
:1017A000DF90CF9008956115710581F0DB010D90F8
:1017B0000020E9F7AD0141505109461B570BDC01F0
:1017C000ED91FC910280F381E02D099480E090E09E
:1017D0000895DC01ED91FC91DB0114964D915C9133
:1017E00015976D917C910280F381E02D099468E456
:1017F00071E00C94D30B0F931F93CF93DF93EC0105
:101800000E94E90B8C01CE010E94F70B800F911F03
:10181000DF91CF911F910F910895FC0180819181FB
:101820000C94A510CF93DF93EC01888199810097E8
:1018300011F00E94A510198218821D821C821B8241
:101840001A82DF91CF9108950F931F93CF93DF9367
:10185000EC018B016F5F7F4F888199810E94341169
:10186000009731F0998388831B830A8381E001C04C
:1018700080E0DF91CF911F910F910895CF93DF9377
:10188000EC0188819981892B29F08A819B818617B7
:10189000970760F4CE010E94240C882341F08C81CC
:1018A0009D81892B19F4E881F981108281E0DF9113
:1018B000CF910895EF92FF920F931F93CF93DF93F1
:1018C000EC017B018A01BA010E943E0C811104C027
:1018D000CE010E94120C07C01D830C83B7018881C2
:1018E00099810E940712CE01DF91CF911F910F9134
:1018F000FF90EF900895FC011182108213821282F2
:10190000158214826115710559F0FB0101900020C8
:10191000E9F7AF0141505109461B570B0C945A0C83
:101920000895CF93DF93EC016115710561F0FB0120
:1019300001900020E9F7AF0141505109461B570BB8
:101940000E945A0C02C00E94120CCE01DF91CF916E
:1019500008950F931F93CF93DF93CDB7DEB76297B0
:101960000FB6F894DEBF0FBECDBF8C01CB01F801DE
:1019700011821082138212821582148250E0BE01FD
:101980006F5F7F4F0E940E12BE016F5F7F4FC801D5
:101990000E94910C62960FB6F894DEBF0FBECDBFC9
:1019A000DF91CF911F910F9108950F931F93CF93C4
:1019B000DF93CDB7DEB761970FB6F894DEBF0FBEE9
:1019C000CDBF8C01CB01F8011182108213821282EB
:1019D0001582148250E0BE016F5F7F4F0E9451124A
:1019E000BE016F5F7F4FC8010E94910C61960FB6D8
:1019F000F894DEBF0FBECDBFDF91CF911F910F9145
:101A000008950F931F93CF93DF93CDB7DEB7A197C0
:101A10000FB6F894DEBF0FBECDBF8C01CB01BA016B
:101A2000F80111821082138212821582148230E032
:101A3000AE014F5F5F4F0E942412BE016F5F7F4F68
:101A4000C8010E94910CA1960FB6F894DEBF0FBE9C
:101A5000CDBFDF91CF911F910F910895EF92FF922B
:101A60000F931F93CF93DF93EC017B010C811D81BA
:101A70006115710511F480E016C04115510591F012
:101A8000040F151FB8010E943E0C8823A1F3288182
:101A900039818C819D81B701820F931F0E940712AB
:101AA0001D830C8381E0DF91CF911F910F91FF90F7
:101AB000EF900895CF93DF93EC01FB0144815581B2
:101AC000608171810E942E0D811103C0CE010E94A0
:101AD000120CCE01DF91CF9108955058BB27AA2751
:101AE0000ED075C166D130F06BD120F031F49F3F3C
:101AF00011F41EF45BC10EF4E095E7FB51C1E92F30
:101B000077D180F3BA17620773078407950718F037
:101B100071F49EF58FC10EF4E0950B2EBA2FA02D17
:101B20000B01B90190010C01CA01A0011124FF278A
:101B3000591B99F0593F50F4503E68F11A16F04085
:101B4000A22F232F342F4427585FF3CF4695379584
:101B50002795A795F0405395C9F77EF41F16BA0B49
:101B6000620B730B840BBAF09150A1F0FF0FBB1FF7
:101B7000661F771F881FC2F70EC0BA0F621F731F40
:101B8000841F48F4879577956795B795F7959E3F9D
:101B900008F0B3CF9395880F08F09927EE0F97952B
:101BA00087950895D9D008F481E008950CD00FC12D
:101BB00007D140F0FED030F021F45F3F19F0F0C0C3
:101BC000511139C1F3C014D198F39923C9F35523A6
:101BD000B1F3951B550BBB27AA2762177307840720
:101BE00038F09F5F5F4F220F331F441FAA1FA9F3D6
:101BF00033D00E2E3AF0E0E830D091505040E695C8
:101C0000001CCAF729D0FE2F27D0660F771F881F28
:101C1000BB1F261737074807AB07B0E809F0BB0B17
:101C2000802DBF01FF2793585F4F2AF09E3F51053B
:101C300068F0B6C000C15F3FECF3983EDCF38695D8
:101C400077956795B795F7959F5FC9F7880F911DB1
:101C50009695879597F90895E1E0660F771F881F9D
:101C6000BB1F621773078407BA0720F0621B730B50
:101C7000840BBA0BEE1F88F7E095089504D06894A2
:101C8000B111D9C00895BCD088F09F5790F0B92FFA
:101C90009927B751A0F0D1F0660F771F881F991FC1
:101CA0001AF0BA95C9F712C0B13081F0C3D0B1E0D3
:101CB0000895C0C0672F782F8827B85F39F0B93FE3
:101CC000CCF3869577956795B395D9F73EF49095C3
:101CD0008095709561957F4F8F4F9F4F0895E89441
:101CE00009C097FB3EF490958095709561957F4F64
:101CF0008F4F9F4F9923A9F0F92F96E9BB27939512
:101D0000F695879577956795B795F111F8CFFAF421
:101D1000BB0F11F460FF1BC06F5F7F4F8F4F9F4F52
:101D200016C0882311F096E911C0772321F09EE8B0
:101D3000872F762F05C0662371F096E8862F70E016
:101D400060E02AF09A95660F771F881FDAF7880FF0
:101D50009695879597F90895990F0008550FAA0B46
:101D6000E0E8FEEF16161706E807F907C0F01216AE
:101D70001306E407F50798F0621B730B840B950BB1
:101D800039F40A2661F0232B242B252B21F4089506
:101D90000A2609F4A140A6958FEF811D811D0895A3
:101DA00097F99F6780E870E060E008959FEF80EC0E
:101DB000089500240A9416161706180609060895B1
:101DC00000240A9412161306140605060895092E17
:101DD0000394000C11F4882352F0BB0F40F4BF2B86
:101DE00011F460FF04C06F5F7F4F8F4F9F4F0895C6
:101DF00057FD9058440F551F59F05F3F71F04795BC
:101E0000880F97FB991F61F09F3F79F087950895A0
:101E1000121613061406551FF2CF4695F1DF08C0BF
:101E2000161617061806991FF1CF869571056105DC
:101E300008940895E894BB2766277727CB0197F984
:101E400008950BD0C4CFB5DF28F0BADF18F0952382
:101E500009F0A6CFABCF1124EECFCADFA0F3959F38
:101E6000D1F3950F50E0551F629FF001729FBB2781
:101E7000F00DB11D639FAA27F00DB11DAA1F649F2D
:101E80006627B00DA11D661F829F2227B00DA11DE0
:101E9000621F739FB00DA11D621F839FA00D611D66
:101EA000221F749F3327A00D611D231F849F600D87
:101EB000211D822F762F6A2F11249F5750408AF0C0
:101EC000E1F088234AF0EE0FFF1FBB1F661F771F4C
:101ED000881F91505040A9F79E3F510570F060CF88
:101EE000AACF5F3FECF3983EDCF386957795679534
:101EF000B795F795E7959F5FC1F7FE2B880F911D6A
:101F00009695879597F90895DB018F939F930E948B
:101F1000B60FBF91AF91A29F800D911DA39F900D11
:101F2000B29F900D11240895A1E21A2EAA1BBB1B8B
:101F3000FD010DC0AA1FBB1FEE1FFF1FA217B30795
:101F4000E407F50720F0A21BB30BE40BF50B661FAB
:101F5000771F881F991F1A9469F76095709580956F
:101F600090959B01AC01BD01CF0108950E94FE0F29
:101F7000A59F900DB49F900DA49F800D911D1124DD
:101F800008950F93083090F0982F872F762F652FA4
:101F9000542F432F322F22270850F4CF220F331F04
:101FA000441F551F661F771F881F991F0A95B2F798
:101FB0000F91089597FB10F8169400080F930830BE
:101FC00098F00850232F342F452F562F672F782F46
:101FD000892F902DF4CF05949795879577956795E0
:101FE00057954795379527950A95AAF70F91089524
:101FF000EE0FFF1F0590F491E02D0994A29FB00110
:10200000B39FC001A39F700D811D1124911DB29F2C
:10201000700D811D1124911D0895CF93DF9382309F
:10202000910510F482E090E0E091DF02F091E0028F
:1020300020E030E0A0E0B0E0309739F140815181FC
:1020400048175907B8F04817590771F482819381EE
:10205000109729F013969C938E9312972CC090930F
:10206000E0028093DF0227C02115310531F04217CD
:10207000530718F0A901DB0101C0EF019A01BD016E
:10208000DF010280F381E02DD7CF21153105F9F072
:10209000281B390B2430310580F48A819B8161151E
:1020A000710521F0FB019383828304C09093E002C9
:1020B0008093DF02FE01329644C0FE01E20FF31F5F
:1020C0008193919322503109398328833AC020911A
:1020D000DD023091DE02232B41F420910201309188
:1020E00003013093DE022093DD0220910001309144
:1020F00001012115310541F42DB73EB7409104018E
:1021000050910501241B350BE091DD02F091DE02B8
:10211000E217F307A0F42E1B3F0B2817390778F0BE
:10212000AC014E5F5F4F2417350748F04E0F5F1F1D
:102130005093DE024093DD028193919302C0E0E070
:10214000F0E0CF01DF91CF910895CF93DF93009717
:1021500009F487C0FC01329713821282C091DF021A
:10216000D091E002209781F420813181280F391F1E
:102170008091DD029091DE028217930779F5F0934A
:10218000DE02E093DD026DC0DE0120E030E0AE173C
:10219000BF0750F412964D915C9113979D01411524
:1021A000510509F1DA01F3CFB383A2834081518154
:1021B000840F951F8A179B0771F48D919C9111973D
:1021C000840F951F02969183808312968D919C9126
:1021D0001397938382832115310529F4F093E0024C
:1021E000E093DF023EC0D9011396FC93EE93129761
:1021F0004D915D91A40FB51FEA17FB0779F480811B
:102200009181840F951F0296D90111969C938E930C
:102210008281938113969C938E931297E0E0F0E075
:102220008A819B81009719F0FE01EC01F9CFCE0164
:10223000029628813981820F931F2091DD0230910F
:10224000DE022817390769F4309729F41092E0026A
:102250001092DF0202C013821282D093DE02C0937A
:10226000DD02DF91CF910895A0E0B0E0EAE3F1E173
:102270000C948A12EC01CB01209719F40E940D10E6
:10228000B8C0FE01E60FF71F9E0122503109E21788
:10229000F30708F4ACC0D9010D911C9111970617F2
:1022A0001707B8F00530110508F49FC0A801445085
:1022B00051094617570708F498C002501109061B28
:1022C000170B019311936D937C93CF010E94A5107E
:1022D0008CC05B01A01AB10A4E01800E911EA09124
:1022E000DF02B091E002612C712C60E070E0109789
:1022F00009F449C0A815B905C9F5ED90FC901197EE
:10230000670142E0C40ED11CCA14DB0478F1470116
:102310008A189B08640142E0C40ED11C1296BC903E
:1023200012971396AC91B5E0CB16D10440F0B2826F
:10233000A38391828082D9018D939C9309C00E5F03
:102340001F4F0E0D1F1DF90111830083EB2DFA2F76
:102350006115710531F0DB011396FC93EE93129732
:1023600044C0F093E002E093DF023FC06D917C91A6
:1023700011976616770608F43B01BD0112960D9081
:10238000BC91A02DB4CF6091DD027091DE02681582
:102390007905E9F468167906D0F44091000150916E
:1023A00001014115510541F44DB75EB7609104013B
:1023B00070910501461B570BE417F507C0F4F09325
:1023C000DE02E093DD02F901918380830EC00E945A
:1023D0000D107C01009759F0A801BE010E94FE116A
:1023E000CE010E94A510C70104C0CE0102C080E04A
:1023F00090E0CDB7DEB7EEE00C94A612FB01DC0155
:1024000002C001900D9241505040D8F70895FB0151
:10241000DC0101900D920020E1F70895453251054D
:1024200020F4423010F00C941912FB011082CB0101
:102430000895BB274A3031F4992322F4BDE29095E8
:1024400081959F4F0C945D122532310520F4223086
:1024500010F00C942F12FA011082CA010895BB27C4
:10246000FA01A62F6217710581059105330B30FB28
:1024700066F0AA27660F771F881F991FAA1FA21749
:1024800010F0A21B63953850A9F7A05DAA3308F09D
:10249000A95DA19336F7B111B1931082CA010C94D2
:1024A00076124532510520F4423010F00C945C1243
:1024B000FB011082CB010895BB27FB015527AA27FA
:1024C000880F991FAA1FA41710F0A41B83955051C1
:1024D000B9F7A05DAA3308F0A95DA193009779F739
:1024E000B111B1931192CB010C947612DC01FC0175
:1024F000672F71917723E1F7329704C07C916D9338
:1025000070836291AE17BF07C8F308952F923F9270
:102510004F925F926F927F928F929F92AF92BF92F3
:10252000CF92DF92EF92FF920F931F93CF93DF939F
:10253000CDB7DEB7CA1BDB0B0FB6F894DEBF0FBEFC
:10254000CDBF09942A88398848885F846E847D8449
:102550008C849B84AA84B984C884DF80EE80FD804B
:102560000C811B81AA81B981CE0FD11D0FB6F894C1
:0E257000DEBF0FBECDBFED010895F894FFCF82
:10257E000000E102800007006465636F64655F74AC
:10258E007970653A200070616E61736F6E69634198
:10259E006464726573733A200076616C75653A20D7
:1025AE0000626974733A2000000000002F0AAB0B22
:1025BE00B109CA09BC090D0A0D0A006E616E0069E7
:0A25CE006E66006F7666002E0000B6
:00000001FF
