:100000000C947D000C946A080C9497080C94A5003D
:100010000C94A5000C94A5000C94A5000C94A500CC
:100020000C94A5000C94A5000C94A5000C94A500BC
:100030000C94A5000C94A5000C94A5000C94A500AC
:100040000C94C4080C94A5000C94F90B0C942B0C84
:100050000C94A5000C94A5000C94A5000C94A5008C
:100060000C94A5000C94A5000000000800020100FB
:100070000003040700000000000000000102040863
:100080001020408001020408102001020408102002
:10009000040404040404040402020202020203032E
:1000A0000303030300000000250028002B000000CC
:1000B0000000240027002A004E414E494E49545961
:1000C000494E46CDCCCC3D0AD7233C17B7D1387723
:1000D000CC2B329595E6241FB14F0A000020410039
:1000E00000C84200401C4620BCBE4CCA1B0E5AAE83
:1000F000C59D74007A015B0CBE0111241FBECFEFB9
:10010000D8E0DEBFCDBF11E0A0E0B1E0EAE4FEE25E
:1001100002C005900D92AC3BB107D9F722E0ACEBE1
:10012000B1E001C01D92AB3CB207E1F710E0C8EFAF
:10013000D0E004C02297FE010E940713C43FD107FC
:10014000C9F70E949F0C0C9418170C940000809122
:10015000D4019091D50101969093D5018093D4015B
:100160000895CF92DF92EF92FF920E940E09C09005
:10017000D001D090D101E090D201F090D3016C1960
:100180007D098E099F0940911E0150911F01209108
:100190000A0130910B01429F6001439FD00C529F96
:1001A000D00C1124EE24D7FCE094FE2C6C157D05B8
:1001B0008E059F0508F45CC080E00E945A0860919B
:1001C000D4017091D501882777FD8095982F0E94E2
:1001D0008E116B017C0160911C0170911D018827BB
:1001E00077FD8095982F0E948E119B01AC01C7016D
:1001F000B6010E94F3106B017C0160911E017091A9
:100200001F01882777FD8095982F0E948E112FE679
:1002100032E143E85AE30E9442129B01AC01C7015C
:10022000B6010E94F31026E636E646E650E40E9448
:1002300042126093C8017093C9018093CA019093E0
:10024000CB011092D5011092D4010E940E09609347
:10025000D0017093D1018093D2019093D30143E0F8
:1002600050E067EA70E080E00E943A0881E001C057
:1002700080E0FF90EF90DF90CF90089585B5887F64
:10028000826085BD88E090E090930B0180930A0125
:1002900060E082E00E94450A61E082E00E947E0AFE
:1002A00043E050E067EA70E080E00E943A0861E0D5
:1002B00085E00E94450A61E084E00E94450A1092B0
:1002C0000F0210921002109211021092120261E0BD
:1002D00070E086ED91E00E947B0726E040E052EC62
:1002E00061E070E088E292E00E94970B61E084E0B8
:1002F0000C947E0AAF92BF92CF92DF92EF92FF9260
:100300000F931F93A0902401B0902501C090260167
:10031000D0902701E0902801F090290100912A0156
:1003200010912B011F921F92809123018F93809136
:1003300022018F93809121018F93809120018F93CF
:100340002FE032E043E152E067E172E086ED91E0B8
:100350000E94CD070F900F900F900F900F900F906D
:100360006CE371E08CEB91E01F910F91FF90EF90A7
:10037000DF90CF90BF90AF900C94660F8CEB91E024
:100380000C94F80E4F925F926F927F928F929F9291
:10039000AF92BF92CF92DF92EF92FF920F931F9393
:1003A000CF93DF93CDB7DEB7C054D1090FB6F89421
:1003B000DEBF0FBECDBF20E030E048EC52E46091DC
:1003C00014017091150180911601909117010E94FE
:1003D00042126B017C0120E030E0A9010E943E1234
:1003E00020E030E040E05FE387FD05C0C701B601D3
:1003F0000E948B1004C0C701B6010E948A100E949F
:100400005B11162F072FF82EE92E81E10E94A0091B
:10041000BC01882777FD8095982FEF92FF920F936C
:100420001F93A12CB12C6501EE24EA9413E0F12E68
:1004300000E010E020E030E0A9010E94B10E0E942F
:100440008E1120E030E048EC52E40E94F3106093FB
:10045000C4017093C5018093C6019093C7010E94A7
:10046000B1000F900F900F900F90882309F412C3E2
:100470008091C8019091C901A091CA01B091CB01AE
:100480008093170290931802A0931902B0931A0256
:100490008091C4019091C501A091C601B091C7019E
:1004A00080930F0290931002A0931102B093120256
:1004B000C0902001D0902101E0902201F090230112
:1004C00000912401109125012091260130912701EE
:1004D000409128015091290160912A0170912B01CE
:1004E00086ED91E00E948206C0901302D090140223
:1004F000E0901502F090160286ED91E00E946205F0
:100500008090100190901101A0901201B090130101
:10051000A701960160911302709114028091150257
:10052000909116020E948A10A50194010E943E1229
:10053000181674F4A5019401C701B6010E948B102E
:100540006093130270931402809315029093160225
:10055000A701960160911302709114028091150217
:10056000909116020E948A10A501940150580E9491
:10057000EF1087FF0EC0A5019401C701B6010E94CC
:100580008A10609313027093140280931502909363
:10059000160220E030E040E251E4609113027091D5
:1005A000140280911502909116020E943E121816B4
:1005B00064F480E090E0A0E2B1E4809313029093B1
:1005C0001402A0931502B0931602C0900C01D090B3
:1005D0000D01C601AA2797FDA095BA2F21968CAFD1
:1005E0009DAFAEAFBFAF219780900E0190900F01ED
:1005F0005401CC24B7FCC094DC2C20E030E048EC63
:1006000052E460911401709115018091160190914E
:1006100017010E9442122B013C0120E030E0A901A9
:100620000E943E1220E030E040E05FE387FD05C01D
:10063000C301B2010E948B1004C0C301B2010E9429
:100640008A100E945B112B013C0120E030E048EC55
:1006500052E46091130270911402809115029091FE
:1006600016020E9442120E945B112196AFAD2197A3
:10067000AF93BFADBF932EAD2F93ADADAF938301BD
:10068000720120E030E0A9010E94B10E7093C30115
:100690006093C20120910C0130910D010F900F90D9
:1006A0000F900F902617370724F43093C30120933F
:1006B000C2016091C2017091C30185E00E94BD0931
:1006C00088E292E00E94B40A181619060CF088C15C
:1006D00088E292E00E94CD0A182F8D30A9F06CEBD1
:1006E00071E0CE0101960E94930F612FCE01019619
:1006F0000E942010BC018CEB91E00E947C0FCE0187
:1007000001960E94F80E6CC125E030E040E050E018
:100710006CEB71E0CE01C7960E942E102AE030E00B
:1007200046E050E06CEB71E0CE01C1960E942E10C5
:100730002EE030E04BE050E06CEB71E0CE018B96A8
:100740000E942E1022E130E04FE050E06CEB71E0AF
:10075000CE0185960E942E1027E130E043E150E063
:100760006CEB71E0CE014F960E942E102CE130E030
:1007700048E150E06CEB71E0CE0149960E942E10EA
:1007800021E230E04DE150E06CEB71E0CE014396A8
:100790000E942E1026E230E042E250E06CEB71E065
:1007A000CE010D960E942E102AE230E047E250E082
:1007B0006CEB71E0CE0107960E942E106DE271E0A5
:1007C000CE0101960E94660FBE01695C7F4FCE018B
:1007D00001960E94F30F69E371E00E9406106DE339
:1007E00071E00E940610BE016F5C7F4F0E94F30F04
:1007F00069E371E00E94061069E471E00E9406104E
:10080000BE01655D7F4F0E94F30F69E371E00E94B6
:10081000061063E571E00E940610BE016B5D7F4F1C
:100820000E94F30F69E371E00E9406106DE571E02C
:100830000E940610BE01615E7F4F0E94F30F69E3C4
:1008400071E00E94061067E671E00E940610BE018A
:10085000675E7F4F0E94F30F69E371E00E9406100C
:100860006DE671E00E940610BE016D5E7F4F0E9432
:10087000F30F69E371E00E94061063E771E00E94E4
:100880000610BE01635F7F4F0E94F30F69E371E0C2
:100890000E94061069E771E00E940610BE01695FC0
:1008A0007F4F0E94F30F66E871E00E940610BC01C2
:1008B00088E292E00E94070DCE0101960E94F80E98
:1008C00061E070E080E090E00E943D09CE01C796B3
:1008D0000E947E10609318017093190180931A0191
:1008E00090931B01CE01C1960E947E10609314016B
:1008F000709315018093160190931701CE018B968A
:100900000E94731070930F0160930E01CE018596C3
:100910000E94731070930D0160930C01CE014F96ED
:100920000E94731070931F0160931E01CE014996BF
:100930000E947E10609328017093290180932A0100
:1009400090932B01CE0143960E947E106093240168
:10095000709325018093260190932701CE010D9677
:100960000E947E10609320017093210180932201E8
:1009700090932301CE0107960E947E106093100190
:100980007093110180931201909313016CE371E055
:100990008CEB91E00E949C0FCE0107960E94F80E0E
:1009A000CE010D960E94F80ECE0143960E94F80EDD
:1009B000CE0149960E94F80ECE014F960E94F80E85
:1009C000CE0185960E94F80ECE018B960E94F80EFD
:1009D000CE01C1960E94F80ECE01C7960E94F80E75
:1009E00068E871E088E292E00E94FA0C4091C4014C
:1009F0005091C5016091C6017091C70122E030E0BD
:100A000088E292E00E94AF0E6CE871E088E292E02A
:100A10000E94FA0C4091C8015091C9016091CA012D
:100A20007091CB0122E030E088E292E00E94AF0EAC
:100A300062E971E088E292E00E94FA0C40911302B0
:100A400050911402609115027091160222E030E07C
:100A500088E292E00E94AF0E68E971E088E292E0DD
:100A60000E94FA0C6091C2017091C3014AE050E00B
:100A700088E292E00E94BC0D88E292E00E94030DA1
:100A80000E940E096093CC017093CD018093CE013A
:100A90009093CF01C05CDF4F0FB6F894DEBF0FBE5E
:100AA000CDBFDF91CF911F910F91FF90EF90DF901D
:100AB000CF90BF90AF909F908F907F906F905F90FE
:100AC0004F9008952F923F924F925F926F927F9234
:100AD0008F929F92AF92BF92CF92DF92EF92FF924E
:100AE0000F931F93CF93DF93CDB7DEB72B970FB63E
:100AF000F894DEBF0FBECDBF9B878A87DC01D896F6
:100B0000BC91B983B11102C01982E2C00E940E09E2
:100B10006A837B838C839D83EA85FB8580A191A179
:100B2000A2A1B3A14A815B816C817D81481B590BD5
:100B30006A0B7B0B84A595A5A6A5B7A548175907F1
:100B40006A077B0708F3028CF38DE02D808091808B
:100B5000A280B380AA85BB855E96ED91FC915F97DC
:100B6000A501940160817181828193810E948A1024
:100B70002B013C01EA85FB85208931894289538913
:100B80000E944212AA85BB8594962D913D914D916C
:100B90005C9197970E948B106B017C01EA85FB8525
:100BA00064A375A386A397A324A835A806A917A9AB
:100BB0009101A8010E943E1218161CF4C101D8012F
:100BC00018C0AA85BB85D0968D919D910D90BC9142
:100BD000A02D8E839F83A887B9879C01AD01C70193
:100BE000B6010E94EF1087FF0AC08E819F81A88501
:100BF000B985EA85FB8584A395A3A6A3B7A3AA8597
:100C0000BB851C962D913D914D915C911F97C30121
:100C1000B2010E944212EA85FB8524A135A146A1BA
:100C200057A10E948B106B017C01AA85BB85989609
:100C30002D913D914D915C919B97C501B4010E940E
:100C40008A10EA85FB8524893589468957890E945F
:100C500042129B01AC01C701B6010E948A106B01D0
:100C60007C019101A8010E943E121816BCF0AA85D1
:100C7000BB85D0962C90D097D1963C90D197D296A8
:100C80000C91D297D3961C919101A801B601C7018E
:100C90000E94EF1087FD02C016018701AA85BB855F
:100CA0005C96ED91FC915D97C101D80180839183A1
:100CB000A283B383EA85FB8580A691A6A2A6B3A6EC
:100CC0008A819B81AC81BD8180A391A3A2A3B3A3A0
:100CD00089812B960FB6F894DEBF0FBECDBFDF9192
:100CE000CF911F910F91FF90EF90DF90CF90BF9029
:100CF000AF909F908F907F906F905F904F903F90BC
:100D00002F9008952F923F924F925F926F927F9211
:100D10008F929F92AF92BF92CF92DF92EF92FF920B
:100D20000F931F93CF93DF9300D000D0CDB7DEB7E2
:100D30001C012A013B014801590120E030E0A901D2
:100D4000C301B2010E94EF1087FD78C020E030E0BF
:100D5000A901C501B4010E94EF1087FD6FC020E01A
:100D600030E0A901C701B6010E94EF1087FD66C0FF
:100D7000F101408251826282738284829582A682CE
:100D8000B782C086D186E286F38664A575A586A55E
:100D900097A50E948C1120E030E04AE754E40E94BD
:100DA000F31069837A838B839C83F1014486558693
:100DB000668677869B01AC01C501B4010E94421290
:100DC0004B015C01F101608B718B828B938B2981CC
:100DD0003A814B815C81C701B6010E94F3106B011F
:100DE0007C01F101648B758B868B978B808D918D47
:100DF000019721F5A301920160E070E0CB010E9410
:100E00008A10F1016487758786879787A501940109
:100E100060E070E0CB010E948A10F101608B718B61
:100E2000828B938BA701960160E070E0CB010E945A
:100E30008A10F101648B758B868B978B0F900F90C6
:100E40000F900F90DF91CF911F910F91FF90EF9036
:100E5000DF90CF90BF90AF909F908F907F906F90DA
:100E60005F904F903F902F9008958F929F92AF92F6
:100E7000BF92CF92DF92EF92FF92CF93DF93EC017C
:100E8000EC8DFD8DC080D180E280F380CCA2DDA20C
:100E9000EEA2FFA2EA8DFB8D80819181A281B381B8
:100EA00088A799A7AAA7BBA78CA89DA8AEA8BFA8EA
:100EB000A5019401C701B6010E943E12181664F004
:100EC00088A899A8AAA8BBA8A5019401C701B60142
:100ED0000E94EF1087FF04C08CA29DA2AEA2BFA209
:100EE000DF91CF91FF90EF90DF90CF90BF90AF90C8
:100EF0009F908F9008951F93CF93DF93EC0111E0A3
:100F00006130710509F010E088AD91E08927181370
:100F100003C0CE010E94350718AFDF91CF911F911A
:100F200008950F931F93CF93DF93EC018B0188AD4E
:100F3000882361F1888D998D6817790739F12C859F
:100F40003D854E855F8560E070E0CB010E948A1090
:100F50006C877D878E879F87288939894A895B8935
:100F600060E070E0CB010E948A10688B798B8A8BDD
:100F70009B8B2C893D894E895F8960E070E0CB01B5
:100F80000E948A106C8B7D8B8E8B9F8B198F088FA4
:100F9000DF91CF911F910F9108954F925F926F92C1
:100FA0007F928F929F92AF92BF92CF92DF92EF92F9
:100FB000FF920F931F93CF93DF9300D000D0CDB754
:100FC000DEB74C0127013801A982BA82CB82DC82CC
:100FD000FC01558F448F738F628F378F268F10AE31
:100FE00010AA11AA12AA13AA80E090E0AFE7B3E416
:100FF00084AB95ABA6ABB7AB84E690E0A0E0B0E0E5
:1010000084A795A7A6A7B7A76B8D7C8DC4010E9466
:101010009107CF88D88CE98CFA8C09811A812B81B1
:101020003C81B301A201C4010E9482060E940E0904
:10103000F40144A455A466A477A46419750986092B
:10104000970960A371A382A393A30F900F900F90B1
:101050000F90DF91CF911F910F91FF90EF90DF9054
:10106000CF90BF90AF909F908F907F906F905F9048
:101070004F9008958230E8F4E82FF0E0EE0FFF1F64
:10108000E55EFD4F71836083813041F0809169009E
:101090008C7F842B80936900E89A08958091690081
:1010A000440F551F440F551F837F842B8093690085
:1010B000E99A0895823068F4813011F0E89801C00F
:1010C000E998E82FF0E0EE0FFF1FE55EFD4F11827B
:1010D000108208951F920F920FB60F9211242F9332
:1010E0003F934F935F936F937F938F939F93AF93B0
:1010F000BF93EF93FF9380911B0290911C02892B69
:1011000029F0E0911B02F0911C020995FF91EF91EB
:10111000BF91AF919F918F917F916F915F914F910F
:101120003F912F910F900FBE0F901F9018951F9217
:101130000F920FB60F9211242F933F934F935F930B
:101140006F937F938F939F93AF93BF93EF93FF938F
:1011500080911D0290911E02892B29F0E0911D02C1
:10116000F0911E020995FF91EF91BF91AF919F9170
:101170008F917F916F915F914F913F912F910F9040
:101180000FBE0F901F9018951F920F920FB60F92DF
:1011900011242F933F938F939F93AF93BF9380918D
:1011A000200290912102A0912202B091230230915D
:1011B0001F0223E0230F2D3720F40196A11DB11D3E
:1011C00005C026E8230F0296A11DB11D20931F0222
:1011D0008093200290932102A0932202B0932302D5
:1011E0008091240290912502A0912602B0912702BD
:1011F0000196A11DB11D8093240290932502A09316
:101200002602B0932702BF91AF919F918F913F919A
:101210002F910F900FBE0F901F9018952FB7F89435
:10122000609120027091210280912202909123020C
:101230002FBF08953FB7F894809124029091250222
:10124000A0912602B091270226B5A89B05C02F3F8A
:1012500019F00196A11DB11D3FBF6627782F892F78
:101260009A2F620F711D811D911D42E0660F771F3D
:10127000881F991F4A95D1F70895CF92DF92EF9278
:10128000FF92CF93DF936B017C010E941A09EB015F
:10129000C114D104E104F10489F00E9489100E9474
:1012A0001A096C1B7D0B683E734090F381E0C81AED
:1012B000D108E108F108C851DC4FEACFDF91CF91A6
:1012C000FF90EF90DF90CF900895789484B582607E
:1012D00084BD84B5816084BD85B5826085BD85B5DA
:1012E000816085BDEEE6F0E0808181608083E1E889
:1012F000F0E01082808182608083808181608083C1
:10130000E0E8F0E0808181608083E1EBF0E08081C3
:1013100084608083E0EBF0E0808181608083EAE795
:10132000F0E080818460808380818260808380811E
:10133000816080838081806880831092C1000895DD
:101340008E3008F08E50877020912C0190E4299FF8
:1013500090011124822B80937C0080917A0080641C
:1013600080937A0080917A0086FDFCCF809178008E
:101370002091790090E0922B08951F93CF93DF93F3
:10138000182FEB0161E00E94450A209711F460E0FC
:1013900004C0CF3FD10539F461E0812FDF91CF91B7
:1013A0001F910C947E0AE12FF0E0E859FF4FE49181
:1013B000E330F9F048F4E130B9F0E230A1F584B55A
:1013C000806284BDC8BD34C0E730E9F0E83019F16F
:1013D000E43049F580918000806280938000D09352
:1013E0008B00C0938A0024C084B5806884BDC7BDCB
:1013F0001FC080918000806880938000D093890016
:10140000C093880015C08091B00080688093B000C0
:10141000C093B3000DC08091B00080628093B00093
:10142000C093B40005C0C038D1050CF0B5CFAFCF24
:10143000DF91CF911F910895833081F028F481309E
:1014400099F08230A1F008958730A9F08830B9F082
:101450008430D1F4809180008F7D03C08091800022
:101460008F7780938000089584B58F7702C084B50C
:101470008F7D84BD08958091B0008F7703C08091E7
:10148000B0008F7D8093B0000895CF93DF9390E0FC
:10149000FC01E458FF4F2491FC01E057FF4F849179
:1014A000882349F190E0880F991FFC01E255FF4F16
:1014B000A591B4918C559F4FFC01C591D4919FB7D4
:1014C000611108C0F8948C91209582238C938881B7
:1014D00082230AC0623051F4F8948C91322F3095F7
:1014E00083238C938881822B888304C0F8948C9109
:1014F000822B8C939FBFDF91CF9108950F931F9301
:10150000CF93DF931F92CDB7DEB7282F30E0F901DC
:10151000E859FF4F8491F901E458FF4F1491F90104
:10152000E057FF4F04910023C9F0882321F069831D
:101530000E941C0A6981E02FF0E0EE0FFF1FEC55BE
:10154000FF4FA591B4919FB7F8948C91611103C09E
:101550001095812301C0812B8C939FBF0F90DF9149
:10156000CF911F910F910895FC01818D228D90E004
:10157000805C9F4F821B91098F7399270895FC010E
:10158000918D828D981731F0828DE80FF11D858D38
:1015900090E008958FEF9FEF0895FC01918D828D6B
:1015A000981761F0828DDF01A80FB11D5D968C91B7
:1015B000928D9F5F9F73928F90E008958FEF9FEFC2
:1015C000089581E59CE0892B49F080E090E0892B2B
:1015D00029F00E94510C81110C9400000895FC0127
:1015E000848DDF01A80FB11DA35ABF4F2C91848DAC
:1015F00090E001968F739927848FA689B7892C93E1
:10160000A089B1898C9180648C93938D848D98137B
:1016100006C00288F389E02D80818F7D8083089544
:10162000CF93DF93EC01888D8823C9F0EA89FB8989
:10163000808185FD05C0A889B9898C9186FD0FC080
:101640000FB607FCF5CF808185FFF2CFA889B98955
:101650008C9185FFEDCFCE010E94EF0AE7CFDF919D
:10166000CF910895CF92DF92FF920F931F93CF9364
:10167000DF931F92CDB7DEB76C0181E0D60158969B
:101680008C9358975B969C915B975C968C915C973A
:10169000981307C05096ED91FC915197808185FD7C
:1016A0002EC0F601038D10E00F5F1F4F0F7311273F
:1016B000F02EF601848DF81211C00FB607FCF9CF99
:1016C000D6015096ED91FC915197808185FFF1CF25
:1016D000C60169830E94EF0A6981EBCF838DE80F11
:1016E000F11DE35AFF4F6083D6015B960C935B9725
:1016F0005296ED91FC915397808180620CC0D60187
:101700005696ED91FC91579760835096ED91FC9120
:10171000519780818064808381E090E00F90DF9119
:10172000CF911F910F91FF90DF90CF900895BF92BE
:10173000CF92DF92EF92FF92CF93DF93EC016A0199
:101740007B01B22EE889F98982E08083411581EE20
:10175000580761057105A1F060E079E08DE390E044
:10176000A70196010E94B91221503109410951097E
:101770005695479537952795211580E1380798F0BC
:10178000E889F989108260E874E88EE190E0A701A9
:1017900096010E94B912215031094109510956950B
:1017A000479537952795EC85FD853083EE85FF8538
:1017B0002083188EEC89FD89B082EA89FB898081BB
:1017C00080618083EA89FB89808188608083EA89DF
:1017D000FB89808180688083EA89FB8980818F7D95
:1017E0008083DF91CF91FF90EF90DF90CF90BF90FB
:1017F00008951F920F920FB60F9211242F938F937B
:101800009F93EF93FF93E0913802F091390280812A
:10181000E0913E02F0913F0282FD12C090818091E2
:1018200041028F5F8F7320914202821751F0E09145
:101830004102F0E0E85DFD4F958F8093410201C0C9
:101840008081FF91EF919F918F912F910F900FBE0B
:101850000F901F9018951F920F920FB60F921124A0
:101860002F933F934F935F936F937F938F939F93A8
:10187000AF93BF93EF93FF9388E292E00E94EF0A49
:10188000FF91EF91BF91AF919F918F917F916F9158
:101890005F914F913F912F910F900FBE0F901F902E
:1018A000189588E292E00E94B40A21E0892B09F49D
:1018B00020E0822F089510922B0210922A0288EEC7
:1018C00093E0A0E0B0E080932C0290932D02A093CF
:1018D0002E02B0932F0282EA91E090932902809326
:1018E000280285EC90E0909335028093340284ECDA
:1018F00090E0909337028093360280EC90E09093D2
:1019000039028093380281EC90E090933B028093FF
:101910003A0282EC90E090933D0280933C0286EC88
:1019200090E090933F0280933E0210924102109209
:1019300042021092430210924402089508950E94B8
:1019400065090E949E0C0E943E01C1EEDAE00E94F1
:10195000C2012097E1F30E94E10AF9CFCF92DF9212
:10196000EF92FF920F931F93CF93DF936C017A0155
:10197000EB01E60EF71E00E010E0CE15DF0561F08A
:101980006991D601ED91FC910190F081E02DC601A5
:101990000995080F191FF1CFC801DF91CF911F9151
:1019A0000F91FF90EF90DF90CF9008956115710532
:1019B00081F0DB010D900020E9F7AD0141505109A4
:1019C000461B570BDC01ED91FC910280F381E02D69
:1019D000099480E090E00895DC01ED91FC91DB0139
:1019E00014964D915C9115976D917C910280F381D5
:1019F000E02D09940C94D60CDC01ED91FC91019042
:101A0000F081E02D09946AE371E00C94D60C0F93F9
:101A10001F93CF93DF93EC010E94EC0C8C01CE015D
:101A20000E94030D800F911FDF91CF911F910F91A5
:101A300008958F929F92AF92BF92CF92DF92EF92D2
:101A4000FF920F931F93CF93DF93CDB7DEB7A1978C
:101A50000FB6F894DEBF0FBECDBF7C01C42EE52FBC
:101A6000CB01D22E19A221E02D1510F02AE0D22EA2
:101A70008E010F5D1F4F8D2C912CA12CB12C6C2D44
:101A80007E2FA50194010E94B9128C2DD29E80193F
:101A90001124015011098A3014F4805D01C0895C61
:101AA000F8018083211531054105510521F0C22E31
:101AB000E32FCA01E4CFB801C7010E94D60CA1965A
:101AC0000FB6F894DEBF0FBECDBFDF91CF911F914F
:101AD0000F91FF90EF90DF90CF90BF90AF909F90CD
:101AE0008F900895CF92DF92EF92FF920F931F9302
:101AF000CF93DF93EC016A017B012115310579F465
:101B0000E881F9810190F081E02D642FDF91CF9180
:101B10001F910F91FF90EF90DF90CF9009942A30A2
:101B20003105E9F477FF1AC06DE20E94FC0C8C01CC
:101B300044275527BA014C195D096E097F092AE02F
:101B4000CE010E94190D800F911FDF91CF911F913F
:101B50000F91FF90EF90DF90CF9008952AE0B701AA
:101B6000A601CE01DF91CF911F910F91FF90EF90D1
:101B7000DF90CF900C94190D9A01AB01662757FDA9
:101B80006095762F0C94720D4F925F926F927F92B8
:101B90008F929F92AF92BF92CF92DF92EF92FF927D
:101BA0000F931F93CF93DF93EC016A017B01B22E59
:101BB0009A01AB01C701B6010E94A512882319F052
:101BC0006EEA71E027C026013701E89477F82FEF1D
:101BD0003FEF4FE75FE7C301B2010E94A5128111F9
:101BE0000DC02FEF3FEF4FE75FE7C301B2010E9447
:101BF000EF1018161CF462EB71E00CC02FEF3FEFF2
:101C00004FE75FE4C701B6010E943E121816ACF41C
:101C100066EB71E0CE01DF91CF911F910F91FF90A4
:101C2000EF90DF90CF90BF90AF909F908F907F907C
:101C30006F905F904F900C94D60C2FEF3FEF4FE7D3
:101C40005FECC701B6010E94EF1087FDE1CF20E0F5
:101C500030E0A901C701B6010E94EF1087FF0AC05A
:101C60006DE2CE010E94FC0C8C01F7FAF094F7F8BB
:101C7000F09402C000E010E0A12C60E070E080E091
:101C80009FE3AB1441F020E030E040E251E40E94D9
:101C9000F310A394F6CF9B01AC01C701B6010E94DB
:101CA0008B106B017C010E9460112B013C010E9492
:101CB0008C119B01AC01C701B6010E948A106B0117
:101CC0007C012AE0B301A201CE010E94190D080F88
:101CD000191FBB2039F06AEB71E0CE010E94D60CCF
:101CE000080F191F7B2C772041F120E030E040E203
:101CF00051E4C701B6010E9442126B017C010E94AF
:101D00005B114B01AA2497FCA094BA2C2AE030E086
:101D1000B501A401CE010E94720D080F191FC50163
:101D2000B4010E948E119B01AC01C701B6010E9453
:101D30008A106B017C017A94D6CFC801DF91CF91D4
:101D40001F910F91FF90EF90DF90CF90BF90AF90D9
:101D50009F908F907F906F905F904F9008950C941C
:101D6000C40D4F925F926F927F92AF92BF92CF92CB
:101D7000DF92EF92FF920F931F93CF93DF93CDB734
:101D8000DEB729013A01621B730B840B950B29897D
:101D90003A894B895C892A193B094C095D09298BD1
:101DA0003A8B4B8B5C8B9B01AC0169897A898B895F
:101DB0009C890E94A912E418F50806091709A801D0
:101DC00097010E94DB122A0D3B1D4C1D5D1DCA01AF
:101DD000B901DF91CF911F910F91FF90EF90DF90AC
:101DE000CF90BF90AF907F906F905F904F9008958D
:101DF000FC01808191810C94B213CF93DF93EC01AD
:101E000088819981009711F00E94B213198218827B
:101E10001D821C821B821A82DF91CF9108950F933D
:101E20001F93CF93DF93EC018B016F5F7F4F88810E
:101E300099810E944114009731F0998388831B8314
:101E40000A8381E001C080E0DF91CF911F910F9163
:101E50000895CF93DF93EC0188819981892B29F034
:101E60008A819B818617970760F4CE010E940F0F2D
:101E7000882341F08C819D81892B19F4E881F981B7
:101E8000108281E0DF91CF910895EF92FF920F933E
:101E90001F93CF93DF93EC017B018A01BA010E946B
:101EA000290F811104C0CE010E94FD0E07C01D83C1
:101EB0000C83B701888199810E944715CE01DF917B
:101EC000CF911F910F91FF90EF900895FC01118227
:101ED000108213821282158214826115710559F0E5
:101EE000FB0101900020E9F7AF0141505109461B69
:101EF000570B0C94450F0895CF93DF93EC01FB0132
:101F00008617970761F0608171816115710529F06D
:101F1000448155810E94450F02C00E94FD0ECE01F2
:101F2000DF91CF910895FC011182108213821282F9
:101F3000158214820C947C0FCF93DF93EC01611512
:101F4000710561F0FB0101900020E9F7AF014150FC
:101F50005109461B570B0E94450F02C00E94FD0EFF
:101F6000CE01DF91CF910895EF92FF920F931F93CF
:101F7000CF93DF93EC017B010C811D81611571050D
:101F800011F480E016C04115510591F0040F151FA2
:101F9000B8010E94290F8823A1F3288139818C81FF
:101FA0009D81B701820F931F0E9447151D830C83EB
:101FB00081E0DF91CF911F910F91FF90EF900895F5
:101FC000CF93DF9300D0CDB7DEB769831A8241E0AB
:101FD00050E0BE016F5F7F4F0E94B40F0F900F90D3
:101FE000DF91CF910895CF93DF93EC01FB01448102
:101FF0005581608171810E94B40F811103C0CE01AF
:102000000E94FD0ECE01DF91CF910895CF93DF9313
:10201000EC016115710569F0FB0101900020E9F701
:10202000AF0141505109461B570B0E94B40F81115B
:1020300003C0CE010E94FD0ECE01DF91CF91089525
:10204000CF93DF93EC010E94E00F811103C0CE011A
:102050000E94FD0ECE01DF91CF910895BF92CF92E5
:10206000DF92EF92FF920F931F93CF93DF936C0158
:102070007B01EA0189012417350720F48D2FE9013E
:10208000042F182F6CE371E0C6010E94660FD70180
:1020900014968D919C911597C817D907C8F480178D
:1020A000910708F48C01D701ED91FC911197E00F95
:1020B000F11FB08010826D917C916C0F7D1FC60165
:1020C0000E949C0FD701ED91FC91E00FF11FB082AF
:1020D000C601DF91CF911F910F91FF90EF90DF909C
:1020E000CF90BF900895FC0180819181009711F0FD
:1020F0000C940F1560E070E0CB010895FC01808125
:102100009181009711F00C940B1560E070E0CB0109
:10211000089508955058BB27AA270ED075C166D1DF
:1021200030F06BD120F031F49F3F11F41EF45BC10D
:102130000EF4E095E7FB51C1E92F77D180F3BA1790
:10214000620773078407950718F071F49EF58FC135
:102150000EF4E0950B2EBA2FA02D0B01B9019001C2
:102160000C01CA01A0011124FF27591B99F0593F06
:1021700050F4503E68F11A16F040A22F232F342F4E
:102180004427585FF3CF469537952795A795F0409C
:102190005395C9F77EF41F16BA0B620B730B840BB1
:1021A000BAF09150A1F0FF0FBB1F661F771F881F69
:1021B000C2F70EC0BA0F621F731F841F48F48795C1
:1021C00077956795B795F7959E3F08F0B3CF9395B0
:1021D000880F08F09927EE0F979587950895D9D025
:1021E00008F481E008950CD00FC107D140F0FED073
:1021F00030F021F45F3F19F0F0C0511139C1F3C044
:1022000014D198F39923C9F35523B1F3951B550BBA
:10221000BB27AA2762177307840738F09F5F5F4FB9
:10222000220F331F441FAA1FA9F333D00E2E3AF0FA
:10223000E0E830D091505040E695001CCAF729D014
:10224000FE2F27D0660F771F881FBB1F2617370763
:102250004807AB07B0E809F0BB0B802DBF01FF2793
:1022600093585F4F2AF09E3F510568F0B6C000C1F9
:102270005F3FECF3983EDCF3869577956795B795CD
:10228000F7959F5FC9F7880F911D9695879597F9E8
:102290000895E1E0660F771F881FBB1F6217730761
:1022A0008407BA0720F0621B730B840BBA0BEE1F76
:1022B00088F7E095089504D06894B111D9C00895C5
:1022C000BCD088F09F5790F0B92F9927B751A0F054
:1022D000D1F0660F771F881F991F1AF0BA95C9F7BA
:1022E00012C0B13081F0C3D0B1E00895C0C0672FF3
:1022F000782F8827B85F39F0B93FCCF3869577956A
:102300006795B395D9F73EF4909580957095619552
:102310007F4F8F4F9F4F0895E89409C097FB3EF47D
:1023200090958095709561957F4F8F4F9F4F992322
:10233000A9F0F92F96E9BB279395F69587957795A0
:102340006795B795F111F8CFFAF4BB0F11F460FF60
:102350001BC06F5F7F4F8F4F9F4F16C0882311F0B8
:1023600096E911C0772321F09EE8872F762F05C0CC
:10237000662371F096E8862F70E060E02AF09A9567
:10238000660F771F881FDAF7880F9695879597F95C
:102390000895990F0008550FAA0BE0E8FEEF1616F6
:1023A0001706E807F907C0F012161306E407F50749
:1023B00098F0621B730B840B950B39F40A2661F0BD
:1023C000232B242B252B21F408950A2609F4A14060
:1023D000A6958FEF811D811D089597F99F6780E86D
:1023E00070E060E008959FEF80EC089500240A9467
:1023F0001616170618060906089500240A941216E0
:102400001306140605060895092E0394000C11F412
:10241000882352F0BB0F40F4BF2B11F460FF04C0BF
:102420006F5F7F4F8F4F9F4F089557FD9058440F18
:10243000551F59F05F3F71F04795880F97FB991F23
:1024400061F09F3F79F087950895121613061406E0
:10245000551FF2CF4695F1DF08C01616170618066D
:10246000991FF1CF86957105610508940895E89448
:10247000BB2766277727CB0197F908958ADF08F4F1
:102480008FEF08950BD0C0CFB1DF28F0B6DF18F082
:10249000952309F0A2CFA7CF1124EACFC6DFA0F37E
:1024A000959FD1F3950F50E0551F629FF001729FE9
:1024B000BB27F00DB11D639FAA27F00DB11DAA1F08
:1024C000649F6627B00DA11D661F829F2227B00D55
:1024D000A11D621F739FB00DA11D621F839FA00DE0
:1024E000611D221F749F3327A00D611D231F849F30
:1024F000600D211D822F762F6A2F11249F57504087
:102500008AF0E1F088234AF0EE0FFF1FBB1F661F21
:10251000771F881F91505040A9F79E3F510570F0DA
:102520005CCFA6CF5F3FECF3983EDCF386957795C2
:102530006795B795F795E7959F5FC1F7FE2B880FD5
:10254000911D9695879597F9089523DF880B990B30
:102550000895DB018F939F930E94FA12BF91AF9170
:10256000A29F800D911DA39F900DB29F900D1124ED
:102570000895A1E21A2EAA1BBB1BFD010DC0AA1FC4
:10258000BB1FEE1FFF1FA217B307E407F50720F0DC
:10259000A21BB30BE40BF50B661F771F881F991F57
:1025A0001A9469F760957095809590959B01AC01A0
:1025B000BD01CF010895052E97FB1EF400940E94E3
:1025C000F21257FD07D00E94B91207FC03D04EF457
:1025D0000C94F21250954095309521953F4F4F4FF6
:1025E0005F4F089590958095709561957F4F8F4FBF
:1025F0009F4F08950E940B13A59F900DB49F900DBF
:10260000A49F800D911D11240895EE0FFF1F0590CA
:10261000F491E02D0994A29FB001B39FC001A39F44
:10262000700D811D1124911DB29F700D811D11240B
:10263000911D0895CF93DF938230910510F482E0CD
:1026400090E0E091C702F091C80220E030E0A0E005
:10265000B0E0309739F14081518148175907B8F0FF
:102660004817590771F482819381109729F01396C6
:102670009C938E9312972CC09093C8028093C702AC
:1026800027C02115310531F04217530718F0A90171
:10269000DB0101C0EF019A01BD01DF010280F3817E
:1026A000E02DD7CF21153105F9F0281B390B243047
:1026B000310580F48A819B816115710521F0FB0150
:1026C0009383828304C09093C8028093C702FE0163
:1026D000329644C0FE01E20FF31F81939193225082
:1026E0003109398328833AC02091C5023091C6024E
:1026F000232B41F420910201309103013093C60253
:102700002093C5022091000130910101211531056E
:1027100041F42DB73EB74091040150910501241BAF
:10272000350BE091C502F091C602E217F307A0F461
:102730002E1B3F0B2817390778F0AC014E5F5F4F17
:102740002417350748F04E0F5F1F5093C602409381
:10275000C5028193919302C0E0E0F0E0CF01DF91E8
:10276000CF910895CF93DF93009709F487C0FC01C0
:10277000329713821282C091C702D091C80220976B
:1027800081F420813181280F391F8091C5029091F9
:10279000C6028217930779F5F093C602E093C5024B
:1027A0006DC0DE0120E030E0AE17BF0750F4129696
:1027B0004D915C9113979D014115510509F1DA0185
:1027C000F3CFB383A28340815181840F951F8A1771
:1027D0009B0771F48D919C911197840F951F029620
:1027E0009183808312968D919C911397938382831A
:1027F0002115310529F4F093C802E093C7023EC0C9
:10280000D9011396FC93EE9312974D915D91A40F0D
:10281000B51FEA17FB0779F480819181840F951F1A
:102820000296D90111969C938E938281938113967F
:102830009C938E931297E0E0F0E08A819B81009751
:1028400019F0FE01EC01F9CFCE0102962881398101
:10285000820F931F2091C5023091C60228173907B5
:1028600069F4309729F41092C8021092C70202C08E
:1028700013821282D093C602C093C502DF91CF911A
:102880000895A0E0B0E0E7E4F4E10C94E516EC0173
:10289000CB01209719F40E941A13B8C0FE01E60F6D
:1028A000F71F9E0122503109E217F30708F4ACC06C
:1028B000D9010D911C91119706171707B8F0053033
:1028C000110508F49FC0A801445051094617570745
:1028D00008F498C002501109061B170B01931193BD
:1028E0006D937C93CF010E94B2138CC05B01A01A40
:1028F000B10A4E01800E911EA091C702B091C8028C
:10290000612C712C60E070E0109709F449C0A815A3
:10291000B905C9F5ED90FC901197670142E0C40E2E
:10292000D11CCA14DB0478F147018A189B086401A2
:1029300042E0C40ED11C1296BC9012971396AC9133
:10294000B5E0CB16D10440F0B282A383918280829D
:10295000D9018D939C9309C00E5F1F4F0E0D1F1D53
:10296000F90111830083EB2DFA2F6115710531F008
:10297000DB011396FC93EE93129744C0F093C802C8
:10298000E093C7023FC06D917C9111976616770660
:1029900008F43B01BD0112960D90BC91A02DB4CF5F
:1029A0006091C5027091C60268157905E9F4681650
:1029B0007906D0F440910001509101014115510573
:1029C00041F44DB75EB76091040170910501461B5B
:1029D000570BE417F507C0F4F093C602E093C50265
:1029E000F901918380830EC00E941A137C01009725
:1029F00059F0A801BE010E943E15CE010E94B213FB
:102A0000C70104C0CE0102C080E090E0CDB7DEB7C0
:102A1000EEE00C940117662777270C9463151F933B
:102A2000FC0199278827BC01E89411911032E9F341
:102A3000193010F01E30C8F31B3251F01D3249F42A
:102A4000689406C00E944E15610F711D811D911D75
:102A5000119110531A30B0F33EF490958095709513
:102A600061957F4F8F4F9F4F1F91089591118EC198
:102A7000803219F089508550D0F70895FB01DC01B0
:102A800002C001900D9241505040D8F70895FB01CB
:102A9000DC0101900D920020E1F70895592F482F95
:102AA000372F262F660F771F881F991F660F771FF6
:102AB000881F991F620F731F841F951F660F771F52
:102AC000881F991F0895A0E0B0E0E9E6F5E10C94B5
:102AD000E7168B016115710521F0DB018C931196CE
:102AE0009C93EC015E01BFEFAB1ABB0A7501C88075
:102AF0008C2D90E00E943615892B11F0E501F2CF64
:102B0000EDE2CE1208C07E01F2E0EF0EF11CC980AA
:102B1000DD24D39409C02BE2C21205C07E0142E03D
:102B2000E40EF11CC980D12CE701219743E050E06D
:102B300060EC70E0CE010E94C916892BC1F4239687
:102B400045E050E06BEB70E0CE010E94C916892B86
:102B500009F425960115110519F0D801CD93DC93E0
:102B6000D11006C160E070E080E89FE70AC143E051
:102B700050E068EB70E0CE010E94C916892B59F431
:102B80000115110509F4F9C0B2E0EB0EF11CF801D2
:102B9000F182E082F2C0F70160E070E0CB01C0E0BA
:102BA000D0E07F01A0EDAA2EAC0C29E02A1530F16F
:102BB0004D2D4260B42E2D2D2870D2FE04C021115F
:102BC00025C0219623C021112197A5E0B0E09B01EB
:102BD000AC010E94FA12660F771F881F991F6A0DB9
:102BE000711D811D911D6839A9E97A078A07A9E13C
:102BF0009A0760F0BD2DB660BB2E08C02EEFA21262
:102C00000AC0D3FC50C04D2D4860B42E3196D70178
:102C1000CC90DB2CC6CF2C2D2F7D253409F043C062
:102C2000A081AD3241F4BD2DB061DB2E7F0122E0E9
:102C3000E20EF11C0CC07F01AB3231F04FEFE41A11
:102C4000F40A21E030E006C0A2E0EA0EF11CA18106
:102C500022E030E0A053AA3018F0E21AF30A23C0B1
:102C6000F70120E030E02038BCE03B075CF4A9012C
:102C7000440F551F440F551F240F351F220F331FBC
:102C80002A0F311DAF014F5F5F4F7A01A081A05322
:102C9000AA3010F4FA01E7CFD4FE03C03195219594
:102CA0003109C20FD31FD1FE09C00115110531F042
:102CB000E1E0EE1AF108D801ED92FC920E948C112D
:102CC0002D2D2370233019F04B015C0106C04B0100
:102CD0005C01B7FAB094B7F8B09420E030E0A901F5
:102CE000C501B4010E94EF10882309F43EC0D7FF4C
:102CF00006C0D195C195D10907ED10E002C00FEED5
:102D000010E06801B8E1CB1AD10890E2E92EF12C6D
:102D1000CE15DF0574F0F801259135914591549158
:102D2000C501B4010E9442124B015C01CE19DF09BA
:102D3000EFCF04501109F594E7940C151D0541F7E8
:102D40008A2D880F8B2D881F8F3F49F020E030E0BF
:102D5000A901C501B4010E94EF10811106C082E2F1
:102D600090E09093CA028093C902C501B40109C0E2
:102D700060E070E080E89FEF04C060E070E080EC0D
:102D80009FE7CDB7DEB7ECE00C94031799278827AF
:102D90000895FB01DC014150504088F08D91813451
:102DA0001CF08B350CF4805E659161341CF06B3542
:102DB0000CF4605E861B611171F3990B0895881BFA
:102DC000FCCF2F923F924F925F926F927F928F92A1
:102DD0009F92AF92BF92CF92DF92EF92FF920F93AA
:102DE0001F93CF93DF93CDB7DEB7CA1BDB0B0FB6B4
:102DF000F894DEBF0FBECDBF09942A883988488871
:102E00005F846E847D848C849B84AA84B984C88406
:102E1000DF80EE80FD800C811B81AA81B981CE0FFD
:102E2000D11D0FB6F894DEBF0FBECDBFED010895E2
:102E300010E0C8EFD0E004C0FE010E940713229604
:0A2E4000CA3FD107C9F7F894FFCF8D
:102E4A000000CB0280000100000001003C000500E8
:102E5A00CDCCCC3D0000C0400000803F120264008F
:102E6A009A99993ECDCCCC3E9A99193F01734D69F6
:102E7A006E53706565643D5B005D0D0A00734D61BC
:102E8A007853706565643D5B00734D696E4F757468
:102E9A003D5B00734D61784F75743D5B00735065FF
:102EAA0072696F643D5B00734B703D5B00734B69E5
:102EBA003D5B00734B643D5B0073537465704C69F2
:102ECA006D69743D5B005D004E3A20002C20433A48
:102EDA0020002C20533A20002C20563A20000000D3
:102EEA000000320BAE0CB40ACD0ABF0A100B6E6199
:0C2EFA006E00696E66006F7666002E00A8
:00000001FF
