:100000000C945D000C9485000C9485000C94850084
:100010000C9485000C9485000C9485000C9485004C
:100020000C9485000C9485000C9485000C9485003C
:100030000C9485000C9485000C9485000C9485002C
:100040000C9458010C9485000C9422040C945404D4
:100050000C9485000C9485000C9485000C9485000C
:100060000C9485000C94850000000008000201003B
:100070000003040700000000000000000102040863
:100080001020408001020408102001020408102002
:10009000040404040404040402020202020203032E
:1000A0000303030300000000250028002B000000CC
:1000B0000000240027002A00840411241FBECFEF73
:1000C000D8E0DEBFCDBF11E0A0E0B1E0E6E3FEE0A6
:1000D00002C005900D92AC31B107D9F721E0ACE137
:1000E000B1E001C01D92A43DB207E1F710E0CAEBF8
:1000F000D0E004C02297FE010E947A05C83BD107D8
:10010000C9F70E94C8040C9419070C94000026E05B
:1001100040E855E260E070E083E391E00E94C003B4
:1001200023E331E044E06CE171E080E291E00E9481
:10013000FB0061E08DE00E946E0280E00E942802D8
:10014000BC01882777FD8095982F0C94FF041F939E
:10015000CF93DF9365E070E080E090E00E940705B8
:1001600070931D0160931C0165E070E080E090E0F9
:100170000E94070570931F0160931E0180E291E0C9
:100180000E940D01C0911C01D0911D0114E61C16A6
:100190001D0644F561E08DE00E94A70280911E01DA
:1001A00090911F01189FB001199F700D112488278D
:1001B00077FD8095982F0E94C50160E08DE00E9438
:1001C000A70280911E0190911F01189FB001199FF5
:1001D000700D1124882777FD8095982F0E94C50106
:1001E0002197D5CF68E873E180E090E0DF91CF916F
:1001F0001F910C94C501CF93DF93EC017B836A833D
:100200004C8339832883842F90E001960E948D05CA
:100210009E838D83DF91CF910895FF920F931F935B
:10022000CF93DF93EC01FC8088819981DC01ED9113
:10023000FC910190F081E02D66E00995888199811B
:10024000DC01ED91FC910190F081E02D65E80995CC
:1002500088819981DC01ED91FC910190F081E02D84
:100260006C81099500E010E02C8130E08881998153
:100270000217130784F4EA81FB81E00FF11F60810C
:10028000F626DC01ED91FC910190F081E02D0995BD
:100290000F5F1F4FE9CFDC01ED91FC910190F081E0
:1002A000E02D6F2DDF91CF911F910F91FF90099459
:1002B0001F920F920FB60F9211242F933F938F939B
:1002C0009F93AF93BF9380912B0190912C01A091AC
:1002D0002D01B0912E0130912A0123E0230F2D37FB
:1002E00020F40196A11DB11D05C026E8230F02963A
:1002F000A11DB11D20932A0180932B0190932C0105
:10030000A0932D01B0932E0180912F019091300187
:10031000A0913101B09132010196A11DB11D8093D0
:100320002F0190933001A0933101B0933201BF911E
:10033000AF919F918F913F912F910F900FBE0F9092
:100340001F9018953FB7F89480912F01909130013C
:10035000A0913101B091320126B5A89B05C02F3F75
:1003600019F00196A11DB11D3FBF6627782F892F77
:100370009A2F620F711D811D911D42E0660F771F3C
:10038000881F991F4A95D1F70895CF92DF92EF9277
:10039000FF92CF93DF936B017C010E94A201EB01DE
:1003A000C114D104E104F10489F00E942B050E94DC
:1003B000A2016C1B7D0B683E734090F381E0C81A6C
:1003C000D108E108F108C851DC4FEACFDF91CF91A5
:1003D000FF90EF90DF90CF900895789484B582607D
:1003E00084BD84B5816084BD85B5826085BD85B5D9
:1003F000816085BDEEE6F0E0808181608083E1E888
:10040000F0E01082808182608083808181608083BF
:10041000E0E8F0E0808181608083E1EBF0E08081C2
:1004200084608083E0EBF0E0808181608083EAE794
:10043000F0E080818460808380818260808380811D
:10044000816080838081806880831092C1000895DC
:100450008E3008F08E50877020910A0190E4299F19
:1004600090011124822B80937C0080917A0080641B
:1004700080937A0080917A0086FDFCCF809178008D
:100480002091790090E0922B0895833081F028F438
:10049000813099F08230A1F008958730A9F088303A
:1004A000B9F08430D1F4809180008F7D03C08091B9
:1004B00080008F7780938000089584B58F7702C085
:1004C00084B58F7D84BD08958091B0008F7703C07F
:1004D0008091B0008F7D8093B0000895CF93DF931B
:1004E00090E0FC01E458FF4F2491FC01E057FF4FDE
:1004F0008491882349F190E0880F991FFC01E2550F
:10050000FF4FA591B4918C559F4FFC01C591D4919B
:100510009FB7611108C0F8948C91209582238C9329
:10052000888182230AC0623051F4F8948C91322F72
:10053000309583238C938881822B888304C0F89420
:100540008C91822B8C939FBFDF91CF9108950F9355
:100550001F93CF93DF931F92CDB7DEB7282F30E0E4
:10056000F901E859FF4F8491F901E458FF4F1491C4
:10057000F901E057FF4F04910023C9F0882321F0CF
:1005800069830E9445026981E02FF0E0EE0FFF1FB2
:10059000EC55FF4FA591B4919FB7F8948C916111E0
:1005A00003C01095812301C0812B8C939FBF0F90B6
:1005B000DF91CF911F910F910895FC01818D228DC4
:1005C00090E0805C9F4F821B91098F73992708955B
:1005D000FC01918D828D981731F0828DE80FF11D0D
:1005E000858D90E008958FEF9FEF0895FC01918D28
:1005F000828D981761F0828DDF01A80FB11D5D9685
:100600008C91928D9F5F9F73928F90E008958FEFF2
:100610009FEF08958AE794E0892B49F080E090E00D
:10062000892B29F00E947A0481110C94000008950E
:10063000FC01848DDF01A80FB11DA35ABF4F2C917F
:10064000848D90E001968F739927848FA689B7894E
:100650002C93A089B1898C9180648C93938D848D27
:10066000981306C00288F389E02D80818F7D8083F6
:100670000895CF93DF93EC01888D8823C9F0EA8930
:10068000FB89808185FD05C0A889B9898C9186FD8B
:100690000FC00FB607FCF5CF808185FFF2CFA88988
:1006A000B9898C9185FFEDCFCE010E941803E7CF69
:1006B000DF91CF910895CF92DF92FF920F931F9316
:1006C000CF93DF931F92CDB7DEB76C0181E0D601E7
:1006D00058968C9358975B969C915B975C968C91FF
:1006E0005C97981307C05096ED91FC9151978081CB
:1006F00085FD2EC0F601038D10E00F5F1F4F0F73B5
:100700001127F02EF601848DF81211C00FB607FCE8
:10071000F9CFD6015096ED91FC915197808185FFDC
:10072000F1CFC60169830E9418036981EBCF838DE5
:10073000E80FF11DE35AFF4F6083D6015B960C93DF
:100740005B975296ED91FC915397808180620CC02B
:10075000D6015696ED91FC91579760835096ED9196
:10076000FC91519780818064808381E090E00F90BC
:10077000DF91CF911F910F91FF90DF90CF9008955F
:10078000BF92CF92DF92EF92FF92CF93DF93EC0173
:100790006A017B01B22EE889F98982E080834115E4
:1007A00081EE580761057105A1F060E079E08DE305
:1007B00090E0A70196010E942C05215031094109C2
:1007C00051095695479537952795211580E13807AA
:1007D00098F0E889F989108260E874E88EE190E089
:1007E000A70196010E942C052150310941095109A8
:1007F0005695479537952795EC85FD853083EE8591
:10080000FF852083188EEC89FD89B082EA89FB89F7
:10081000808180618083EA89FB8980818860808310
:10082000EA89FB89808180688083EA89FB898081ED
:100830008F7D8083DF91CF91FF90EF90DF90CF90FD
:10084000BF9008951F920F920FB60F9211242F930D
:100850008F939F93EF93FF93E0914301F0914401B5
:100860008081E0914901F0914A0182FD12C090819E
:1008700080914C018F5F8F7320914D01821751F051
:10088000E0914C01F0E0ED5CFE4F958F80934C01C0
:1008900001C08081FF91EF919F918F912F910F90D7
:1008A0000FBE0F901F9018951F920F920FB60F92C8
:1008B00011242F933F934F935F936F937F938F9365
:1008C0009F93AF93BF93EF93FF9383E391E00E94D5
:1008D0001803FF91EF91BF91AF919F918F917F91FD
:1008E0006F915F914F913F912F910F900FBE0F909D
:1008F0001F90189583E391E00E94DD0221E0892B8F
:1009000009F420E0822F08951092360110923501EB
:1009100088EE93E0A0E0B0E0809337019093380137
:10092000A0933901B0933A018FE091E090933401A4
:100930008093330185EC90E09093400180933F01D8
:1009400084EC90E0909342018093410180EC90E030
:10095000909344018093430181EC90E09093460191
:100960008093450182EC90E0909348018093470189
:1009700086EC90E090934A018093490110924C01DB
:1009800010924D0110924E0110924F01089508955A
:100990000E94ED010E94C7040E948700CAE0D3E0D4
:1009A0000E94A7002097E1F30E940A03F9CFCF929B
:1009B000DF92EF92FF920F931F93CF93DF936C011F
:1009C0007A01EB01E60EF71E00E010E0CE15DF0520
:1009D00061F06991D601ED91FC910190F081E02DDB
:1009E000C6010995080F191FF1CFC801DF91CF91FA
:1009F0001F910F91FF90EF90DF90CF9008956115B8
:100A000071058105910511F00C9408070895CF93A5
:100A1000DF9300D000D0CDB7DEB79B01AC016115EC
:100A200071058105910569F069833A834B835C8385
:100A30000E94030729813A814B815C810E944E0507
:100A400003C060E070E0CB010F900F900F900F900B
:100A5000DF91CF9108950895A1E21A2EAA1BBB1B26
:100A6000FD010DC0AA1FBB1FEE1FFF1FA217B3077A
:100A7000E407F50720F0A21BB30BE40BF50B661F90
:100A8000771F881F991F1A9469F760957095809554
:100A900090959B01AC01BD01CF010895052E97FBF8
:100AA0001EF400940E94650557FD07D00E942C0596
:100AB00007FC03D04EF40C94650550954095309595
:100AC00021953F4F4F4F5F4F0895909580957095BA
:100AD00061957F4F8F4F9F4F08950E947E05A59F80
:100AE000900DB49F900DA49F800D911D1124089529
:100AF000EE0FFF1F0590F491E02D0994A29FB00125
:100B0000B39FC001A39F700D811D1124911DB29F41
:100B1000700D811D1124911D0895CF93DF938230B4
:100B2000910510F482E090E0E091D201F091D301C0
:100B300020E030E0A0E0B0E0309739F14081518111
:100B400048175907B8F04817590771F48281938103
:100B5000109729F013969C938E9312972CC0909324
:100B6000D3018093D20127C02115310531F04217FE
:100B7000530718F0A901DB0101C0EF019A01BD0183
:100B8000DF010280F381E02DD7CF21153105F9F087
:100B9000281B390B2430310580F48A819B81611533
:100BA000710521F0FB019383828304C09093D301EC
:100BB0008093D201FE01329644C0FE01E20FF31F82
:100BC0008193919322503109398328833AC020912F
:100BD000D0013091D101232B41F4209102013091B9
:100BE00003013093D1012093D00120910001309175
:100BF00001012115310541F42DB73EB740910401A3
:100C000050910501241B350BE091D001F091D101E9
:100C1000E217F307A0F42E1B3F0B2817390778F0D3
:100C2000AC014E5F5F4F2417350748F04E0F5F1F32
:100C30005093D1014093D0018193919302C0E0E0A1
:100C4000F0E0CF01DF91CF910895CF93DF9300972C
:100C500009F487C0FC01329713821282C091D2013D
:100C6000D091D301209781F420813181280F391F41
:100C70008091D0019091D1018217930779F5F0937B
:100C8000D101E093D0016DC0DE0120E030E0AE176D
:100C9000BF0750F412964D915C9113979D01411539
:100CA000510509F1DA01F3CFB383A2834081518169
:100CB000840F951F8A179B0771F48D919C91119752
:100CC000840F951F02969183808312968D919C913B
:100CD0001397938382832115310529F4F093D3016F
:100CE000E093D2013EC0D9011396FC93EE93129784
:100CF0004D915D91A40FB51FEA17FB0779F4808130
:100D00009181840F951F0296D90111969C938E9321
:100D10008281938113969C938E931297E0E0F0E08A
:100D20008A819B81009719F0FE01EC01F9CFCE0179
:100D3000029628813981820F931F2091D001309132
:100D4000D1012817390769F4309729F41092D3019B
:100D50001092D20102C013821282D093D101C093AB
:100D6000D001DF91CF9108958F929F92AF92BF9261
:100D7000CF92DF92EF92FF92CF93DF93EC016881E5
:100D800079818A819B81611571058105910521F425
:100D900064E279ED8BE597E02DE133EF41E050E03F
:100DA0000E944E0549015A019B01AC01A7EAB1E43A
:100DB0000E946D056B017C01ACEEB4EFA5019401BE
:100DC0000E941407C60ED71EE81EF91EF7FE06C0C5
:100DD00081E0C81AD108E10880E8F80AC882D982FF
:100DE000EA82FB82C701B6019F77DF91CF91FF9026
:100DF000EF90DF90CF90BF90AF909F908F9008952D
:100E00000E94B406089586E091E00E94B406089519
:100E10006093060170930701809308019093090184
:100E20000895B7FF0C946D050E946D05821B930B0E
:060E30000895F894FFCFC5
:100E36000000D40180000100000001000000005BFA
:0C0E460003D704DD02F602E802390300C5
:00000001FF
