:100000000C9462000C947A050C94A7050C948A0059
:100010000C948A000C948A000C948A000C948A0038
:100020000C948A000C948A000C948A000C948A0028
:100030000C948A000C948A000C948A000C948A0018
:100040000C94D4050C948A000C948A000C948A00B9
:100050000C948A000C948A000C948A000C948A00F8
:100060000C948A000C948A00000000080002010031
:100070000003040700000000000000000102040863
:100080001020408001020408102001020408102002
:10009000040404040404040402020202020203032E
:1000A00003030303000000002300260029000000D2
:1000B0000000250028002B0000000000240027007D
:1000C0002A00330211241FBECFEFD8E0DEBFCDBF20
:1000D00011E0A0E0B1E0EEE0F5E102C005900D9284
:1000E000A231B107D9F721E0A2E1B1E001C01D9230
:1000F000A037B207E1F710E0C4ECD0E004C02297CB
:10010000FE010E94720AC23CD107C9F70E94A307F0
:100110000C94850A0C940000809161019091620119
:100120000196909362018093610108950F931F934C
:100130000E941E0600915B0110915C01222717FDB1
:100140002095322F601B710B820B930B6436710567
:100150008105910508F445C080E00E946A05809100
:1001600061019091620126E0289FB001299F700DE6
:10017000112497FD0DC0882777FD8095982F0E9448
:10018000FD0820E030E040E05FE30E94FA070CC089
:10019000882777FD8095982F0E94FD0820E030E0A9
:1001A00040E05FE30E94F9070E94CA0860935D0186
:1001B00070935E0180935F019093600110926201E1
:1001C000109261010E941E0670935C0160935B01B6
:1001D00042E050E06CE870E080E00E944A0581E077
:1001E00001C080E01F910F91089561E08BE00E94B3
:1001F000430760E08BE00C944307CF93DF93EC015F
:100200008091570190915801C817D90791F0D09368
:100210005801C09357010E94F500209751F061E00A
:100220008CE00E94430760E08CE00E944307219726
:10023000F4CFDF91CF910895AF92BF92CF92DF922A
:10024000EF92FF920F931F9342E050E06CE870E052
:1002500080E00E944A058EE00E946506BC01882766
:1002600077FD8095982F1F921F921F922FEF2F934B
:10027000A12CB12C6501EE24EA9413E0F12E00E0EC
:1002800010E020E030E0A9010E94B2070E94FD08C2
:1002900060934B0170934C0180934D0190934E01FC
:1002A00061E070E082E191E00E948B0463E08DE008
:1002B0000E940A0763E08CE00E940A070F900F90EB
:1002C0000F900F9063E08BE01F910F91FF90EF90E4
:1002D000DF90CF90BF90AF900C940A07AF92BF927F
:1002E000CF92DF92EF92FF920F931F930E9496009E
:1002F000882309F488C060915D0170915E0180914E
:100300005F01909160010E94FD086093530170931A
:10031000540180935501909356018EE00E9465062A
:10032000BC01882777FD8095982F1F921F921F92FE
:100330002FEF2F93A12CB12C6501EE24EA9413E04A
:10034000F12E00E010E020E030E0A9010E94B207A9
:100350000E94FD0860934B0170934C0180934D0106
:1003600090934E01C0900401D0900501E0900601E9
:10037000F0900701009108011091090120910A01F4
:1003800030910B0140910C0150910D0160910E01D3
:1003900070910F0182E191E00E94920382E191E06D
:1003A0000E947202C0904F01D0905001E090510124
:1003B000F09052010F900F900F900F9020E030E0DE
:1003C000A901C701B6010E94AD0920E030E040E07C
:1003D0005FE387FD05C0C701B6010E94FA0704C0AC
:1003E000C701B6010E94F9070E94CA0883E00E9473
:1003F00082068DE00E94790761E0892B09F060E0B8
:100400008DE00E9443070E941E0600915901109141
:100410005A01222717FD2095322F601B710B820B8A
:10042000930B6C3D754081059105A0F00E941E065E
:1004300070935A016093590180915D0190915E0122
:100440001F910F91FF90EF90DF90CF90BF90AF90F2
:100450000C94FD001F910F91FF90EF90DF90CF90D3
:10046000BF90AF900895AF92BF92CF92DF92EF927C
:10047000FF920F931F93A0900801B0900901C090C4
:100480000A01D0900B01E0900C01F0900D01009159
:100490000E0110910F011F921F92809107018F93FF
:1004A000809106018F93809105018F9380910401C3
:1004B0008F932BE431E04FE451E063E571E082E19A
:1004C00091E00E94DD040F900F900F900F900F901D
:1004D0000F901F910F91FF90EF90DF90CF90BF9002
:1004E000AF9008952F923F924F925F926F927F92BA
:1004F0008F929F92AF92BF92CF92DF92EF92FF9234
:100500000F931F93CF93DF93CDB7DEB72B970FB623
:10051000F894DEBF0FBECDBF9B878A87DC01D896DB
:10052000BC91B983B11102C01982E2C00E941E06BB
:100530006A837B838C839D83EA85FB8580A191A15F
:10054000A2A1B3A14A815B816C817D81481B590BBB
:100550006A0B7B0B84A595A5A6A5B7A548175907D7
:100560006A077B0708F3028CF38DE02D8080918071
:10057000A280B380AA85BB855E96ED91FC915F97C2
:10058000A501940160817181828193810E94F907A4
:100590002B013C01EA85FB852089318942895389F9
:1005A0000E94B109AA85BB8594962D913D914D91EC
:1005B0005C9197970E94FA076B017C01EA85FB85A5
:1005C00064A375A386A397A324A835A806A917A991
:1005D0009101A8010E94AD0918161CF4C101D801AF
:1005E00018C0AA85BB85D0968D919D910D90BC9128
:1005F000A02D8E839F83A887B9879C01AD01C70179
:10060000B6010E945E0887FF0AC08E819F81A8857F
:10061000B985EA85FB8584A395A3A6A3B7A3AA857C
:10062000BB851C962D913D914D915C911F97C30107
:10063000B2010E94B109EA85FB8524A135A146A13A
:1006400057A10E94FA076B017C01AA85BB85989689
:100650002D913D914D915C919B97C501B4010E94F4
:10066000F907EA85FB8524893589468957890E94DF
:10067000B1099B01AC01C701B6010E94F9076B01EA
:100680007C019101A8010E94AD091816BCF0AA8551
:10069000BB85D0962C90D097D1963C90D197D2968E
:1006A0000C91D297D3961C919101A801B601C70174
:1006B0000E945E0887FD02C016018701AA85BB85DE
:1006C0005C96ED91FC915D97C101D8018083918387
:1006D000A283B383EA85FB8580A691A6A2A6B3A6D2
:1006E0008A819B81AC81BD8180A391A3A2A3B3A386
:1006F00089812B960FB6F894DEBF0FBECDBFDF9178
:10070000CF911F910F91FF90EF90DF90CF90BF900E
:10071000AF909F908F907F906F905F904F903F90A1
:100720002F9008952F923F924F925F926F927F92F7
:100730008F929F92AF92BF92CF92DF92EF92FF92F1
:100740000F931F93CF93DF9300D000D0CDB7DEB7C8
:100750001C012A013B014801590120E030E0A901B8
:10076000C301B2010E945E0887FD78C020E030E03E
:10077000A901C501B4010E945E0887FD6FC020E099
:1007800030E0A901C701B6010E945E0887FD66C07E
:10079000F101408251826282738284829582A682B4
:1007A000B782C086D186E286F38664A575A586A544
:1007B00097A50E94FB0820E030E04AE754E40E943D
:1007C000620869837A838B839C83F1014486558612
:1007D000668677869B01AC01C501B4010E94B10910
:1007E0004B015C01F101608B718B828B938B2981B2
:1007F0003A814B815C81C701B6010E9462086B019E
:100800007C01F101648B758B868B978B808D918D2C
:10081000019721F5A301920160E070E0CB010E94F5
:10082000F907F1016487758786879787A501940189
:1008300060E070E0CB010E94F907F101608B718BE1
:10084000828B938BA701960160E070E0CB010E9440
:10085000F907F101648B758B868B978B0F900F9046
:100860000F900F90DF91CF911F910F91FF90EF901C
:10087000DF90CF90BF90AF909F908F907F906F90C0
:100880005F904F903F902F9008958F929F92AF92DC
:10089000BF92CF92DF92EF92FF92CF93DF93EC0162
:1008A000EC8DFD8DC080D180E280F380CCA2DDA2F2
:1008B000EEA2FFA2EA8DFB8D80819181A281B3819E
:1008C00088A799A7AAA7BBA78CA89DA8AEA8BFA8D0
:1008D000A5019401C701B6010E94AD09181664F084
:1008E00088A899A8AAA8BBA8A5019401C701B60128
:1008F0000E945E0887FF04C08CA29DA2AEA2BFA288
:10090000DF91CF91FF90EF90DF90CF90BF90AF90AD
:100910009F908F9008951F93CF93DF93EC0111E088
:100920006130710509F010E088AD91E08927181356
:1009300003C0CE010E94450418AFDF91CF911F91F3
:1009400008950F931F93CF93DF93EC018B0188AD34
:10095000882361F1888D998D6817790739F12C8585
:100960003D854E855F8560E070E0CB010E94F90710
:100970006C877D878E879F87288939894A895B891B
:1009800060E070E0CB010E94F907688B798B8A8B5D
:100990009B8B2C893D894E895F8960E070E0CB019B
:1009A0000E94F9076C8B7D8B8E8B9F8B198F088F24
:1009B000DF91CF911F910F9108954F925F926F92A7
:1009C0007F928F929F92AF92BF92CF92DF92EF92DF
:1009D000FF920F931F93CF93DF9300D000D0CDB73A
:1009E000DEB74C0127013801A982BA82CB82DC82B2
:1009F000FC01558F448F738F628F378F268F10AE17
:100A000010AA11AA12AA13AA80E090E0AFE7B3E4FB
:100A100084AB95ABA6ABB7AB84E690E0A0E0B0E0CA
:100A200084A795A7A6A7B7A76B8D7C8DC4010E944C
:100A3000A104CF88D88CE98CFA8C09811A812B818A
:100A40003C81B301A201C4010E9492030E941E06D0
:100A5000F40144A455A466A477A464197509860911
:100A6000970960A371A382A393A30F900F900F9097
:100A70000F90DF91CF911F910F91FF90EF90DF903A
:100A8000CF90BF90AF909F908F907F906F905F902E
:100A90004F9008958230E8F4E82FF0E0EE0FFF1F4A
:100AA000ED59FE4F71836083813041F08091690080
:100AB0008C7F842B80936900E89A08958091690067
:100AC000440F551F440F551F837F842B809369006B
:100AD000E99A0895823068F4813011F0E89801C0F5
:100AE000E998E82FF0E0EE0FFF1FED59FE4F11825D
:100AF000108208951F920F920FB60F9211242F9318
:100B00003F934F935F936F937F938F939F93AF9395
:100B1000BF93EF93FF938091630190916401892BC0
:100B200029F0E0916301F09164010995FF91EF9143
:100B3000BF91AF919F918F917F916F915F914F91F5
:100B40003F912F910F900FBE0F901F9018951F92FD
:100B50000F920FB60F9211242F933F934F935F93F1
:100B60006F937F938F939F93AF93BF93EF93FF9375
:100B70008091650190916601892B29F0E0916501D2
:100B8000F09166010995FF91EF91BF91AF919F910F
:100B90008F917F916F915F914F913F912F910F9026
:100BA0000FBE0F901F9018951F920F920FB60F92C5
:100BB00011242F933F938F939F93AF93BF93809173
:100BC000680190916901A0916A01B0916B01309127
:100BD000670123E0230F2D3720F40196A11DB11DDD
:100BE00005C026E8230F0296A11DB11D20936701C1
:100BF0008093680190936901A0936A01B0936B019F
:100C000080916C0190916D01A0916E01B0916F0186
:100C10000196A11DB11D80936C0190936D01A0936D
:100C20006E01B0936F01BF91AF919F918F913F91F2
:100C30002F910F900FBE0F901F9018952FB7F8941B
:100C4000609168017091690180916A0190916B01D6
:100C50002FBF0895789484B5826084BD84B5816087
:100C600084BD85B5826085BD85B5816085BDEEE6B4
:100C7000F0E0808181608083E1E8F0E01082808193
:100C800082608083808181608083E0E8F0E0808101
:100C900081608083E1EBF0E0808184608083E0EB21
:100CA000F0E0808181608083EAE7F0E08081846009
:100CB0008083808182608083808181608083808165
:100CC000806880831092C10008958E3008F08E50A5
:100CD00087702091100190E4299F90011124822BAC
:100CE00080937C0080917A00806480937A00809168
:100CF0007A0086FDFCCF809178002091790090E009
:100D0000922B08951F93CF93DF93182FEB0161E08F
:100D10000E940A07209711F460E004C0CF3FD1057C
:100D200039F461E0812FDF91CF911F910C9443073B
:100D3000E12FF0E0E859FF4FE491E330F9F048F497
:100D4000E130B9F0E230A1F584B5806284BDC8BD60
:100D500034C0E730E9F0E83019F1E43049F580912A
:100D60008000806280938000D0938B00C0938A00C3
:100D700024C084B5806884BDC7BD1FC08091800039
:100D8000806880938000D0938900C093880015C04C
:100D90008091B00080688093B000C093B3000DC014
:100DA0008091B00080628093B000C093B40005C011
:100DB000C038D1050CF0B5CFAFCFDF91CF911F91E7
:100DC0000895833081F028F4813099F08230A1F0C9
:100DD00008958730A9F08830B9F08430D1F480913B
:100DE00080008F7D03C0809180008F77809380008A
:100DF000089584B58F7702C084B58F7D84BD089532
:100E00008091B0008F7703C08091B0008F7D809378
:100E1000B0000895CF93DF9390E0FC01E458FF4FBA
:100E20002491FC01E057FF4F8491882349F190E021
:100E3000880F991FFC01E854FF4FA591B49182558A
:100E40009F4FFC01C591D4919FB7611108C0F894E0
:100E50008C91209582238C93888182230AC06230F2
:100E600051F4F8948C91322F309583238C938881A0
:100E7000822B888304C0F8948C91822B8C939FBF23
:100E8000DF91CF9108950F931F93CF93DF931F921C
:100E9000CDB7DEB7282F30E0F901E859FF4F849134
:100EA000F901E458FF4F1491F901E057FF4F049105
:100EB0000023C9F0882321F069830E94E10669813B
:100EC000E02FF0E0EE0FFF1FE255FF4FA591B49128
:100ED0009FB7F8948C91611103C01095812301C0D4
:100EE000812B8C939FBF0F90DF91CF911F910F911A
:100EF0000895CF93DF93282F30E0F901E859FF4F91
:100F00008491F901E458FF4FD491F901E057FF4F64
:100F1000C491CC2391F081110E94E106EC2FF0E006
:100F2000EE0FFF1FEC55FF4FA591B4912C912D238F
:100F300081E090E021F480E002C080E090E0DF9169
:100F4000CF91089508950E942A060E94A2070E9448
:100F50001C01C0E0D0E00E946E012097E1F30E94E6
:100F60000000F9CF4F925F926F927F92AF92BF9243
:100F7000CF92DF92EF92FF920F931F93CF93DF9365
:100F8000CDB7DEB729013A01621B730B840B950BB9
:100F900029893A894B895C892A193B094C095D09E1
:100FA000298B3A8B4B8B5C8B9B01AC0169897A89CD
:100FB0008B899C890E94140AE418F5080609170910
:100FC000A80197010E94240A2A0D3B1D4C1D5D1D9E
:100FD000CA01B901DF91CF911F910F91FF90EF905E
:100FE000DF90CF90BF90AF907F906F905F904F90C9
:100FF00008955058BB27AA270ED075C166D130F08E
:101000006BD120F031F49F3F11F41EF45BC10EF45C
:10101000E095E7FB51C1E92F77D180F3BA1762075A
:1010200073078407950718F071F49EF58FC10EF4CD
:10103000E0950B2EBA2FA02D0B01B90190010C01E8
:10104000CA01A0011124FF27591B99F0593F50F400
:10105000503E68F11A16F040A22F232F342F442758
:10106000585FF3CF469537952795A795F040539550
:10107000C9F77EF41F16BA0B620B730B840BBAF020
:101080009150A1F0FF0FBB1F661F771F881FC2F78B
:101090000EC0BA0F621F731F841F48F4879577959F
:1010A0006795B795F7959E3F08F0B3CF9395880F56
:1010B00008F09927EE0F979587950895D9D008F4F1
:1010C00081E008950CD00FC107D140F0FED030F080
:1010D00021F45F3F19F0F0C0511139C1F3C014D1B0
:1010E00098F39923C9F35523B1F3951B550BBB27EF
:1010F000AA2762177307840738F09F5F5F4F220F9C
:10110000331F441FAA1FA9F333D00E2E3AF0E0E894
:1011100030D091505040E695001CCAF729D0FE2FE0
:1011200027D0660F771F881FBB1F26173707480772
:10113000AB07B0E809F0BB0B802DBF01FF27935828
:101140005F4F2AF09E3F510568F0B6C000C15F3F77
:10115000ECF3983EDCF3869577956795B795F79510
:101160009F5FC9F7880F911D9695879597F9089508
:10117000E1E0660F771F881FBB1F621773078407A4
:10118000BA0720F0621B730B840BBA0BEE1F88F7B3
:10119000E095089504D06894B111D9C00895BCD0E9
:1011A00088F09F5790F0B92F9927B751A0F0D1F050
:1011B000660F771F881F991F1AF0BA95C9F712C0DA
:1011C000B13081F0C3D0B1E00895C0C0672F782F4F
:1011D0008827B85F39F0B93FCCF386957795679546
:1011E000B395D9F73EF490958095709561957F4FB2
:1011F0008F4F9F4F0895E89409C097FB3EF4909558
:101200008095709561957F4F8F4F9F4F9923A9F0DF
:10121000F92F96E9BB279395F6958795779567956E
:10122000B795F111F8CFFAF4BB0F11F460FF1BC0B2
:101230006F5F7F4F8F4F9F4F16C0882311F096E945
:1012400011C0772321F09EE8872F762F05C06623F3
:1012500071F096E8862F70E060E02AF09A95660FAC
:10126000771F881FDAF7880F9695879597F9089565
:10127000990F0008550FAA0BE0E8FEEF16161706A7
:10128000E807F907C0F012161306E407F50798F00F
:10129000621B730B840B950B39F40A2661F0232B28
:1012A000242B252B21F408950A2609F4A140A695A4
:1012B0008FEF811D811D089597F99F6780E870E089
:1012C00060E008959FEF80EC089500240A941616BC
:1012D000170618060906089500240A941216130624
:1012E000140605060895092E0394000C11F48823B2
:1012F00052F0BB0F40F4BF2B11F460FF04C06F5FCE
:101300007F4F8F4F9F4F089557FD9058440F551FA3
:1013100059F05F3F71F04795880F97FB991F61F077
:101320009F3F79F087950895121613061406551FEE
:10133000F2CF4695F1DF08C0161617061806991F5A
:10134000F1CF86957105610508940895E894BB274F
:1013500066277727CB0197F908958ADF08F48FEF86
:1013600008950BD0C0CFB1DF28F0B6DF18F0952379
:1013700009F0A2CFA7CF1124EACFC6DFA0F3959F33
:10138000D1F3950F50E0551F629FF001729FBB276C
:10139000F00DB11D639FAA27F00DB11DAA1F649F18
:1013A0006627B00DA11D661F829F2227B00DA11DCB
:1013B000621F739FB00DA11D621F839FA00D611D51
:1013C000221F749F3327A00D611D231F849F600D72
:1013D000211D822F762F6A2F11249F5750408AF0AB
:1013E000E1F088234AF0EE0FFF1FBB1F661F771F37
:1013F000881F91505040A9F79E3F510570F05CCF77
:10140000A6CF5F3FECF3983EDCF386957795679522
:10141000B795F795E7959F5FC1F7FE2B880F911D54
:101420009695879597F90895DB018F939F930E9476
:10143000430ABF91AF91A29F800D911DA39F900D74
:10144000B29F900D11240895052E97FB1EF4009471
:101450000E943B0A57FD07D00E944E0A07FC03D0AA
:101460004EF40C943B0A50954095309521953F4F92
:101470004F4F5F4F089590958095709561957F4F80
:101480008F4F9F4F08950E94760AA59F900DB49F9D
:10149000900DA49F800D911D11240895A1E21A2E94
:1014A000AA1BBB1BFD010DC0AA1FBB1FEE1FFF1F08
:1014B000A217B307E407F50720F0A21BB30BE40B58
:1014C000F50B661F771F881F991F1A9469F760959F
:1014D0007095809590959B01AC01BD01CF01089559
:1014E000EE0FFF1F0590F491E02D0994A29FB0012B
:1014F000B39FC001A39F700D811D1124911DB29F48
:0E150000700D811D1124911D0895F894FFCFE8
:10150E00010000009A99993ECDCCCC3ECDCC8C3FBB
:02151E000100CA
:00000001FF
