:100000000C945D000C94E7000C9414010C94850092
:100010000C9485000C9485000C9485000C9485004C
:100020000C9485000C9485000C9485000C9485003C
:100030000C9485000C9485000C9485000C9485002C
:100040000C94D7040C9485000C941E030C9450035C
:100050000C9485000C9485000C9485000C9485000C
:100060000C9485000C94850000000008000201003B
:100070000003040700000000000000000102040863
:100080001020408001020408102001020408102002
:10009000040404040404040402020202020203032E
:1000A0000303030300000000250028002B000000CC
:1000B0000000240027002A00800311241FBECFEF78
:1000C000D8E0DEBFCDBF11E0A0E0B1E0ECE0FBE0A6
:1000D00002C005900D92A232B107D9F721E0A2E249
:1000E000B1E001C01D92A03DB207E1F710E0CAEBFC
:1000F000D0E004C02297FE010E948005C83BD107D2
:10010000C9F70E94C4030C9484050C9400008091EC
:10011000240190912501019690932501809324015B
:10012000089526E040E855E260E070E08AE291E060
:100130000E94BC0260E083E00E946A0161E083E00B
:100140000E94A30143E050E067E870E081E00C9476
:10015000C7002091240130912501809122019091C6
:1001600023012817390791F060912401709125012E
:100170004AE050E08AE291E00E94BF0480912401AD
:10018000909125019093230180932201089582305C
:10019000E8F4E82FF0E0EE0FFF1FEA5DFE4F7183F9
:1001A0006083813041F0809169008C7F842B809343
:1001B0006900E89A089580916900440F551F440F23
:1001C000551F837F842B80936900E99A08951F92BD
:1001D0000F920FB60F9211242F933F934F935F937B
:1001E0006F937F938F939F93AF93BF93EF93FF93FF
:1001F0008091260190912701892B29F0E091260119
:10020000F09127010995FF91EF91BF91AF919F91D7
:100210008F917F916F915F914F913F912F910F90AF
:100220000FBE0F901F9018951F920F920FB60F924E
:1002300011242F933F934F935F936F937F938F93EB
:100240009F93AF93BF93EF93FF9380912801909179
:100250002901892B29F0E0912801F09129010995C4
:10026000FF91EF91BF91AF919F918F917F916F918E
:100270005F914F913F912F910F900FBE0F901F9064
:100280001895833081F028F4813099F08230A1F004
:1002900008958730A9F08830B9F08430D1F4809186
:1002A00080008F7D03C0809180008F7780938000D5
:1002B000089584B58F7702C084B58F7D84BD08957D
:1002C0008091B0008F7703C08091B0008F7D8093C4
:1002D000B0000895CF93DF9390E0FC01E458FF4F06
:1002E0002491FC01E057FF4F8491882349F190E06D
:1002F000880F991FFC01E255FF4FA591B4918C55D1
:100300009F4FFC01C591D4919FB7611108C0F8942B
:100310008C91209582238C93888182230AC062303D
:1003200051F4F8948C91322F309583238C938881EB
:10033000822B888304C0F8948C91822B8C939FBF6E
:10034000DF91CF9108950F931F93CF93DF931F9267
:10035000CDB7DEB7282F30E0F901E859FF4F84917F
:10036000F901E458FF4F1491F901E057FF4F049150
:100370000023C9F0882321F069830E94410169812B
:10038000E02FF0E0EE0FFF1FEC55FF4FA591B49169
:100390009FB7F8948C91611103C01095812301C01F
:1003A000812B8C939FBF0F90DF91CF911F910F9165
:1003B0000895FC01818D228D90E0805C9F4F821B0F
:1003C00091098F7399270895FC01918D828D98175B
:1003D00031F0828DE80FF11D858D90E008958FEF4B
:1003E0009FEF0895FC01918D828D981761F0828DA9
:1003F000DF01A80FB11D5D968C91928D9F5F9F7359
:10040000928F90E008958FEF9FEF089586E793E035
:10041000892B49F080E090E0892B29F00E94760337
:1004200081110C9400000895FC01848DDF01A80F58
:10043000B11DA35ABF4F2C91848D90E001968F730C
:100440009927848FA689B7892C93A089B1898C912B
:1004500080648C93938D848D981306C00288F389F1
:10046000E02D80818F7D80830895CF93DF93EC0111
:10047000888D8823C9F0EA89FB89808185FD05C0C4
:10048000A889B9898C9186FD0FC00FB607FCF5CFFE
:10049000808185FFF2CFA889B9898C9185FFEDCF46
:1004A000CE010E941402E7CFDF91CF910895CF9241
:1004B000DF92FF920F931F93CF93DF931F92CDB7DD
:1004C000DEB76C0181E0D60158968C9358975B9605
:1004D0009C915B975C968C915C97981307C05096A3
:1004E000ED91FC915197808185FD2EC0F601038D21
:1004F00010E00F5F1F4F0F731127F02EF601848D50
:10050000F81211C00FB607FCF9CFD6015096ED9145
:10051000FC915197808185FFF1CFC60169830E94CC
:1005200014026981EBCF838DE80FF11DE35AFF4F71
:100530006083D6015B960C935B975296ED91FC918C
:100540005397808180620CC0D6015696ED91FC9144
:10055000579760835096ED91FC915197808180640C
:10056000808381E090E00F90DF91CF911F910F91F8
:10057000FF90DF90CF900895BF92CF92DF92EF92DD
:10058000FF92CF93DF93EC016A017B01B22EE889E1
:10059000F98982E08083411581EE58076105710574
:1005A000A1F060E079E08DE390E0A70196010E9460
:1005B0005C052150310941095109569547953795F8
:1005C0002795211580E1380798F0E889F98910828C
:1005D00060E874E88EE190E0A70196010E945C0556
:1005E000215031094109510956954795379527956D
:1005F000EC85FD853083EE85FF852083188EEC89A0
:10060000FD89B082EA89FB89808180618083EA89E3
:10061000FB89808188608083EA89FB89808180688A
:100620008083EA89FB8980818F7D8083DF91CF91F0
:10063000FF90EF90DF90CF90BF9008951F920F92A0
:100640000FB60F9211242F938F939F93EF93FF93E5
:10065000E0913A01F0913B018081E0914001F091FD
:10066000410182FD12C09081809143018F5F8F73A1
:1006700020914401821751F0E0914301F0E0E65DE2
:10068000FE4F958F8093430101C08081FF91EF91D0
:100690009F918F912F910F900FBE0F901F901895E3
:1006A0001F920F920FB60F9211242F933F934F93E7
:1006B0005F936F937F938F939F93AF93BF93EF93CA
:1006C000FF938AE291E00E941402FF91EF91BF91A3
:1006D000AF919F918F917F916F915F914F913F91DA
:1006E0002F910F900FBE0F901F9018958AE291E006
:1006F0000E94D90121E0892B09F420E0822F08957E
:1007000010922D0110922C0188EE93E0A0E0B0E051
:1007100080932E0190932F01A0933001B09331016B
:1007200084E091E090932B0180932A0185EC90E086
:10073000909337018093360184EC90E090933901D7
:100740008093380180EC90E090933B0180933A01D4
:1007500081EC90E090933D0180933C0182EC90E02D
:1007600090933F0180933E0186EC90E0909341018D
:100770008093400110924301109244011092450170
:1007800010924601089508950E9421050E94C30316
:100790000E949100C6E0D2E00E94A9002097E1F3F8
:1007A0000E940602F9CFCF92DF92EF92FF920F9351
:1007B0001F93CF93DF936C017A01EB01E60EF71ED6
:1007C00000E010E0CE15DF0561F06991D601ED91F2
:1007D000FC910190F081E02DC6010995080F191FC9
:1007E000F1CFC801DF91CF911F910F91FF90EF9052
:1007F000DF90CF9008956115710581F0DB010D90B8
:100800000020E9F7AD0141505109461B570BDC01AF
:10081000ED91FC910280F381E02D099480E090E05D
:100820000895DC01ED91FC910190F081E02D099497
:1008300060E171E00C94FB038F929F92AF92BF92A4
:10084000CF92DF92EF92FF920F931F93CF93DF939C
:10085000CDB7DEB7A1970FB6F894DEBF0FBECDBF00
:100860007C01C42EE52FCB01D22E19A221E02D153B
:1008700010F02AE0D22E8E010F5D1F4F8D2C912C8F
:10088000A12CB12C6C2D7E2FA50194010E945C053A
:100890008C2DD29E80191124015011098A3014F434
:1008A000805D01C0895CF801808321153105410517
:1008B000510521F0C22EE32FCA01E4CFB801C701D0
:1008C0000E94FB03A1960FB6F894DEBF0FBECDBF0A
:1008D000DF91CF911F910F91FF90EF90DF90CF901C
:1008E000BF90AF909F908F900895CF92DF92EF923C
:1008F000FF920F931F93CF93DF93EC016A017B016B
:100900002115310579F4E881F9810190F081E02D1C
:10091000642FDF91CF911F910F91FF90EF90DF90A7
:10092000CF9009942A303105E9F477FF1AC06DE2BF
:100930000E9411048C0144275527BA014C195D0906
:100940006E097F092AE0CE010E941C04800F911FCE
:10095000DF91CF911F910F91FF90EF90DF90CF909B
:1009600008952AE0B701A601CE01DF91CF911F9132
:100970000F91FF90EF90DF90CF900C941C040F9399
:100980001F93CF93DF93EC019A01AB01662757FDCC
:100990006095762F0E9475048C01CE010E94180488
:1009A000800F911FDF91CF911F910F9108951F929A
:1009B0000F920FB60F9211242F933F938F939F9313
:1009C000AF93BF938091C8019091C901A091CA01D2
:1009D000B091CB013091C70123E0230F2D3720F4D4
:1009E0000196A11DB11D05C026E8230F0296A11D89
:1009F000B11D2093C7018093C8019093C901A093B2
:100A0000CA01B093CB018091CC019091CD01A0910E
:100A1000CE01B091CF010196A11DB11D8093CC01F3
:100A20009093CD01A093CE01B093CF01BF91AF9130
:100A30009F918F913F912F910F900FBE0F901F901C
:100A40001895789484B5826084BD84B5816084BD36
:100A500085B5826085BD85B5816085BDEEE6F0E037
:100A6000808181608083E1E8F0E010828081826093
:100A70008083808181608083E0E8F0E08081816014
:100A80008083E1EBF0E0808184608083E0EBF0E044
:100A9000808181608083EAE7F0E0808184608083E8
:100AA0008081826080838081816080838081806892
:100AB00080831092C1000895A1E21A2EAA1BBB1BCD
:100AC000FD010DC0AA1FBB1FEE1FFF1FA217B3071A
:100AD000E407F50720F0A21BB30BE40BF50B661F30
:100AE000771F881F991F1A9469F7609570958095F4
:100AF00090959B01AC01BD01CF010895EE0FFF1F42
:0C0B00000590F491E02D0994F894FFCFCB
:100B0C00000000005702D303D901F201E4013502C1
:100B1C000D0A006E616E00696E66006F7666002EBF
:020B2C000000C7
:00000001FF
