:100000000C9435000C945D000C945D000C945D0024
:100010000C945D000C945D000C945D000C945D00EC
:100020000C945D000C945D000C945D000C945D00DC
:100030000C945D000C945D000C945D000C945D00CC
:100040000C94C5000C945D000C94F7020C942903E9
:100050000C945D000C945D000C945D000C945D00AC
:100060000C945D000C945D00590311241FBECFEF6A
:10007000D8E0DEBFCDBF11E0A0E0B1E0EAECF9E0EE
:1000800002C005900D92A633B107D9F721E0A6E38F
:10009000B1E001C01D92A23EB207E1F710E0CAE64E
:1000A000D0E004C02297FE010E94DF04C836D107C9
:1000B000C9F70E949D030C94E3040C94000026E011
:1000C00040E855E260E070E085E491E00C94950230
:1000D0008EE00E9495012091040130910501821B60
:1000E000930B90933B0180933A018FE00E9495011E
:1000F0002091020130910301821B930B90933901EF
:100100008093380180E10E94950120910001309197
:100110000101821B930B909337018093360167E0B6
:1001200071E085E491E00E94EA0360913A017091E8
:100130003B014AE050E085E491E00E949A046BE0C4
:1001400071E085E491E00E94EA03609138017091CA
:1001500039014AE050E085E491E00E949A0460E1B0
:1001600071E085E491E00E94EA03609136017091AC
:1001700037014AE050E085E491E00E94A20464E681
:1001800070E080E090E00C9432011F920F920FB665
:100190000F9211242F933F938F939F93AF93BF930D
:1001A00080913D0190913E01A0913F01B0914001AD
:1001B00030913C0123E0230F2D3720F40196A11D3F
:1001C000B11D05C026E8230F0296A11DB11D209385
:1001D0003C0180933D0190933E01A0933F01B09379
:1001E00040018091410190914201A0914301B09161
:1001F00044010196A11DB11D8093410190934201DC
:10020000A0934301B0934401BF91AF919F918F910F
:100210003F912F910F900FBE0F901F9018953FB7F1
:10022000F8948091410190914201A0914301B091D5
:10023000440126B5A89B05C02F3F19F00196A11DCA
:10024000B11D3FBF6627782F892F9A2F620F711D2E
:10025000811D911D42E0660F771F881F991F4A95E7
:10026000D1F70895CF92DF92EF92FF92CF93DF9371
:100270006B017C010E940F01EB01C114D104E10468
:10028000F10489F00E94BA040E940F016C1B7D0BDF
:10029000683E734090F381E0C81AD108E108F10884
:1002A000C851DC4FEACFDF91CF91FF90EF90DF9004
:1002B000CF900895789484B5826084BD84B58160C0
:1002C00084BD85B5826085BD85B5816085BDEEE65E
:1002D000F0E0808181608083E1E8F0E0108280813D
:1002E00082608083808181608083E0E8F0E08081AB
:1002F00081608083E1EBF0E0808184608083E0EBCB
:10030000F0E0808181608083EAE7F0E080818460B2
:10031000808380818260808380818160808380810E
:10032000806880831092C10008958E3008F08E504E
:1003300087702091060190E4299F90011124822B5F
:1003400080937C0080917A00806480937A00809111
:100350007A0086FDFCCF809178002091790090E0B2
:10036000922B0895FC01818D228D90E0805C9F4F3F
:10037000821B91098F7399270895FC01918D828DBD
:10038000981731F0828DE80FF11D858D90E008956A
:100390008FEF9FEF0895FC01918D828D981761F08A
:1003A000828DDF01A80FB11D5D968C91928D9F5FAC
:1003B0009F73928F90E008958FEF9FEF08958FE4E1
:1003C00093E0892B49F080E090E0892B29F00E948E
:1003D0004F0381110C9400000895FC01848DDF010E
:1003E000A80FB11DA35ABF4F2C91848D90E00196A8
:1003F0008F739927848FA689B7892C93A089B18997
:100400008C9180648C93938D848D981306C00288A0
:10041000F389E02D80818F7D80830895CF93DF93D2
:10042000EC01888D8823C9F0EA89FB89808185FDEC
:1004300005C0A889B9898C9186FD0FC00FB607FC4D
:10044000F5CF808185FFF2CFA889B9898C9185FF8E
:10045000EDCFCE010E94ED01E7CFDF91CF9108955E
:10046000CF92DF92FF920F931F93CF93DF931F9250
:10047000CDB7DEB76C0181E0D60158968C935897C2
:100480005B969C915B975C968C915C97981307C0E8
:100490005096ED91FC915197808185FD2EC0F6011B
:1004A000038D10E00F5F1F4F0F731127F02EF60121
:1004B000848DF81211C00FB607FCF9CFD601509603
:1004C000ED91FC915197808185FFF1CFC601698341
:1004D0000E94ED016981EBCF838DE80FF11DE35A96
:1004E000FF4F6083D6015B960C935B975296ED911C
:1004F000FC915397808180620CC0D6015696ED9195
:10050000FC91579760835096ED91FC9151978081B3
:100510008064808381E090E00F90DF91CF911F9104
:100520000F91FF90DF90CF900895BF92CF92DF920E
:10053000EF92FF92CF93DF93EC016A017B01B22E21
:10054000E889F98982E08083411581EE58076105C9
:100550007105A1F060E079E08DE390E0A7019601DC
:100560000E94BB0421503109410951095695479514
:1005700037952795211580E1380798F0E889F989A2
:10058000108260E874E88EE190E0A70196010E9475
:10059000BB042150310941095109569547953795BA
:1005A0002795EC85FD853083EE85FF852083188EA9
:1005B000EC89FD89B082EA89FB8980818061808332
:1005C000EA89FB89808188608083EA89FB89808150
:1005D00080688083EA89FB8980818F7D8083DF91B9
:1005E000CF91FF90EF90DF90CF90BF9008951F9232
:1005F0000F920FB60F9211242F938F939F93EF9327
:10060000FF93E0915501F09156018081E0915B01EB
:10061000F0915C0182FD12C0908180915E018F5F3C
:100620008F7320915F01821751F0E0915E01F0E03D
:10063000EB5BFE4F958F80935E0101C08081FF913F
:10064000EF919F918F912F910F900FBE0F901F9060
:1006500018951F920F920FB60F9211242F933F936C
:100660004F935F936F937F938F939F93AF93BF93BA
:10067000EF93FF9385E491E00E94ED01FF91EF91EC
:10068000BF91AF919F918F917F916F915F914F91AA
:100690003F912F910F900FBE0F901F90189585E4FA
:1006A00091E00E94B20121E0892B09F420E0822F21
:1006B0000895109248011092470188EE93E0A0E05F
:1006C000B0E08093490190934A01A0934B01B0930D
:1006D0004C0189E191E0909346018093450185ECBE
:1006E00090E0909352018093510184EC90E09093BC
:1006F00054018093530180EC90E0909356018093D5
:10070000550181EC90E0909358018093570182EC61
:1007100090E090935A018093590186EC90E0909379
:100720005C0180935B0110925E0110925F01109258
:10073000600110926101089508950E945A010E947B
:100740009C030E945F00CFEDD1E00E9468002097DB
:10075000E1F30E94DF01F9CFCF92DF92EF92FF9297
:100760000F931F93CF93DF936C017A01EB01E60E99
:10077000F71E00E010E0CE15DF0561F06991D601AB
:10078000ED91FC910190F081E02DC6010995080FD3
:10079000191FF1CFC801DF91CF911F910F91FF90E9
:1007A000EF90DF90CF9008956115710581F0DB0126
:1007B0000D900020E9F7AD0141505109461B570B40
:1007C000DC01ED91FC910280F381E02D099480E041
:1007D00090E008950C94D403DC01ED91FC9101901C
:1007E000F081E02D099465E271E00C94D4038F92BE
:1007F0009F92AF92BF92CF92DF92EF92FF920F93B0
:100800001F93CF93DF93CDB7DEB7A1970FB6F894C0
:10081000DEBF0FBECDBF7C01C42EE52FCB01D22E93
:1008200019A221E02D1510F02AE0D22E8E010F5DC5
:100830001F4F8D2C912CA12CB12C6C2D7E2FA5013E
:1008400094010E94BB048C2DD29E8019112401506A
:1008500011098A3014F4805D01C0895CF80180833D
:10086000211531054105510521F0C22EE32FCA01A2
:10087000E4CFB801C7010E94D403A1960FB6F89443
:10088000DEBF0FBECDBFDF91CF911F910F91FF90C3
:10089000EF90DF90CF90BF90AF909F908F90089592
:1008A000CF92DF92EF92FF920F931F93CF93DF933C
:1008B000EC016A017B012115310579F4E881F981A8
:1008C0000190F081E02D642FDF91CF911F910F9166
:1008D000FF90EF90DF90CF9009942A303105E9F432
:1008E00077FF1AC06DE20E94EC038C014427552764
:1008F000BA014C195D096E097F092AE0CE010E94F8
:10090000F703800F911FDF91CF911F910F91FF90FF
:10091000EF90DF90CF9008952AE0B701A601CE01B5
:10092000DF91CF911F910F91FF90EF90DF90CF90CB
:100930000C94F7039A01AB01662757FD6095762F5B
:100940000C9450040F931F93CF93DF93EC019A0103
:10095000AB01662757FD6095762F0E9450048C01ED
:10096000CE010E94F303800F911FDF91CF911F9161
:100970000F9108950895A1E21A2EAA1BBB1BFD0139
:100980000DC0AA1FBB1FEE1FFF1FA217B307E4076E
:10099000F50720F0A21BB30BE40BF50B661F771FC6
:1009A000881F991F1A9469F76095709580959095A6
:1009B0009B01AC01BD01CF010895EE0FFF1F059013
:0A09C000F491E02D0994F894FFCFA4
:1009CA005E015501280101583A200020593A2000B9
:1009DA00205A3A2000000000003002AC03B201CBDA
:1009EA0001BD010E020D0A006E616E00696E66009D
:0609FA006F7666002E007E
:00000001FF
