:100000000C945D000C94DD000C940A010C948500A6
:100010000C9485000C9485000C9485000C9485004C
:100020000C9485000C9485000C9485000C9485003C
:100030000C9485000C9485000C9485000C9485002C
:100040000C9437010C9485000C94E4030C94160472
:100050000C9485000C9485000C9485000C9485000C
:100060000C9485000C94850000000008000201003B
:100070000003040700000000000000000102040863
:100080001020408001020408102001020408102002
:10009000040404040404040402020202020203032E
:1000A0000303030300000000250028002B000000CC
:1000B0000000240027002A00460411241FBECFEFB1
:1000C000D8E0DEBFCDBF11E0A0E0B1E0E0E9FBE0A9
:1000D00002C005900D92A232B107D9F721E0A2E249
:1000E000B1E001C01D92AE3CB207E1F710E0CAEBEF
:1000F000D0E004C02297FE010E94C205C83BD10790
:10010000C9F70E948A040C94C6050C9400008091E3
:100110002201909123010196909323018093220163
:10012000089526E040E855E260E070E081E391E068
:100130000E94820343E050E067E870E081E00E94A3
:10014000BD0060E08DE00C9430026091220170915E
:1001500023014AE050E081E391E00E94850561E0DF
:100160008DE00E94690264EF71E080E090E00E94FF
:10017000A40160E08DE00C9469028230E8F4E82F7D
:10018000F0E0EE0FFF1FEC5DFE4F71836083813066
:1001900041F0809169008C7F842B80936900E89AFC
:1001A000089580916900440F551F440F551F837FA8
:1001B000842B80936900E99A08951F920F920FB6DD
:1001C0000F9211242F933F934F935F936F937F93DD
:1001D0008F939F93AF93BF93EF93FF9380912401ED
:1001E00090912501892B29F0E0912401F0912501BE
:1001F0000995FF91EF91BF91AF919F918F917F9161
:100200006F915F914F913F912F910F900FBE0F9083
:100210001F9018951F920F920FB60F9211242F93D3
:100220003F934F935F936F937F938F939F93AF937E
:10023000BF93EF93FF938091260190912701892B23
:1002400029F0E0912601F09127010995FF91EF91A6
:10025000BF91AF919F918F917F916F915F914F91DE
:100260003F912F910F900FBE0F901F9018951F92E6
:100270000F920FB60F9211242F933F938F939F935A
:10028000AF93BF938091290190912A01A0912B01F6
:10029000B0912C013091280123E0230F2D3720F459
:1002A0000196A11DB11D05C026E8230F0296A11DD0
:1002B000B11D209328018093290190932A01A093D6
:1002C0002B01B0932C0180912D0190912E01A091D2
:1002D0002F01B09130010196A11DB11D80932D0118
:1002E00090932E01A0932F01B0933001BF91AF9155
:1002F0009F918F913F912F910F900FBE0F901F9064
:1003000018953FB7F89480912D0190912E01A091FE
:100310002F01B091300126B5A89B05C02F3F19F0E1
:100320000196A11DB11D3FBF6627782F892F9A2FF7
:10033000620F711D811D911D42E0660F771F881F9E
:10034000991F4A95D1F70895CF92DF92EF92FF92CD
:10035000CF93DF936B017C010E948101EB01C114FB
:10036000D104E104F10489F00E949D050E948101FD
:100370006C1B7D0B683E734090F381E0C81AD10876
:10038000E108F108C851DC4FEACFDF91CF91FF902F
:10039000EF90DF90CF900895789484B5826084BD0B
:1003A00084B5816084BD85B5826085BD85B5816079
:1003B00085BDEEE6F0E0808181608083E1E8F0E0D9
:1003C0001082808182608083808181608083E0E808
:1003D000F0E0808181608083E1EBF0E080818460E7
:1003E0008083E0EBF0E0808181608083EAE7F0E0E9
:1003F000808184608083808182608083808181604D
:1004000080838081806880831092C100089583304A
:1004100081F028F4813099F08230A1F0089587307E
:10042000A9F08830B9F08430D1F4809180008F7DBC
:1004300003C0809180008F7780938000089584B5F9
:100440008F7702C084B58F7D84BD08958091B00000
:100450008F7703C08091B0008F7D8093B0000895A6
:10046000CF93DF9390E0FC01E458FF4F2491FC010F
:10047000E057FF4F8491882349F190E0880F991F3E
:10048000FC01E255FF4FA591B4918C559F4FFC01A3
:10049000C591D4919FB7611108C0F8948C912095B3
:1004A00082238C93888182230AC0623051F4F894AD
:1004B0008C91322F309583238C938881822B888373
:1004C00004C0F8948C91822B8C939FBFDF91CF91C5
:1004D00008950F931F93CF93DF931F92CDB7DEB78D
:1004E000282F30E0F901E859FF4F8491F901E458D1
:1004F000FF4F1491F901E057FF4F04910023C9F019
:10050000882321F069830E9407026981E02FF0E0CF
:10051000EE0FFF1FEC55FF4FA591B4919FB7F894D4
:100520008C91611103C01095812301C0812B8C93A4
:100530009FBF0F90DF91CF911F910F910895FC0104
:10054000818D228D90E0805C9F4F821B91098F737B
:1005500099270895FC01918D828D981731F0828D35
:10056000E80FF11D858D90E008958FEF9FEF0895BE
:10057000FC01918D828D981761F0828DDF01A80FAB
:10058000B11D5D968C91928D9F5F9F73928F90E0CD
:1005900008958FEF9FEF08958CE394E0892B49F045
:1005A00080E090E0892B29F00E943C0481110C949A
:1005B00000000895FC01848DDF01A80FB11DA35A2E
:1005C000BF4F2C91848D90E001968F739927848F73
:1005D000A689B7892C93A089B1898C9180648C936A
:1005E000938D848D981306C00288F389E02D808155
:1005F0008F7D80830895CF93DF93EC01888D8823CE
:10060000C9F0EA89FB89808185FD05C0A889B9897F
:100610008C9186FD0FC00FB607FCF5CF808185FF5A
:10062000F2CFA889B9898C9185FFEDCFCE010E94C8
:10063000DA02E7CFDF91CF910895CF92DF92FF9258
:100640000F931F93CF93DF931F92CDB7DEB76C014B
:1006500081E0D60158968C9358975B969C915B9756
:100660005C968C915C97981307C05096ED91FC9125
:100670005197808185FD2EC0F601038D10E00F5F3C
:100680001F4F0F731127F02EF601848DF81211C041
:100690000FB607FCF9CFD6015096ED91FC9151971A
:1006A000808185FFF1CFC60169830E94DA026981EA
:1006B000EBCF838DE80FF11DE35AFF4F6083D60126
:1006C0005B960C935B975296ED91FC9153978081CA
:1006D00080620CC0D6015696ED91FC9157976083CD
:1006E0005096ED91FC91519780818064808381E0E8
:1006F00090E00F90DF91CF911F910F91FF90DF90CD
:10070000CF900895BF92CF92DF92EF92FF92CF9356
:10071000DF93EC016A017B01B22EE889F98982E05E
:100720008083411581EE580761057105A1F060E0F5
:1007300079E08DE390E0A70196010E949E0521508B
:100740003109410951095695479537952795211546
:1007500080E1380798F0E889F989108260E874E848
:100760008EE190E0A70196010E949E05215031097B
:10077000410951095695479537952795EC85FD8593
:100780003083EE85FF852083188EEC89FD89B08249
:10079000EA89FB89808180618083EA89FB89808185
:1007A00088608083EA89FB89808180688083EA8908
:1007B000FB8980818F7D8083DF91CF91FF90EF90C7
:1007C000DF90CF90BF9008951F920F920FB60F92B7
:1007D00011242F938F939F93EF93FF93E091410107
:1007E000F09142018081E0914701F091480182FD42
:1007F00012C0908180914A018F5F8F7320914B01CD
:10080000821751F0E0914A01F0E0EF5CFE4F958FC6
:1008100080934A0101C08081FF91EF919F918F9158
:100820002F910F900FBE0F901F9018951F920F924F
:100830000FB60F9211242F933F934F935F936F93B3
:100840007F938F939F93AF93BF93EF93FF9381E336
:1008500091E00E94DA02FF91EF91BF91AF919F91D9
:100860008F917F916F915F914F913F912F910F9059
:100870000FBE0F901F90189581E391E00E949F0298
:1008800021E0892B09F420E0822F08951092340191
:100890001092330188EE93E0A0E0B0E08093350140
:1008A00090933601A0933701B093380184E091E032
:1008B000909332018093310185EC90E090933E015A
:1008C00080933D0184EC90E09093400180933F0140
:1008D00080EC90E0909342018093410181EC90E0A4
:1008E000909344018093430182EC90E09093460101
:1008F0008093450186EC90E09093480180934701F6
:1009000010924A0110924B0110924C0110924D012D
:10091000089508950E94CC010E9489040E949100CC
:10092000CCECD2E00E94A5002097E1F30E94CC021B
:10093000F9CFCF92DF92EF92FF920F931F93CF9355
:10094000DF936C017A01EB01E60EF71E00E010E088
:10095000CE15DF0561F06991D601ED91FC91019012
:10096000F081E02DC6010995080F191FF1CFC801CC
:10097000DF91CF911F910F91FF90EF90DF90CF907B
:1009800008956115710581F0DB010D900020E9F7F4
:10099000AD0141505109461B570BDC01ED91FC9113
:1009A0000280F381E02D099480E090E00895DC015D
:1009B000ED91FC910190F081E02D099460E171E0EE
:1009C0000C94C1048F929F92AF92BF92CF92DF920C
:1009D000EF92FF920F931F93CF93DF93CDB7DEB7C4
:1009E000A1970FB6F894DEBF0FBECDBF7C01C42E19
:1009F000E52FCB01D22E19A221E02D1510F02AE00F
:100A0000D22E8E010F5D1F4F8D2C912CA12CB12C5D
:100A10006C2D7E2FA50194010E949E058C2DD29EE7
:100A200080191124015011098A3014F4805D01C02D
:100A3000895CF8018083211531054105510521F0BC
:100A4000C22EE32FCA01E4CFB801C7010E94C1043E
:100A5000A1960FB6F894DEBF0FBECDBFDF91CF9148
:100A60001F910F91FF90EF90DF90CF90BF90AF90CC
:100A70009F908F900895CF92DF92EF92FF920F9305
:100A80001F93CF93DF93EC016A017B0121153105A0
:100A900079F4E881F9810190F081E02D642FDF91F4
:100AA000CF911F910F91FF90EF90DF90CF9009941D
:100AB0002A303105E9F477FF1AC06DE20E94D704AD
:100AC0008C0144275527BA014C195D096E097F092D
:100AD0002AE0CE010E94E204800F911FDF91CF91A6
:100AE0001F910F91FF90EF90DF90CF9008952AE033
:100AF000B701A601CE01DF91CF911F910F91FF9019
:100B0000EF90DF90CF900C94E2040F931F93CF935C
:100B1000DF93EC019A01AB01662757FD6095762FB4
:100B20000E943B058C01CE010E94DE04800F911FC4
:100B3000DF91CF911F910F9108950895A1E21A2E90
:100B4000AA1BBB1BFD010DC0AA1FBB1FEE1FFF1F71
:100B5000A217B307E407F50720F0A21BB30BE40BC1
:100B6000F50B661F771F881F991F1A9469F7609508
:100B70007095809590959B01AC01BD01CF010895C2
:100B8000EE0FFF1F0590F491E02D0994F894FFCF2C
:100B9000000000001D0399049F02B802AA02FB0294
:100BA0000D0A006E616E00696E66006F7666002E3B
:020BB000000043
:00000001FF
