:100000000C945D000C9485000C9485000C94850084
:100010000C9485000C9485000C9485000C9485004C
:100020000C9485000C9485000C9485000C9485003C
:100030000C9485000C9485000C9485000C9485002C
:100040000C9405060C9485000C9486030C94B8035C
:100050000C9485000C9485000C9485000C9485000C
:100060000C9485000C94850000000008000201003B
:100070000003040700000000000000000102040863
:100080001020408001020408102001020408102002
:10009000040404040404040402020202020203032E
:1000A0000303030300000000250028002B000000CC
:1000B0000000240027002A00E80311241FBECFEF10
:1000C000D8E0DEBFCDBF11E0A0E0B1E0EAEEF2E1A2
:1000D00002C005900D92AE33B107D9F721E0AEE32F
:1000E000B1E001C01D92AE3EB207E1F710E0CAEBED
:1000F000D0E004C02297FE010E94E806C83BD10769
:10010000C9F70E942C040C9473090C94000061E060
:1001100083E00E94D20126E040E855E260E070E012
:1001200084E491E00C942403AF92BF92CF92DF92CB
:10013000EF92FF920F931F93CF93DF93CDB7DEB76C
:1001400062970FB6F894DEBF0FBECDBF8EE00E945F
:100150002D01BC01909343018093420180914001A5
:10016000909141019B01281B390BC90137FF03C046
:100170009195819591090B970CF45EC070934101A4
:1001800060934001882777FD8095982F1F921F92DA
:100190001F922FEF2F93A12CB12C6501E12C14E0BD
:1001A000F12E00E010E020E030E0A9010E949D0463
:1001B00070933F0160933E014AE0CE0101960E9498
:1001C000800560914001709141014AE0CE010D9699
:1001D0000E9480056BE071E0CE0107960E945205F7
:1001E000BE01635F7F4FCE0107960E94D80562E192
:1001F00071E00E94EB05BE016F5F7F4F0E94D80542
:10020000BC0184E491E00E948B04CE0107960E9419
:10021000E404CE010D960E94E404CE0101960E94F2
:10022000E40460913E0170913F0183E00E944A0125
:100230000F900F900F900F9062960FB6F894DEBF5C
:100240000FBECDBFDF91CF911F910F91FF90EF9027
:10025000DF90CF90BF90AF9008958E3008F08E5011
:10026000877020910A0190E4299F90011124822B2C
:1002700080937C0080917A00806480937A008091E2
:100280007A0086FDFCCF809178002091790090E083
:10029000922B08951F93CF93DF93182FEB0161E00A
:1002A0000E94D201209711F460E004C0CF3FD10535
:1002B00039F461E0812FDF91CF911F910C940B02F3
:1002C000E12FF0E0E859FF4FE491E330F9F048F412
:1002D000E130B9F0E230A1F584B5806284BDC8BDDB
:1002E00034C0E730E9F0E83019F1E43049F58091A5
:1002F0008000806280938000D0938B00C0938A003E
:1003000024C084B5806884BDC7BD1FC080918000B3
:10031000806880938000D0938900C093880015C0C6
:100320008091B00080688093B000C093B3000DC08E
:100330008091B00080628093B000C093B40005C08B
:10034000C038D1050CF0B5CFAFCFDF91CF911F9161
:100350000895833081F028F4813099F08230A1F043
:1003600008958730A9F08830B9F08430D1F48091B5
:1003700080008F7D03C0809180008F778093800004
:10038000089584B58F7702C084B58F7D84BD0895AC
:100390008091B0008F7703C08091B0008F7D8093F3
:1003A000B0000895CF93DF9390E0FC01E458FF4F35
:1003B0002491FC01E057FF4F8491882349F190E09C
:1003C000880F991FFC01E255FF4FA591B4918C5500
:1003D0009F4FFC01C591D4919FB7611108C0F8945B
:1003E0008C91209582238C93888182230AC062306D
:1003F00051F4F8948C91322F309583238C9388811B
:10040000822B888304C0F8948C91822B8C939FBF9D
:10041000DF91CF9108950F931F93CF93DF931F9296
:10042000CDB7DEB7282F30E0F901E859FF4F8491AE
:10043000F901E458FF4F1491F901E057FF4F04917F
:100440000023C9F0882321F069830E94A9016981F2
:10045000E02FF0E0EE0FFF1FEC55FF4FA591B49198
:100460009FB7F8948C91611103C01095812301C04E
:10047000812B8C939FBF0F90DF91CF911F910F9194
:100480000895FC01818D228D90E0805C9F4F821B3E
:1004900091098F7399270895FC01918D828D98178A
:1004A00031F0828DE80FF11D858D90E008958FEF7A
:1004B0009FEF0895FC01918D828D981761F0828DD8
:1004C000DF01A80FB11D5D968C91928D9F5F9F7388
:1004D000928F90E008958FEF9FEF08958EED93E057
:1004E000892B49F080E090E0892B29F00E94DE03FF
:1004F00081110C9400000895FC01848DDF01A80F88
:10050000B11DA35ABF4F2C91848D90E001968F733B
:100510009927848FA689B7892C93A089B1898C915A
:1005200080648C93938D848D981306C00288F38920
:10053000E02D80818F7D80830895CF93DF93EC0140
:10054000888D8823C9F0EA89FB89808185FD05C0F3
:10055000A889B9898C9186FD0FC00FB607FCF5CF2D
:10056000808185FFF2CFA889B9898C9185FFEDCF75
:10057000CE010E947C02E7CFDF91CF910895CF9208
:10058000DF92FF920F931F93CF93DF931F92CDB70C
:10059000DEB76C0181E0D60158968C9358975B9634
:1005A0009C915B975C968C915C97981307C05096D2
:1005B000ED91FC915197808185FD2EC0F601038D50
:1005C00010E00F5F1F4F0F731127F02EF601848D7F
:1005D000F81211C00FB607FCF9CFD6015096ED9175
:1005E000FC915197808185FFF1CFC60169830E94FC
:1005F0007C026981EBCF838DE80FF11DE35AFF4F39
:100600006083D6015B960C935B975296ED91FC91BB
:100610005397808180620CC0D6015696ED91FC9173
:10062000579760835096ED91FC915197808180643B
:10063000808381E090E00F90DF91CF911F910F9127
:10064000FF90DF90CF900895BF92CF92DF92EF920C
:10065000FF92CF93DF93EC016A017B01B22EE88910
:10066000F98982E08083411581EE580761057105A3
:10067000A1F060E079E08DE390E0A70196010E948F
:100680009A062150310941095109569547953795E8
:100690002795211580E1380798F0E889F9891082BB
:1006A00060E874E88EE190E0A70196010E949A0646
:1006B000215031094109510956954795379527959C
:1006C000EC85FD853083EE85FF852083188EEC89CF
:1006D000FD89B082EA89FB89808180618083EA8913
:1006E000FB89808188608083EA89FB8980818068BA
:1006F0008083EA89FB8980818F7D8083DF91CF9120
:10070000FF90EF90DF90CF90BF9008951F920F92CF
:100710000FB60F9211242F938F939F93EF93FF9314
:10072000E0915401F09155018081E0915A01F091DE
:100730005B0182FD12C0908180915D018F5F8F739C
:1007400020915E01821751F0E0915D01F0E0EC5BD9
:10075000FE4F958F80935D0101C08081FF91EF91E5
:100760009F918F912F910F900FBE0F901F90189512
:100770001F920F920FB60F9211242F933F934F9316
:100780005F936F937F938F939F93AF93BF93EF93F9
:10079000FF9384E491E00E947C02FF91EF91BF916E
:1007A000AF919F918F917F916F915F914F913F9109
:1007B0002F910F900FBE0F901F90189584E491E039
:1007C0000E94410221E0892B09F420E0822F089544
:1007D000109247011092460188EE93E0A0E0B0E04D
:1007E0008093480190934901A0934A01B0934B0133
:1007F00080E291E0909345018093440185EC90E084
:10080000909351018093500184EC90E090935301B8
:100810008093520180EC90E09093550180935401B5
:1008200081EC90E0909357018093560182EC90E028
:10083000909359018093580186EC90E090935B016E
:1008400080935A0110925D0110925E0110925F0137
:1008500010926001089508950E944F060E942B0493
:100860000E948700CEE6D2E00E9494002097E1F338
:100870000E946E02F9CFCF92DF92EF92FF920F9318
:100880001F93CF93DF936C017A01EB01E60EF71E05
:1008900000E010E0CE15DF0561F06991D601ED9121
:1008A000FC910190F081E02DC6010995080F191FF8
:1008B000F1CFC801DF91CF911F910F91FF90EF9081
:1008C000DF90CF9008956115710581F0DB010D90E7
:1008D0000020E9F7AD0141505109461B570BDC01DF
:1008E000ED91FC910280F381E02D099480E090E08D
:1008F0000895DC01ED91FC91DB0114964D915C9122
:1009000015976D917C910280F381E02D09946CE242
:1009100071E00C9463040F931F93CF93DF93EC016A
:100920000E9479048C01CE010E948704800F911FE0
:10093000DF91CF911F910F9108954F925F926F9227
:100940007F92AF92BF92CF92DF92EF92FF920F937E
:100950001F93CF93DF93CDB7DEB729013A01621B16
:10096000730B840B950B29893A894B895C892A1969
:100970003B094C095D09298B3A8B4B8B5C8B9B01A6
:10098000AC0169897A898B899C890E948A06E4185E
:10099000F50806091709A80197010E94BC062A0D4F
:1009A0003B1D4C1D5D1DCA01B901DF91CF911F9107
:1009B0000F91FF90EF90DF90CF90BF90AF907F901E
:1009C0006F905F904F900895FC01808191810C940D
:1009D0009307CF93DF93EC0188819981009711F001
:1009E0000E949307198218821D821C821B821A8220
:1009F000DF91CF9108950F931F93CF93DF93EC0175
:100A00008B016F5F7F4F888199810E942208009738
:100A100031F0998388831B830A8381E001C080E0E1
:100A2000DF91CF911F910F910895CF93DF93EC0148
:100A300088819981892B29F08A819B818617970764
:100A400060F4CE010E94FB04882341F08C819D81DB
:100A5000892B19F4E881F981108281E0DF91CF912F
:100A60000895EF92FF920F931F93CF93DF93EC01C2
:100A70007B018A01BA010E941505811104C0CE01D3
:100A80000E94E90407C01D830C83B7018881998106
:100A90000E94F508CE01DF91CF911F910F91FF9039
:100AA000EF900895FC011182108213821282158248
:100AB00014826115710559F0FB0101900020E9F7DE
:100AC000AF0141505109461B570B0C943105089555
:100AD000CF93DF93EC016115710561F0FB0101908B
:100AE0000020E9F7AF0141505109461B570B0E9406
:100AF000310502C00E94E904CE01DF91CF91089533
:100B00000F931F93CF93DF93CDB7DEB762970FB6E6
:100B1000F894DEBF0FBECDBF8C01CB01F80111826E
:100B20001082138212821582148250E0BE016F5F20
:100B30007F4F0E94FC08BE016F5F7F4FC8010E947B
:100B4000680562960FB6F894DEBF0FBECDBFDF9189
:100B5000CF911F910F910895EF92FF920F931F93E2
:100B6000CF93DF93EC017B010C811D816115710531
:100B700011F480E016C04115510591F0040F151FC6
:100B8000B8010E9415058823A1F3288139818C8141
:100B90009D81B701820F931F0E94F5081D830C836E
:100BA00081E0DF91CF911F910F91FF90EF90089519
:100BB000CF93DF93EC01FB0144815581608171810A
:100BC0000E94AC05811103C0CE010E94E904CE0150
:100BD000DF91CF910895CF93DF93EC0161157105FB
:100BE00069F0FB0101900020E9F7AF014150510984
:100BF000461B570B0E94AC05811103C0CE010E9419
:100C0000E904CE01DF91CF9108951F920F920FB6A4
:100C10000F9211242F933F938F939F93AF93BF9382
:100C20008091E2019091E301A091E401B091E5018E
:100C30003091E10123E0230F2D3720F40196A11D0F
:100C4000B11D05C026E8230F0296A11DB11D2093FA
:100C5000E1018093E2019093E301A093E401B0935A
:100C6000E5018091E6019091E701A091E801B09142
:100C7000E9010196A11DB11D8093E6019093E70162
:100C8000A093E801B093E901BF91AF919F918F913B
:100C90003F912F910F900FBE0F901F901895789451
:100CA00084B5826084BD84B5816084BD85B5826071
:100CB00085BD85B5816085BDEEE6F0E0808181600F
:100CC0008083E1E8F0E0108280818260808380810F
:100CD00081608083E0E8F0E0808181608083E1EBE7
:100CE000F0E0808184608083E0EBF0E080818160CF
:100CF0008083EAE7F0E08081846080838081826085
:100D0000808380818160808380818068808310926D
:100D1000C1000895DB018F939F930E94DB06BF9172
:100D2000AF91A29F800D911DA39F900DB29F900D3A
:100D300011240895A1E21A2EAA1BBB1BFD010DC0B0
:100D4000AA1FBB1FEE1FFF1FA217B307E407F5077B
:100D500020F0A21BB30BE40BF50B661F771F881F57
:100D6000991F1A9469F760957095809590959B01ED
:100D7000AC01BD01CF010895052E97FB1EF4009430
:100D80000E94D30657FD07D00E949A0607FC03D0A5
:100D90004EF40C94D30650954095309521953F4FD5
:100DA0004F4F5F4F089590958095709561957F4F57
:100DB0008F4F9F4F08950E94EC06A59F900DB49F02
:100DC000900DA49F800D911D11240895EE0FFF1F1B
:100DD0000590F491E02D0994A29FB001B39FC0014A
:100DE000A39F700D811D1124911DB29F700D811D57
:100DF0001124911D0895CF93DF938230910510F453
:100E000082E090E0E091EC01F091ED0120E030E033
:100E1000A0E0B0E0309739F140815181481759077F
:100E2000B8F04817590771F482819381109729F01F
:100E300013969C938E9312972CC09093ED01809300
:100E4000EC0127C02115310531F04217530718F086
:100E5000A901DB0101C0EF019A01BD01DF010280A0
:100E6000F381E02DD7CF21153105F9F0281B390B7F
:100E70002430310580F48A819B816115710521F050
:100E8000FB019383828304C09093ED018093EC0176
:100E9000FE01329644C0FE01E20FF31F819391934D
:100EA00022503109398328833AC02091EA013091D8
:100EB000EB01232B41F42091020130910301309387
:100EC000EB012093EA0120910001309101012115ED
:100ED000310541F42DB73EB7409104015091050111
:100EE000241B350BE091EA01F091EB01E217F307C7
:100EF000A0F42E1B3F0B2817390778F0AC014E5F8A
:100F00005F4F2417350748F04E0F5F1F5093EB01DA
:100F10004093EA018193919302C0E0E0F0E0CF01B9
:100F2000DF91CF910895CF93DF93009709F487C0A5
:100F3000FC01329713821282C091EC01D091ED0135
:100F4000209781F420813181280F391F8091EA0197
:100F50009091EB018217930779F5F093EB01E09301
:100F6000EA016DC0DE0120E030E0AE17BF0750F4AB
:100F700012964D915C9113979D014115510509F110
:100F8000DA01F3CFB383A28340815181840F951F8F
:100F90008A179B0771F48D919C911197840F951F6F
:100FA00002969183808312968D919C9113979383DF
:100FB00082832115310529F4F093ED01E093EC01D2
:100FC0003EC0D9011396FC93EE9312974D915D911B
:100FD000A40FB51FEA17FB0779F480819181840F74
:100FE000951F0296D90111969C938E9382819381CD
:100FF00013969C938E931297E0E0F0E08A819B8198
:10100000009719F0FE01EC01F9CFCE01029628817C
:101010003981820F931F2091EA013091EB0128174B
:10102000390769F4309729F41092ED011092EC0120
:1010300002C013821282D093EB01C093EA01DF91C8
:10104000CF910895A0E0B0E0E8E2F8E00C94400908
:10105000EC01CB01209719F40E94FB06B8C0FE01F9
:10106000E60FF71F9E0122503109E217F30708F43B
:10107000ACC0D9010D911C91119706171707B8F054
:101080000530110508F49FC0A801445051094617C6
:10109000570708F498C002501109061B170B01935B
:1010A00011936D937C93CF010E9493078CC05B01D9
:1010B000A01AB10A4E01800E911EA091EC01B091D0
:1010C000ED01612C712C60E070E0109709F449C0CB
:1010D000A815B905C9F5ED90FC901197670142E09C
:1010E000C40ED11CCA14DB0478F147018A189B088E
:1010F000640142E0C40ED11C1296BC901297139664
:10110000AC91B5E0CB16D10440F0B282A3839182BA
:101110008082D9018D939C9309C00E5F1F4F0E0DE5
:101120001F1DF90111830083EB2DFA2F6115710545
:1011300031F0DB011396FC93EE93129744C0F093C9
:10114000ED01E093EC013FC06D917C911197661623
:10115000770608F43B01BD0112960D90BC91A02DBD
:10116000B4CF6091EA017091EB0168157905E9F45B
:1011700068167906D0F440910001509101014115A3
:10118000510541F44DB75EB76091040170910501BE
:10119000461B570BE417F507C0F4F093EB01E093FF
:1011A000EA01F901918380830EC00E94FB067C0155
:1011B000009759F0A801BE010E94EC08CE010E94E0
:1011C0009307C70104C0CE0102C080E090E0CDB714
:1011D000DEB7EEE00C945C09FB01DC0102C001907B
:1011E0000D9241505040D8F70895FB01DC01019069
:1011F0000D920020E1F708954532510520F4423068
:1012000010F00C940709FB011082CB010895BB2755
:101210004A3031F4992322F4BDE2909581959F4F95
:101220000C941309BB27FB015527AA27880F991F88
:10123000AA1FA41710F0A41B83955051B9F7A05D05
:10124000AA3308F0A95DA193009779F7B111B19382
:101250001192CB010C942C09DC01FC01672F7191D8
:101260007723E1F7329704C07C916D93708362918C
:10127000AE17BF07C8F308952F923F924F925F9227
:101280006F927F928F929F92AF92BF92CF92DF9296
:10129000EF92FF920F931F93CF93DF93CDB7DEB7FB
:1012A000CA1BDB0B0FB6F894DEBF0FBECDBF09948F
:1012B0002A88398848885F846E847D848C849B84E6
:1012C000AA84B984C884DF80EE80FD800C811B81F4
:1012D000AA81B981CE0FD11D0FB6F894DEBF0FBE23
:0A12E000CDBFED010895F894FFCF93
:1012EA000000EE0180000100000001726561643AAD
:1012FA0020002C2077726974653A200000000000F3
:10130A00BF023B0441025A024C029D020D0A006EC2
:0E131A00616E00696E66006F7666002E000040
:00000001FF
