:100000000C9462000C947F000C947F000C947F0091
:100010000C947F000C947F000C947F000C94DD0105
:100020000C947F000C947F000C947F000C947F0054
:100030000C947F000C947F000C947F000C947F0044
:100040000C94C2000C947F000C947F000C947F00F1
:100050000C947F000C947F000C947F000C947F0024
:100060000C947F000C947F00020000000024002705
:10007000002A0000000000250028002B00000000DE
:1000800000230026002900040404040404040402DC
:100090000202020202030303030303010204081025
:1000A00020408001020408102001020408102000F2
:1000B0000000070002010000030406000000000029
:1000C0000000000011241FBECFEFD8E0DEBFCDBF7F
:1000D00011E0A0E0B1E0E8EEFCE002C005900D9276
:1000E000A232B107D9F711E0A2E2B1E001C01D923E
:1000F000A034B107E1F70E949E010C9472060C94A3
:1001000000000895EF92FF920F931F93CF93DF9318
:10011000C0E0D0E0FE01E05FFE4F6081718188EEBB
:1001200093E00E940E067B01FE01E050FF4F6081CC
:1001300071810027F7FC0095102F88E0A801970136
:100140000E943902C801B7010E94000526E636E682
:1001500046EA5FE30E9464050E94CD04882777FD8C
:100160008095982F0E940A0188E00E94C60122967D
:10017000C031D10579F6DF91CF911F910F91FF909A
:10018000EF9008951F920F920FB60F9211242F93A4
:100190003F938F939F93AF93BF938091260190914C
:1001A0002701A0912801B091290130912A010196DF
:1001B000A11DB11D232F2D5F2D3720F02D57019646
:1001C000A11DB11D20932A01809326019093270140
:1001D000A0932801B09329018091220190912301DD
:1001E000A0912401B09125010196A11DB11D80931C
:1001F000220190932301A0932401B0932501BF9184
:10020000AF919F918F913F912F910F900FBE0F90C3
:100210001F9018959B01AC017FB7F8948091220143
:1002200090912301A0912401B091250166B5A89B6E
:1002300005C06F3F19F00196A11DB11D7FBFBA2FF8
:10024000A92F982F8827860F911DA11DB11D62E04F
:10025000880F991FAA1FBB1F6A95D1F7BC012DC03B
:10026000FFB7F8948091220190912301A09124017D
:10027000B0912501E6B5A89B05C0EF3F19F00196A6
:10028000A11DB11DFFBFBA2FA92F982F88278E0F50
:10029000911DA11DB11DE2E0880F991FAA1FBB1F70
:1002A000EA95D1F7861B970B885E9340C8F22150E0
:1002B00030404040504068517C4F21153105410588
:1002C000510571F60895789484B5826084BD84B533
:1002D000816084BD85B5826085BD85B5816085BD41
:1002E000EEE6F0E0808181608083E1E8F0E010825A
:1002F000808182608083808181608083E0E8F0E09B
:10030000808181608083E1EBF0E080818460808384
:10031000E0EBF0E0808181608083EAE7F0E08081BB
:10032000846080838081826080838081816080831B
:100330008081806880831092C10008950E946301CB
:100340000E9482000E948100FDCF813041F0813007
:1003500018F08230D1F409C010926E000895809197
:100360006F008D7F80936F000895809170008D7F66
:100370008093700081E08093B0008091B100887F0D
:1003800084608093B1001092B30008951F93182FDA
:1003900080912001811711F09FEF06C0E8E6F0E0A0
:1003A00094918FEF80932001892F0E94A501812FC6
:1003B00060E00E9475041F9108951F920F920FB67E
:1003C0000F9211242F933F934F935F936F937F93DB
:1003D0008F939F93AF93BF93EF93FF9380913901D6
:1003E00090913A01A0913B01B0913C010097A10589
:1003F000B10551F1E0913D01F0913E018081909174
:100400003F01892780838091390190913A01A09121
:100410003B01B0913C01181619061A061B06C4F4DC
:100420008091390190913A01A0913B01B0913C013A
:100430000197A109B1098093390190933A01A093E2
:100440003B01B0933C0104C0809120010E94C60191
:10045000FF91EF91BF91AF919F918F917F916F919C
:100460005F914F913F912F910F900FBE0F901F9072
:1004700018952F923F925F926F927F928F929F92E8
:10048000AF92BF92CF92DF92EF92FF920F931F93A2
:10049000DF93CF9300D000D0CDB7DEB7A82F1B01DC
:1004A00029833A834B835C83809120018A1721F44E
:1004B000E8E6F0E0549082C08F3F09F0DAC1A093E3
:1004C0002001E8E6F0E054902FEF521609F4D1C174
:1004D00081E0581639F192E0591609F449C05520C7
:1004E00009F06CC014BC15BC84B5826084BD85B5B0
:1004F000816085BD2A2F30E0F901E957FF4FE49173
:10050000F0E0EE0FFF1FED58FF4F8591949190930F
:10051000300180932F0125563F4FF901849180933C
:1005200031014EC0109280001092810080918100B4
:100530008860809381008091810081608093810038
:100540002A2F30E0F901E957FF4FE491F0E0EE0F78
:10055000FF1FED58FF4F8591949190933701809341
:10056000360125563F4FF90184918093380128C008
:100570001092B0001092B1008091B0008260809320
:10058000B0008091B10081608093B1002A2F30E0EB
:10059000F901E957FF4FE491F0E0EE0FFF1FED582E
:1005A000FF4F8591949190933E0180933D01255694
:1005B0003F4FF901849180933F0102C057FC59C11C
:1005C0008A2F61E00E944F04552021F0F2E05F166F
:1005D00009F0BEC031018824992460E072E18AE705
:1005E00090E0A40193010E94430659016A0186012B
:1005F00075010894E108F108010911092FEFE216CD
:10060000F1040105110509F008F499C060E472E4F1
:100610008FE090E0A40193010E94430679018A01D2
:100620000894E108F1080109110982E05816C1F4A3
:100630009FEFE916F1040105110509F008F484C0E3
:1006400060E970ED83E090E0A40193010E9443060D
:1006500079018A010894E108F1080109110983E090
:10066000AFEFEA16F1040105110509F008F468C0BE
:1006700068E478EE81E090E0A40193010E944306D3
:1006800079018A010894E108F1080109110955204E
:1006900011F483E01DC0B2E05B1611F084E018C0D5
:1006A000EFEFEE16F1040105110509F008F4DFC0C3
:1006B00064E274EF80E090E0A40193010E9443069D
:1006C00079018A010894E108F1080109110985E01E
:1006D000FFEFEF16F1040105110591F188F162E1D8
:1006E0007AE780E090E0A40193010E94430679013B
:1006F0008A010894E108F10801091109552011F057
:1007000086E001C084E02FEFE216F1040105110537
:10071000B9F0B0F0C601B50120E034E040E050E0AF
:100720000E94430679018A010894E108F108010951
:100730001109552011F087E008C085E003C081E071
:10074000552019F485BD3AC082E08093B10036C0CF
:100750005101CC24DD2460E072E18AE790E0A6013B
:1007600095010E94430679018A010894E108F10885
:100770000109110980E0E81680E0F80681E0080729
:1007800080E0180710F491E010C068E478EE81E092
:1007900090E0A60195010E94430679018A01089420
:1007A000E108F1080109110993E0A1E05A1631F4BA
:1007B00080918100887F982B9093810089819A8114
:1007C000AB81BC810097A105B10529F48FEF9FEFA4
:1007D000AFEFBFEF13C0220C331CB10180E090E0FB
:1007E00029813A814B815C810E94EF0528EE33E03C
:1007F00040E050E00E942106C901DA01E1E05E1606
:10080000A1F0F2E05F1619F1552099F5E7BC80934D
:100810002B0190932C01A0932D01B0932E01809178
:100820006E00826080936E0024C0F0928900E09296
:1008300088008093320190933301A0933401B093E8
:10084000350180916F00826080936F0012C0E0924A
:10085000B3008093390190933A01A0933B01B09388
:100860003C018091700082608093700002C084E03F
:100870006CCF0F900F900F900F90CF91DF911F9141
:100880000F91FF90EF90DF90CF90BF90AF909F902F
:100890008F907F906F905F903F902F900895482F9A
:1008A00050E0CA0185569F4FFC01249149575F4F84
:1008B000FA0184918823C1F0E82FF0E0EE0FFF1FCA
:1008C000E759FF4FA591B491662341F49FB7F8947F
:1008D0008C91209582238C939FBF08959FB7F894A5
:1008E0008C91822B8C939FBF0895482F50E0CA01B2
:1008F00081559F4FFC012491CA0185569F4FFC01F1
:10090000349149575F4FFA019491992309F444C0F7
:10091000222351F1233071F0243028F42130A1F04A
:10092000223011F514C02630B1F02730C1F0243048
:10093000D9F404C0809180008F7703C0809180003B
:100940008F7D8093800010C084B58F7702C084B5FE
:100950008F7D84BD09C08091B0008F7703C08091E6
:10096000B0008F7D8093B000E92FF0E0EE0FFF1F05
:10097000ED58FF4FA591B491662341F49FB7F894C9
:100980008C91309583238C939FBF08959FB7F894E3
:100990008C91832B8C939FBF089504D06894B111E0
:1009A0008DC0089570D088F09F5790F0B92F992787
:1009B000B751A0F0D1F0660F771F881F991F1AF06A
:1009C000BA95C9F712C0B13081F077D0B1E008957F
:1009D00074C0672F782F8827B85F39F0B93FCCF300
:1009E000869577956795B395D9F73EF49095809560
:1009F000709561957F4F8F4F9F4F0895E89409C080
:100A000097FB3EF490958095709561957F4F8F4F41
:100A10009F4F9923A9F0F92F96E9BB279395F69557
:100A2000879577956795B795F111F8CFFAF4BB0FD5
:100A300011F460FF1BC06F5F7F4F8F4F9F4F16C039
:100A4000882311F096E911C0772321F09EE8872FC3
:100A5000762F05C0662371F096E8862F70E060E07F
:100A60002AF09A95660F771F881FDAF7880F9695F8
:100A7000879597F9089557FD9058440F551F59F0E1
:100A80005F3F71F04795880F97FB991F61F09F3F7B
:100A900079F087950895121613061406551FF2CFA4
:100AA0004695F1DF08C0161617061806991FF1CFF4
:100AB00086957105610508940895E894BB2766271B
:100AC0007727CB0197F908950BD078C069D028F02B
:100AD0006ED018F0952309F05AC05FC01124EECFF4
:100AE000CADFA0F3959FD1F3950F50E0551F629F89
:100AF000F001729FBB27F00DB11D639FAA27F00D77
:100B0000B11DAA1F649F6627B00DA11D661F829F9D
:100B10002227B00DA11D621F739FB00DA11D621F82
:100B2000839FA00D611D221F749F3327A00D611D9F
:100B3000231F849F600D211D822F762F6A2F112481
:100B40009F5750408AF0E1F088234AF0EE0FFF1FD4
:100B5000BB1F661F771F881F91505040A9F79E3F0B
:100B6000510570F014C0AACF5F3FECF3983EDCF360
:100B7000869577956795B795F795E7959F5FC1F748
:100B8000FE2B880F911D9695879597F9089597F9F3
:100B90009F6780E870E060E008959FEF80EC089523
:100BA00000240A941616170618060906089500244C
:100BB0000A9412161306140605060895092E0394C6
:100BC000000C11F4882352F0BB0F40F4BF2B11F43A
:100BD00060FF04C06F5F7F4F8F4F9F4F0895629FEC
:100BE000D001739FF001829FE00DF11D649FE00D25
:100BF000F11D929FF00D839FF00D749FF00D659F86
:100C0000F00D9927729FB00DE11DF91F639FB00D84
:100C1000E11DF91FBD01CF011124089597FB092E95
:100C200007260AD077FD04D049D006D000201AF458
:100C3000709561957F4F0895F6F7909581959F4F38
:100C40000895A1E21A2EAA1BBB1BFD010DC0AA1F0D
:100C5000BB1FEE1FFF1FA217B307E407F50720F025
:100C6000A21BB30BE40BF50B661F771F881F991FA0
:100C70001A9469F760957095809590959B01AC01E9
:100C8000BD01CF01089597FB092E05260ED057FD13
:100C900004D0D7DF0AD0001C38F450954095309529
:100CA00021953F4F4F4F5F4F0895F6F790958095F0
:100CB000709561957F4F8F4F9F4F0895AA1BBB1B67
:100CC00051E107C0AA1FBB1FA617B70710F0A61B4C
:100CD000B70B881F991F5A95A9F780959095BC016D
:080CE000CD010895F894FFCF47
:100CE8000601C400C400DC00C4000000F7000601CF
:100CF80004000800080004000400040004000400C4
:020D0800FF00EA
:00000001FF
