:100000000C94E3000C940B010C940B010C940B0169
:100010000C940B010C940B010C940B010C940B0130
:100020000C940B010C940B010C940B010C940B0120
:100030000C940B010C940B010C940B010C940B0110
:100040000C949D040C940B010C94C3050C940A06AB
:100050000C940B010C940B010C940B010C940B01F0
:100060000C940B010C940B01005EBCE2613FDD833C
:10007000C29C7E20A3FD1F419DC3217FFCA2401E88
:100080005F01E3BD3E6082DC237D9FC1421CFEA078
:10009000E1BF5D0380DE3C62BEE0025CDF81633D68
:1000A0007C22C09E1D43A1FF4618FAA427799BC558
:1000B00084DA3866E5BB5907DB856739BAE4065848
:1000C0001947A5FB7826C49A653BD987045AB8E638
:1000D000A7F91B45C6987A24F8A6441A99C7257B28
:1000E0003A6486D85B05E7B98CD2306EEDB3510F18
:1000F0004E10F2AC2F7193CD114FADF3702ECC9208
:10010000D38D6F31B2EC0E50AFF1134DCE90722CF7
:100110006D33D18F0C52B0EE326C8ED0530DEFB1E7
:10012000F0AE4C1291CF2D73CA947628ABF51749D7
:100130000856B4EA6937D58B5709EBB536688AD4C7
:1001400095CB2977F4AA4816E9B7550B88D6346AB7
:100150002B7597C94A14F6A8742AC896154BA9F7A7
:10016000B6E80A54D7896B35000000002400270048
:100170002A0000000000250028002B0000000000DD
:1001800023002600290004040404040404040202D9
:100190000202020203030303030301020408102006
:1001A0004080010204081020010204081020000011
:1001B0000007000201000003040600000000000028
:1001C00000000D01700711241FBECFEFD8E0DEBF85
:1001D000CDBF11E0A0E0B1E0ECE0F8E102C0059095
:1001E0000D92A03DB107D9F712E0A0EDB1E001C03A
:1001F0001D92AE38B107E1F711E0C6ECD1E004C0C2
:100200002297FE010E94000CC23CD107C9F70E9450
:10021000C0070C94040C0C94000080ED91E066E0A3
:100220000E9467040895BF92CF92DF92EF92FF92EF
:100230000F931F93DF93CF93CDB7DEB764970FB6BD
:10024000F894DEBF0FBECDBF80ED91E07E01089433
:10025000E11CF11CB7010E94D1038823A9F48FE6A9
:1002600092E060E071E00E9493098FE692E00E94C4
:10027000F90780ED91E00E9482026AEF70E080E071
:1002800090E00E94E50425C18FE692E063E171E011
:100290000E94F2088E01075F1F4F8FE692E060E236
:1002A0000E9437078FE692E0F70161917F0140E1FC
:1002B00050E00E94A008E016F10679F7CE01019601
:1002C00067E00E948F029885891729F08FE692E0F7
:1002D00069E171E0FCC08FE692E00E94F907898134
:1002E000823291F0883259F08031B1F48FE692E099
:1002F0006BE271E00E949309DD24D39412C08FE673
:1003000092E06CE371E004C08FE692E06DE471E08E
:100310000E949309DD2405C08FE692E06DE571E04F
:10032000D6C080ED91E00E94860380ED91E08E01C1
:100330000F5F1F4FB8010E94650380ED91E064E4F8
:1003400040E00E94250368EE73E080E090E00E94A8
:10035000E50480ED91E00E948603F82E80ED91E0A7
:10036000B8010E94650380ED91E06EEB40E00E94D1
:1003700025038FE692E064E871E00E94F2088FE6C0
:1003800092E06F2D40E150E00E94A0088FE692E0DD
:100390006EE871E00E94F20899E0E92EF12CEC0E73
:1003A000FD1EC701CE2CB92E8E010E5E1F4F80EDB3
:1003B00091E00E94D402682FF70181937F018FE6BC
:1003C00092E040E150E00E94A0088FE692E06EE8E3
:1003D00071E00E94F208E016F10649F78FE692E01C
:1003E00060E971E00E94F2088C2D9B2D68E00E946C
:1003F0008F02682F8FE692E040E150E00E94A00853
:100400008FE692E00E94F9079A8580E02985422FC5
:1004100050E0482B592BDD2089F083E0440F551F15
:100420008A95E1F788898031A9F42F858CE090E0E6
:10043000821B9109407F480F591F0CC08D85807623
:1004400011F4487F07C0803211F44C7F03C0803420
:1004500009F44E7FBA01882777FD8095982F0E9476
:10046000AA0A20E030E040E85DE30E945A0B7B01DD
:100470008C018FE692E066E971E00E94F2088FE657
:1004800092E0B801A70122E030E00E9490098FE6D7
:1004900092E067EA71E00E94F208C801B70126E61F
:1004A00036E646EE5FE30E945A0B20E030E040E083
:1004B00052E40E94A709AB01BC018FE692E022E062
:1004C00030E00E9490098FE692E062EB71E00E94BA
:1004D000930964960FB6F894DEBF0FBECDBFCF91DF
:1004E000DF911F910F91FF90EF90DF90CF90BF9021
:1004F00008958FE692E040E855E260E070E00E94E7
:1005000045060895FC0113861586148687E090E061
:1005100012863197009711F00197FACF0895DC0108
:1005200080E00BC0E82FF0E08D9190E0E827F927FC
:10053000E859FF4FE49161508E2F662399F7089593
:10054000DF92EF92FF920F931F93FC01E0800181F5
:100550001281F894F80181818E2981838281DE2CB9
:10056000D0948D21828383E090E00E943E05F801C3
:1005700081818D2181838AE090E00E943E05F8010F
:100580000081789485E390E00E943E0580E010E0D1
:10059000FF240E211F21012B09F081E01F910F91F3
:1005A000FF90EF90DF900895EF92FF920F931F93CB
:1005B000CF93DF937C0101E010E0C0E0D0E0C70101
:1005C0000E94A0028111102B000F2196C830D10586
:1005D000B1F7812FDF91CF911F910F91FF90EF9095
:1005E00008951F93CF93DF93FC011081C181D281C5
:1005F000912F909560FF12C0F8948A8189238A8395
:100600008981812B89838AE090E00E943E058A815E
:10061000812B8A83789487E390E011C0F8948A81D3
:1006200089238A838981812B898381E490E00E94D8
:100630003E058A81812B8A83789485E090E00E9430
:100640003E05DF91CF911F910895CF92DF92EF92F7
:10065000FF920F931F93CF93DF938C01E42EFF241F
:10066000F394C0E0D0E0C62EDD2460E08F2D90E052
:100670008C219D21892B09F061E0C8010E94F102C3
:10068000FF0C2196C830D10581F7EE20A9F4F8942B
:10069000D8011196ED91FC91129791818C918095E2
:1006A000982391831196ED91FC91129792818C91F0
:1006B0008095982392837894DF91CF911F910F9129
:1006C000FF90EF90DF90CF900895EF92FF920F93FD
:1006D0001F93CF93DF938C017B0165E540E00E947F
:1006E0002503C0E0D0E0F701EC0FFD1FC8016081D9
:1006F00040E00E9425032196C830D105A1F7DF9183
:10070000CF911F910F91FF90EF900895DF92EF929C
:10071000FF920F931F93CF93DF93FC010081C18160
:10072000D281F8948981D02ED0948D2189837894B8
:100730001DE7E02EFF24115059F182E090E00E9465
:100740003E05888190E08E219F21892BA1F3F894AA
:100750008A818D218A838981802B8983789480EE98
:1007600091E00E943E05F89489818D21898386E479
:1007700090E00E943E05888110E090E0E822F92296
:10078000EF2809F411E078948AE991E00E943E058F
:10079000812FDF91CF911F910F91FF90EF90DF900C
:1007A0000895AF92BF92DF92EF92FF920F931F9343
:1007B000CF93DF93EC015B018D85882309F061C045
:1007C000CE010E948603882329F41B861D861C8681
:1007D00090E06BC0CE0160EF40E00E94250301E095
:1007E000DD24EE24FF24F394CE010E94A002182FF2
:1007F000CE010E94A002113019F48130E1F439C019
:10080000181709F58B85081770F460E0FE01EE0DEE
:10081000F11D838190E02F2D30E082239323181661
:1008200019064CF003C060E0081729F0093008F001
:100830004CC00C874AC0FE01EE0DF11D83818F294B
:10084000838361E009C0612FFE01EE0DF11D9F2D34
:100850009095838189238383CE010E94F1020F5FEB
:10086000FF0C19F4E394FF24F39487E08E1508F04D
:10087000BBCF013430F0DB86DD2011F581E08D87C0
:100880001FC01B861D861C8690E0DE0120E030E044
:10089000F501E20FF31F13968C91139780832F5F5E
:1008A0003F4F11962830310599F7892FDF91CF916D
:1008B0001F910F91FF90EF90DF90BF90AF90089540
:1008C0008B818823F1F291E0E0CFD02EBDCFFF9253
:1008D0000F931F938C01F62E862F60E00E948305F4
:1008E0008F2D90E0FC01E656FE4FE491D801EC9389
:1008F0008A579E4FFC016491E62FF0E0EE0FFF1F38
:10090000E458FE4F8591949112969C938E93119783
:100910001B961C921B971D961C921D971C961C9251
:10092000F80187E090E012863197009711F0019767
:10093000FACF1F910F91FF9008951F920F920FB65B
:100940000F9211242F933F938F939F93AF93BF9355
:100950008091E2019091E301A091E401B091E50161
:100960003091E6010196A11DB11D232F2D5F2D377A
:1009700020F02D570196A11DB11D2093E601809313
:10098000E2019093E301A093E401B093E50180912B
:10099000DE019091DF01A091E001B091E1010196AB
:1009A000A11DB11D8093DE019093DF01A093E001B2
:1009B000B093E101BF91AF919F918F913F912F91A2
:1009C0000F900FBE0F901F9018959B01AC017FB741
:1009D000F8948091DE019091DF01A091E001B09147
:1009E000E10166B5A89B05C06F3F19F00196A11DF6
:1009F000B11D7FBFBA2FA92F982F8827860F911D71
:100A0000A11DB11D62E0880F991FAA1FBB1F6A9527
:100A1000D1F7BC012DC0FFB7F8948091DE01909111
:100A2000DF01A091E001B091E101E6B5A89B05C00E
:100A3000EF3F19F00196A11DB11DFFBFBA2FA92FDD
:100A4000982F88278E0F911DA11DB11DE2E0880F00
:100A5000991FAA1FBB1FEA95D1F7861B970B885ECB
:100A60009340C8F2215030404040504068517C4F84
:100A7000211531054105510571F60895019739F0A9
:100A8000880F991F880F991F02970197F1F7089512
:100A9000789484B5826084BD84B5816084BD85B559
:100AA000826085BD85B5816085BDEEE6F0E0808120
:100AB00081608083E1E8F0E0108280818260808341
:100AC000808181608083E0E8F0E0808181608083C4
:100AD000E1EBF0E0808184608083E0EBF0E08081F6
:100AE00081608083EAE7F0E0808184608083808198
:100AF0008260808380818160808380818068808340
:100B00001092C1000895CF93DF93482F50E0CA019F
:100B100086569E4FFC0134914A575E4FFA018491EC
:100B2000882369F190E0880F991FFC01E859FE4F76
:100B3000A591B491FC01EE58FE4FC591D491662366
:100B400051F42FB7F8948C91932F909589238C931F
:100B5000888189230BC0623061F42FB7F8948C919F
:100B6000932F909589238C938881832B88832FBF23
:100B700006C09FB7F8948C91832B8C939FBFDF9115
:100B8000CF91089508951F920F920FB60F921124DE
:100B90002F933F934F938F939F93EF93FF934091A6
:100BA000C60020912702309128022F5F3F4F2F73FC
:100BB00030708091290290912A022817390759F044
:100BC000E0912702F0912802E951FE4F40833093D3
:100BD000280220932702FF91EF919F918F914F91CF
:100BE0003F912F910F900FBE0F901F901895E0919D
:100BF0007B02F0917C02E05CFF4F8191919120811A
:100C00003181821B930B8F739070892B11F00E949E
:100C1000C20508951F920F920FB60F9211242F93C1
:100C20003F938F939F93EF93FF9320916B023091AB
:100C30006C0280916D0290916E022817390731F491
:100C40008091C1008F7D8093C10014C0E0916D023E
:100C5000F0916E02E55DFD4F208180916D029091D3
:100C60006E0201968F73907090936E0280936D0266
:100C70002093C600FF91EF919F918F913F912F910B
:100C80000F900FBE0F901F901895AF92BF92DF92FA
:100C9000EF92FF920F931F93CF93DF93EC017A01B2
:100CA0008B01DD24403081EE580780E0680780E04A
:100CB000780711F0DD24D39491E0A92EB12CEC89B2
:100CC000FD89DD2069F0C5010E8C02C0880F991FD7
:100CD0000A94E2F7808360E079E08DE390E005C05C
:100CE000108260E874E88EE190E0A80197010E940C
:100CF000DC0B215030404040504056954795379589
:100D0000279580E12030380720F0DD2011F0DD2428
:100D1000D6CFE889F9893083EA89FB892083EE8977
:100D2000FF89408121E030E0C9010A8C02C0880FB0
:100D3000991F0A94E2F7482B4083EE89FF8940818E
:100D4000C9010B8C02C0880F991F0A94E2F7482B47
:100D50004083EE89FF894081C9010C8C02C0880F55
:100D6000991F0A94E2F7482B4083EE89FF8980811E
:100D70000D8C02C0220F331F0A94E2F7209528231E
:100D80002083DF91CF911F910F91FF90EF90DF9023
:100D9000BF90AF900895DC011C96ED91FC911D97DA
:100DA000E05CFF4F2191319180819181281B390BAB
:100DB0002F733070C9010895DC011C96ED91FC91F0
:100DC0001D97E05CFF4F20813181E054F040DF014E
:100DD000AE5BBF4F8D919C9111972817390719F47D
:100DE0002FEF3FEF07C08D919C91E80FF91F808195
:100DF000282F30E0C9010895DC011C96ED91FC918B
:100E00001D97E05CFF4F20813181E054F040DF010D
:100E1000AE5BBF4F8D919C9111972817390719F43C
:100E20002FEF3FEF10C08D919C911197E80FF91FA4
:100E300020818D919C91119701968F7390701196DE
:100E40009C938E9330E0C9010895FC0186859785B7
:100E5000DC01A05CBF4FFC01EE5BFF4F2D913C918C
:100E600011978081918128173907C1F70895CF9391
:100E7000DF93EC01EE85FF85E05CFF4F208131813F
:100E8000E054F0402F5F3F4F2F733070DF01AE5BB7
:100E9000BF4F8D919C91119728173907D1F3E05CD2
:100EA000FF4F80819181E054F040E80FF91F60838B
:100EB000EE85FF85E05CFF4F31832083EE89FF895B
:100EC000208181E090E00D8C02C0880F991F0A9468
:100ED000E2F7282B208381E090E0DF91CF91089505
:100EE000109272021092710288EE93E0A0E0B0E0DE
:100EF0008093730290937402A0937502B09376026C
:100F000084EC91E09093700280936F0287EE91E001
:100F100090937C0280937B028BE292E090937E021E
:100F200080937D0285EC90E09093800280937F0215
:100F300084EC90E0909382028093810280EC90E0B8
:100F4000909384028093830281EC90E090938602D8
:100F50008093850286EC90E09093880280938702CC
:100F600084E08093890283E080938A0287E0809303
:100F70008B0285E080938C0281E080938D0208953E
:100F8000CF93DF930E9448050E947902C7EFD5E016
:100F90000E9413012097E1F30E94F705F9CFCF9249
:100FA000DF92EF92FF920F931F93CF93DF937C0119
:100FB0006B018A01C0E0D0E00FC0D6016D916D01D8
:100FC000D701ED91FC910190F081E02DC7010995C9
:100FD000C80FD91F015010400115110571F7CE013E
:100FE000DF91CF911F910F91FF90EF90DF90CF9005
:100FF0000895EF92FF920F931F938C01DC01ED9106
:10100000FC910190F081E02D6DE009957C01D80103
:10101000ED91FC910190F081E02DC8016AE0099505
:101020009C012E0D3F1DC9011F910F91FF90EF9064
:101030000895CF93DF93DB010D900020E9F711971E
:10104000A61BB70BEC01E881F9810280F381E02D4A
:10105000AD010995DF91CF9108954F925F927F92F4
:101060008F929F92AF92BF92CF92DF92EF92FF92B8
:101070000F931F93DF93CF93CDB7DEB7A1970FB632
:10108000F894DEBF0FBECDBF2C01742ECB012230F1
:1010900008F42AE019A231E2C32ED12CCC0EDD1EB9
:1010A000822E9924AA24BB24672D752FA5019401B3
:1010B0000E94DC0B79018A01C801B701A5019401E6
:1010C0000E94BD0B472D461B0894C108D1084A3029
:1010D00014F4405D01C0495CF6014083E114F10461
:1010E0000105110521F07E2C5F2DC801DDCFC20165
:1010F000B6010E941908A1960FB6F894DEBF0FBE84
:10110000CDBFCF91DF911F910F91FF90EF90DF90B6
:10111000CF90BF90AF909F908F907F905F904F90B7
:101120000895DC012115310541F4ED91FC91019008
:10113000F081E02D642F099508950E942D080895EF
:10114000EF92FF920F931F939A01E62EFF2400E087
:1011500010E0B801A7010E9491081F910F91FF9024
:10116000EF900895CF92DF92EF92FF920F931F932B
:10117000CF93DF93EC016A017B012115310541F426
:10118000E881F9810190F081E02D642F09951FC05D
:101190002A303105D1F477FF17C0E881F981019039
:1011A000F081E02D6DE209958C0144275527BA01A5
:1011B0004C195D096E097F09CE012AE00E942D08B5
:1011C0009801280F391F04C02AE00E942D089C01B5
:1011D000C901DF91CF911F910F91FF90EF90DF90A8
:1011E000CF9008950E94190808957F928F929F9240
:1011F000AF92BF92CF92DF92EF92FF920F931F9325
:10120000CF93DF934C017A018B01722ECB01BA018F
:1012100020E030E040E050E00E940B0A87FD03C070
:10122000C0E0D0E00EC0D401ED91FC910190F081BE
:10123000E02DC4016DE20995EC0117FB109517F93B
:10124000109520E030E040E05FE3AA240BC0CA0123
:10125000B90120E030E040E251E40E940F0A9B0116
:10126000AC01A394A71498F3C801B7010E94A70981
:101270005B016C010E947C0A7B018C01C401B801F6
:10128000A7012AE030E00E949108C80FD91F7720FB
:1012900039F0C4016EEB71E00E941908C80FD91F24
:1012A000C801B7010E94A80A9B01AC01C601B501A3
:1012B0000E94A60924C020E030E040E251E40E94F0
:1012C0005A0B7B018C010E94770A5B016C01CC24D4
:1012D000B7FCC094DC2CC401B601A5012AE030E0C3
:1012E0000E94B208C80FD91FC601B5010E94AA0A00
:1012F0009B01AC01C801B7010E94A6097A9477202E
:10130000D1F6CE01DF91CF911F910F91FF90EF9019
:10131000DF90CF90BF90AF909F908F907F90089577
:101320000E94F5080895EF92FF920F931F937C019E
:101330000E9419088C01C7010E94F907080F191FA4
:10134000C8011F910F91FF90EF9008955058BB274F
:10135000AA270ED075C166D130F06BD120F031F4E0
:101360009F3F11F41EF45BC10EF4E095E7FB51C101
:10137000E92F77D180F3BA176207730784079507BF
:1013800018F071F49EF58FC10EF4E0950B2EBA2F74
:10139000A02D0B01B90190010C01CA01A00111247B
:1013A000FF27591B99F0593F50F4503E68F11A1627
:1013B000F040A22F232F342F4427585FF3CF4695B8
:1013C00037952795A795F0405395C9F77EF41F16DA
:1013D000BA0B620B730B840BBAF09150A1F0FF0FA4
:1013E000BB1F661F771F881FC2F70EC0BA0F621F90
:1013F000731F841F48F4879577956795B795F79580
:101400009E3F08F0B3CF9395880F08F09927EE0F11
:10141000979587950895D9D008F481E008950CD068
:101420000FC107D140F0FED030F021F45F3F19F03A
:10143000F0C0511139C1F3C014D198F39923C9F305
:101440005523B1F3951B550BBB27AA2762177307CA
:10145000840738F09F5F5F4F220F331F441FAA1F7E
:10146000A9F333D00E2E3AF0E0E830D0915050403E
:10147000E695001CCAF729D0FE2F27D0660F771FEC
:10148000881FBB1F261737074807AB07B0E809F0CE
:10149000BB0B802DBF01FF2793585F4F2AF09E3F63
:1014A000510568F0B6C000C15F3FECF3983EDCF335
:1014B000869577956795B795F7959F5FC9F7880FDC
:1014C000911D9695879597F90895E1E0660F771F2E
:1014D000881FBB1F621773078407BA0720F0621BBF
:1014E000730B840BBA0BEE1F88F7E095089504D0B8
:1014F0006894B111D9C00895BCD088F09F5790F07E
:10150000B92F9927B751A0F0D1F0660F771F881F28
:10151000991F1AF0BA95C9F712C0B13081F0C3D043
:10152000B1E00895C0C0672F782F8827B85F39F0E1
:10153000B93FCCF3869577956795B395D9F73EF487
:1015400090958095709561957F4F8F4F9F4F08952F
:10155000E89409C097FB3EF490958095709561954D
:101560007F4F8F4F9F4F9923A9F0F92F96E9BB2703
:101570009395F695879577956795B795F111F8CF7F
:10158000FAF4BB0F11F460FF1BC06F5F7F4F8F4FEA
:101590009F4F16C0882311F096E911C0772321F0E0
:1015A0009EE8872F762F05C0662371F096E8862F78
:1015B00070E060E02AF09A95660F771F881FDAF7CF
:1015C000880F9695879597F90895990F0008550FFC
:1015D000AA0BE0E8FEEF16161706E807F907C0F0B9
:1015E00012161306E407F50798F0621B730B840BC1
:1015F000950B39F40A2661F0232B242B252B21F49B
:1016000008950A2609F4A140A6958FEF811D811D3A
:10161000089597F99F6780E870E060E008959FEF74
:1016200080EC089500240A94161617061806090679
:10163000089500240A941216130614060506089548
:10164000092E0394000C11F4882352F0BB0F40F4D0
:10165000BF2B11F460FF04C06F5F7F4F8F4F9F4F10
:10166000089557FD9058440F551F59F05F3F71F092
:101670004795880F97FB991F61F09F3F79F08795F9
:101680000895121613061406551FF2CF4695F1DF82
:1016900008C0161617061806991FF1CF8695710512
:1016A000610508940895E894BB2766277727CB0146
:1016B00097F908950BD0C4CFB5DF28F0BADF18F042
:1016C000952309F0A6CFABCF1124EECFCADFA0F34C
:1016D000959FD1F3950F50E0551F629FF001729FC7
:1016E000BB27F00DB11D639FAA27F00DB11DAA1FE6
:1016F000649F6627B00DA11D661F829F2227B00D33
:10170000A11D621F739FB00DA11D621F839FA00DBD
:10171000611D221F749F3327A00D611D231F849F0D
:10172000600D211D822F762F6A2F11249F57504064
:101730008AF0E1F088234AF0EE0FFF1FBB1F661FFF
:10174000771F881F91505040A9F79E3F510570F0B8
:1017500060CFAACF5F3FECF3983EDCF38695779598
:101760006795B795F795E7959F5FC1F7FE2B880FB3
:10177000911D9695879597F90895629FD001739F63
:10178000F001829FE00DF11D649FE00DF11D929F1D
:10179000F00D839FF00D749FF00D659FF00D99275C
:1017A000729FB00DE11DF91F639FB00DE11DF91F80
:1017B000BD01CF0111240895A1E21A2EAA1BBB1B63
:1017C000FD010DC0AA1FBB1FEE1FFF1FA217B3070D
:1017D000E407F50720F0A21BB30BE40BF50B661F23
:1017E000771F881F991F1A9469F7609570958095E7
:1017F00090959B01AC01BD01CF010895EE0FFF1F35
:0C1800000590F491E02D0994F894FFCFBE
:10180C004E6F206D6F7265206164647265737365D1
:10181C00732E00524F4D203D0043524320697320DC
:10182C006E6F742076616C696421002020436869B6
:10183C0070203D204453313853323000202043680F
:10184C006970203D2044533138423230002020430F
:10185C00686970203D20445331383232004465763B
:10186C00696365206973206E6F7420612044533165
:10187C00387832302066616D696C792064657669E0
:10188C0063652E00202044617461203D20002000FF
:10189C00204352433D00202054656D706572617485
:1018AC00757265203D20002043656C736975732C3F
:1018BC0020002046616872656E68656974002E00B0
:1018CC00000000003707CF07CB06FC06DC06250717
:00000001FF
