:100000000C945D000C9482010C94AF010C9485005B
:100010000C9485000C9485000C9485000C9485004C
:100020000C9485000C9485000C9485000C9485003C
:100030000C9485000C9485000C9485000C9485002C
:100040000C94DC010C9485000C9411050C94430570
:100050000C9485000C9485000C9485000C9485000C
:100060000C9485000C94850000000008000201003B
:100070000003040700000000000000000102040863
:100080001020408001020408102001020408102002
:10009000040404040404040402020202020203032E
:1000A0000303030300000000250028002B000000CC
:1000B0000000240027002A00730511241FBECFEF83
:1000C000D8E0DEBFCDBF11E0A0E0B1E0EAE0FFE0A4
:1000D00002C005900D92AC32B107D9F721E0ACE235
:1000E000B1E001C01D92A03EB207E1F710E0CAEBFB
:1000F000D0E004C02297FE010E947007C83BD107E0
:10010000C9F70E94B7050C9483070C9400008091F6
:10011000320190913301A0913401B09135010196E3
:10012000A11DB11D8093320190933301A09334013E
:10013000B093350108950F931F93CF93DF93C09130
:100140002C01D0912D010E94260200912E011091C8
:100150002F012091300130913101601B710B820B16
:10016000930B643671058105910548F180E00E948A
:1001700072018091320190913301A0913401B091CC
:100180003501EC01109232011092330110923401CA
:100190001092350190932D0180932C010E9426022C
:1001A00060932E0170932F01809330019093310161
:1001B00042E050E067E870E080E00E945201CE012A
:1001C000DF91CF911F910F91089526E040E855E20D
:1001D00060E070E083E491E00E94AF0460E082E0C0
:1001E0000E945D0361E082E00E94960342E050E0DD
:1001F00067E870E080E00E94520161E080910801B0
:100200000E94960361E0809106010E945D0326E052
:1002100040E855E260E070E083E491E00C94AF04C4
:10022000AF92BF92CF92DF92EF92FF920F931F9304
:10023000809104010E94B802BC01882777FD809557
:10024000982F1F921F921F9224E62F93A12CB12C5E
:100250006501E12C14E0F12E00E010E020E030E038
:10026000A9010E94CA06809106010E94D5020E943F
:100270009B004AE050E0BC0183E491E00E94B2069A
:100280000F900F900F900F906CE271E080E090E083
:100290001F910F91FF90EF90DF90CF90BF90AF90A4
:1002A0000C9455028230E8F4E82FF0E0EE0FFF1FC7
:1002B000EA5CFE4F71836083813041F08091690078
:1002C0008C7F842B80936900E89A0895809169005F
:1002D000440F551F440F551F837F842B8093690063
:1002E000E99A0895823068F4813011F0E89801C0ED
:1002F000E998E82FF0E0EE0FFF1FEA5CFE4F118255
:10030000108208951F920F920FB60F9211242F930F
:100310003F934F935F936F937F938F939F93AF938D
:10032000BF93EF93FF938091360190913701892B12
:1003300029F0E0913601F09137010995FF91EF9195
:10034000BF91AF919F918F917F916F915F914F91ED
:100350003F912F910F900FBE0F901F9018951F92F5
:100360000F920FB60F9211242F933F934F935F93E9
:100370006F937F938F939F93AF93BF93EF93FF936D
:100380008091380190913901892B29F0E091380151
:10039000F09139010995FF91EF91BF91AF919F9134
:1003A0008F917F916F915F914F913F912F910F901E
:1003B0000FBE0F901F9018951F920F920FB60F92BD
:1003C00011242F933F938F939F93AF93BF9380916B
:1003D0003B0190913C01A0913D01B0913E013091D3
:1003E0003A0123E0230F2D3720F40196A11DB11D02
:1003F00005C026E8230F0296A11DB11D20933A01E6
:1004000080933B0190933C01A0933D01B0933E014A
:1004100080913F0190914001A0914101B091420132
:100420000196A11DB11D80933F0190934001A093BF
:100430004101B0934201BF91AF919F918F913F9144
:100440002F910F900FBE0F901F9018952FB7F89413
:1004500060913B0170913C0180913D0190913E0182
:100460002FBF08953FB7F89480913F0190914001CC
:10047000A0914101B091420126B5A89B05C02F3F34
:1004800019F00196A11DB11D3FBF6627782F892F56
:100490009A2F620F711D811D911D42E0660F771F1B
:1004A000881F991F4A95D1F70895CF92DF92EF9256
:1004B000FF92CF93DF936B017C010E943202EB012C
:1004C000C114D104E104F10489F00E9411070E94D3
:1004D00032026C1B7D0B683E734090F381E0C81ABA
:1004E000D108E108F108C851DC4FEACFDF91CF9184
:1004F000FF90EF90DF90CF900895789484B582605C
:1005000084BD84B5816084BD85B5826085BD85B5B7
:10051000816085BDEEE6F0E0808181608083E1E866
:10052000F0E010828081826080838081816080839E
:10053000E0E8F0E0808181608083E1EBF0E08081A1
:1005400084608083E0EBF0E0808181608083EAE773
:10055000F0E08081846080838081826080838081FC
:10056000816080838081806880831092C1000895BB
:100570008E3008F08E50877020910A0190E4299FF8
:1005800090011124822B80937C0080917A008064FA
:1005900080937A0080917A0086FDFCCF809178006C
:1005A0002091790090E0922B08951F93CF93DF93D1
:1005B000182FEB0161E00E945D03209711F460E0C9
:1005C00004C0CF3FD10539F461E0812FDF91CF9195
:1005D0001F910C949603E12FF0E0E859FF4FE4914E
:1005E000E330F9F048F4E130B9F0E230A1F584B538
:1005F000806284BDC8BD34C0E730E9F0E83019F14D
:10060000E43049F580918000806280938000D0932F
:100610008B00C0938A0024C084B5806884BDC7BDA8
:100620001FC080918000806880938000D0938900F3
:10063000C093880015C08091B00080688093B0009E
:10064000C093B3000DC08091B00080628093B00071
:10065000C093B40005C0C038D1050CF0B5CFAFCF02
:10066000DF91CF911F910895833081F028F481307C
:1006700099F08230A1F008958730A9F08830B9F060
:100680008430D1F4809180008F7D03C08091800000
:100690008F7780938000089584B58F7702C084B5EA
:1006A0008F7D84BD08958091B0008F7703C08091C5
:1006B000B0008F7D8093B0000895CF93DF9390E0DA
:1006C000FC01E458FF4F2491FC01E057FF4F849157
:1006D000882349F190E0880F991FFC01E255FF4FF4
:1006E000A591B4918C559F4FFC01C591D4919FB7B2
:1006F000611108C0F8948C91209582238C93888195
:1007000082230AC0623051F4F8948C91322F3095D4
:1007100083238C938881822B888304C0F8948C91E6
:10072000822B8C939FBFDF91CF9108950F931F93DE
:10073000CF93DF931F92CDB7DEB7282F30E0F901BA
:10074000E859FF4F8491F901E458FF4F1491F901E2
:10075000E057FF4F04910023C9F0882321F06983FB
:100760000E9434036981E02FF0E0EE0FFF1FEC558B
:10077000FF4FA591B4919FB7F8948C91611103C07C
:100780001095812301C0812B8C939FBF0F90DF9127
:10079000CF911F910F910895FC01818D228D90E0E2
:1007A000805C9F4F821B91098F7399270895FC01EC
:1007B000918D828D981731F0828DE80FF11D858D16
:1007C00090E008958FEF9FEF0895FC01918D828D49
:1007D000981761F0828DDF01A80FB11D5D968C9195
:1007E000928D9F5F9F73928F90E008958FEF9FEFA0
:1007F000089589E695E0892B49F080E090E0892B07
:1008000029F00E94690581110C9400000895FC01F3
:10081000848DDF01A80FB11DA35ABF4F2C91848D89
:1008200090E001968F739927848FA689B7892C93BE
:10083000A089B1898C9180648C93938D848D981359
:1008400006C00288F389E02D80818F7D8083089522
:10085000CF93DF93EC01888D8823C9F0EA89FB8967
:10086000808185FD05C0A889B9898C9186FD0FC05E
:100870000FB607FCF5CF808185FFF2CFA889B98933
:100880008C9185FFEDCFCE010E940704E7CFDF9169
:10089000CF910895CF92DF92FF920F931F93CF9342
:1008A000DF931F92CDB7DEB76C0181E0D601589679
:1008B0008C9358975B969C915B975C968C915C9718
:1008C000981307C05096ED91FC915197808185FD5A
:1008D0002EC0F601038D10E00F5F1F4F0F7311271D
:1008E000F02EF601848DF81211C00FB607FCF9CF77
:1008F000D6015096ED91FC915197808185FFF1CF03
:10090000C60169830E9407046981EBCF838DE80FDC
:10091000F11DE35AFF4F6083D6015B960C935B9702
:100920005296ED91FC915397808180620CC0D60164
:100930005696ED91FC91579760835096ED91FC91FE
:10094000519780818064808381E090E00F90DF91F7
:10095000CF911F910F91FF90DF90CF900895BF929C
:10096000CF92DF92EF92FF92CF93DF93EC016A0177
:100970007B01B22EE889F98982E08083411581EEFE
:10098000580761057105A1F060E079E08DE390E022
:10099000A70196010E9422072150310941095109FE
:1009A0005695479537952795211580E1380798F09A
:1009B000E889F989108260E874E88EE190E0A70187
:1009C00096010E942207215031094109510956958B
:1009D000479537952795EC85FD853083EE85FF8516
:1009E0002083188EEC89FD89B082EA89FB89808199
:1009F00080618083EA89FB89808188608083EA89BD
:100A0000FB89808180688083EA89FB8980818F7D72
:100A10008083DF91CF91FF90EF90DF90CF90BF90D8
:100A200008951F920F920FB60F9211242F938F9358
:100A30009F93EF93FF93E0915301F09154018081D4
:100A4000E0915901F0915A0182FD12C0908180918C
:100A50005C018F5F8F7320915D01821751F0E091EF
:100A60005C01F0E0ED5BFE4F958F80935C0101C06F
:100A70008081FF91EF919F918F912F910F900FBEE9
:100A80000F901F9018951F920F920FB60F9211247E
:100A90002F933F934F935F936F937F938F939F9386
:100AA000AF93BF93EF93FF9383E491E00E94070419
:100AB000FF91EF91BF91AF919F918F917F916F9136
:100AC0005F914F913F912F910F900FBE0F901F900C
:100AD000189583E491E00E94CC0321E0892B09F46E
:100AE00020E0822F0895109246011092450188EE71
:100AF00093E0A0E0B0E08093470190934801A09379
:100B00004901B0934A018FE091E0909344018093B2
:100B1000430185EC90E09093500180934F0184EC69
:100B200090E0909352018093510180EC90E090937B
:100B300054018093530181EC90E09093560180938F
:100B4000550182EC90E0909358018093570186EC18
:100B500090E090935A018093590110925C01109299
:100B60005D0110925E0110925F01089508950E9448
:100B70007D020E94B6050E94E500C9EFD3E00E9405
:100B800010012097E1F30E94F903F9CFCF92DF9291
:100B9000EF92FF920F931F93CF93DF936C017A0133
:100BA000EB01E60EF71E00E010E0CE15DF0561F068
:100BB0006991D601ED91FC910190F081E02DC60183
:100BC0000995080F191FF1CFC801DF91CF911F912F
:100BD0000F91FF90EF90DF90CF9008956115710510
:100BE00081F0DB010D900020E9F7AD014150510982
:100BF000461B570BDC01ED91FC910280F381E02D47
:100C0000099480E090E00895DC01ED91FC91019061
:100C1000F081E02D09946BE171E00C94EE058F9268
:100C20009F92AF92BF92CF92DF92EF92FF920F937B
:100C30001F93CF93DF93CDB7DEB7A1970FB6F8948C
:100C4000DEBF0FBECDBF7C01C42EE52FCB01D22E5F
:100C500019A221E02D1510F02AE0D22E8E010F5D91
:100C60001F4F8D2C912CA12CB12C6C2D7E2FA5010A
:100C700094010E9422078C2DD29E801911240150CC
:100C800011098A3014F4805D01C0895CF801808309
:100C9000211531054105510521F0C22EE32FCA016E
:100CA000E4CFB801C7010E94EE05A1960FB6F894F3
:100CB000DEBF0FBECDBFDF91CF911F910F91FF908F
:100CC000EF90DF90CF90BF90AF909F908F9008955E
:100CD000CF92DF92EF92FF920F931F93CF93DF9308
:100CE000EC016A017B012115310579F4E881F98174
:100CF0000190F081E02D642FDF91CF911F910F9132
:100D0000FF90EF90DF90CF9009942A303105E9F4FD
:100D100077FF1AC06DE20E9404068C014427552714
:100D2000BA014C195D096E097F092AE0CE010E94C3
:100D30000F06800F911FDF91CF911F910F91FF90B0
:100D4000EF90DF90CF9008952AE0B701A601CE0181
:100D5000DF91CF911F910F91FF90EF90DF90CF9097
:100D60000C940F060F931F93CF93DF93EC019A011E
:100D7000AB01662757FD6095762F0E9468068C01AF
:100D8000CE010E940B06800F911FDF91CF911F9122
:100D90000F9108954F925F926F927F92AF92BF92A0
:100DA000CF92DF92EF92FF920F931F93CF93DF9337
:100DB000CDB7DEB729013A01621B730B840B950B8B
:100DC00029893A894B895C892A193B094C095D09B3
:100DD000298B3A8B4B8B5C8B9B01AC0169897A899F
:100DE0008B899C890E941207E418F50806091709E7
:100DF000A80197010E9444072A0D3B1D4C1D5D1D53
:100E0000CA01B901DF91CF911F910F91FF90EF902F
:100E1000DF90CF90BF90AF907F906F905F904F909A
:100E200008950895DB018F939F930E946307BF91FC
:100E3000AF91A29F800D911DA39F900DB29F900D29
:100E400011240895A1E21A2EAA1BBB1BFD010DC09F
:100E5000AA1FBB1FEE1FFF1FA217B307E407F5076A
:100E600020F0A21BB30BE40BF50B661F771F881F46
:100E7000991F1A9469F760957095809590959B01DC
:100E8000AC01BD01CF010895052E97FB1EF400941F
:100E90000E945B0757FD07D00E94220707FC03D082
:100EA0004EF40C945B0750954095309521953F4F3B
:100EB0004F4F5F4F089590958095709561957F4F46
:100EC0008F4F9F4F08950E947407A59F900DB49F68
:100ED000900DA49F800D911D11240895EE0FFF1F0A
:100EE0000590F491E02D0994A29FB001B39FC00139
:100EF000A39F700D811D1124911DB29F700D811D46
:0A0F00001124911D0895F894FFCF0D
:100F0A000100000011000500040001000000004A71
:100F1A0004C605CC03E503D70328040D0A006E6155
:0C0F2A006E00696E66006F7666002E0097
:00000001FF
