:100000000C945D000C9412010C943F010C9485003B
:100010000C9485000C9485000C9485000C9485004C
:100020000C9485000C9485000C9485000C9485003C
:100030000C9485000C9485000C9485000C9485002C
:100040000C946C010C9485000C9419040C944B04D2
:100050000C9485000C9485000C9485000C9485000C
:100060000C9485000C94850000000008000201003B
:100070000003040700000000000000000102040863
:100080001020408001020408102001020408102002
:10009000040404040404040402020202020203032E
:1000A0000303030300000000250028002B000000CC
:1000B0000000240027002A007B0411241FBECFEF7C
:1000C000D8E0DEBFCDBF11E0A0E0B1E0E6E6FBE0A6
:1000D00002C005900D92A432B107D9F721E0A4E245
:1000E000B1E001C01D92A63DB207E1F710E0CAEBF6
:1000F000D0E004C02297FE010E94AD05C83BD107A5
:10010000C9F70E94BF040C94B1050C9400008091C3
:10011000280190912901A0912A01B0912B0101960B
:10012000A11DB11D8093280190932901A0932A015C
:10013000B0932B010895CF93DF9326E040E855E27A
:1001400060E070E089E391E00E94B703C0E0D1E095
:1001500060E088810E94650261E088810E949E02C1
:1001600042E050E067E870E08881DF91CF910C9425
:10017000F200409128015091290160912A0170916B
:100180002B018091240190912501A0912601B0912D
:100190002701481759076A077B07F1F040912801AA
:1001A0005091290160912A0170912B012AE030E0E1
:1001B00089E391E00E9476058091280190912901C0
:1001C000A0912A01B0912B018093240190932501E5
:1001D000A0932601B093270168EE73E080E090E0E1
:1001E0000C94D9018230E8F4E82FF0E0EE0FFF1F05
:1001F000E45DFE4F71836083813041F0809169003E
:100200008C7F842B80936900E89A0895809169001F
:10021000440F551F440F551F837F842B8093690023
:10022000E99A08951F920F920FB60F9211242F93FF
:100230003F934F935F936F937F938F939F93AF936E
:10024000BF93EF93FF9380912C0190912D01892B07
:1002500029F0E0912C01F0912D010995FF91EF918A
:10026000BF91AF919F918F917F916F915F914F91CE
:100270003F912F910F900FBE0F901F9018951F92D6
:100280000F920FB60F9211242F933F934F935F93CA
:100290006F937F938F939F93AF93BF93EF93FF934E
:1002A00080912E0190912F01892B29F0E0912E0150
:1002B000F0912F010995FF91EF91BF91AF919F911F
:1002C0008F917F916F915F914F913F912F910F90FF
:1002D0000FBE0F901F9018951F920F920FB60F929E
:1002E00011242F933F938F939F93AF93BF9380914C
:1002F000310190913201A0913301B09134013091DC
:10030000300123E0230F2D3720F40196A11DB11DEC
:1003100005C026E8230F0296A11DB11D20933001D0
:100320008093310190933201A0933301B093340153
:100330008091350190913601A0913701B09138013B
:100340000196A11DB11D8093350190933601A093B4
:100350003701B0933801BF91AF919F918F913F9139
:100360002F910F900FBE0F901F9018953FB7F894E4
:100370008091350190913601A0913701B0913801FB
:1003800026B5A89B05C02F3F19F00196A11DB11DF0
:100390003FBF6627782F892F9A2F620F711D811D0D
:1003A000911D42E0660F771F881F991F4A95D1F76C
:1003B0000895CF92DF92EF92FF92CF93DF936B017C
:1003C0007C010E94B601EB01C114D104E104F104E7
:1003D00089F00E9488050E94B6016C1B7D0B683E67
:1003E000734090F381E0C81AD108E108F108C851C0
:1003F000DC4FEACFDF91CF91FF90EF90DF90CF906D
:100400000895789484B5826084BD84B5816084BD8C
:1004100085B5826085BD85B5816085BDEEE6F0E07D
:10042000808181608083E1E8F0E0108280818260D9
:100430008083808181608083E0E8F0E0808181605A
:100440008083E1EBF0E0808184608083E0EBF0E08A
:10045000808181608083EAE7F0E08081846080832E
:1004600080818260808380818160808380818068D8
:1004700080831092C1000895833081F028F4813088
:1004800099F08230A1F008958730A9F08830B9F052
:100490008430D1F4809180008F7D03C080918000F2
:1004A0008F7780938000089584B58F7702C084B5DC
:1004B0008F7D84BD08958091B0008F7703C08091B7
:1004C000B0008F7D8093B0000895CF93DF9390E0CC
:1004D000FC01E458FF4F2491FC01E057FF4F849149
:1004E000882349F190E0880F991FFC01E255FF4FE6
:1004F000A591B4918C559F4FFC01C591D4919FB7A4
:10050000611108C0F8948C91209582238C93888186
:1005100082230AC0623051F4F8948C91322F3095C6
:1005200083238C938881822B888304C0F8948C91D8
:10053000822B8C939FBFDF91CF9108950F931F93D0
:10054000CF93DF931F92CDB7DEB7282F30E0F901AC
:10055000E859FF4F8491F901E458FF4F1491F901D4
:10056000E057FF4F04910023C9F0882321F06983ED
:100570000E943C026981E02FF0E0EE0FFF1FEC5576
:10058000FF4FA591B4919FB7F8948C91611103C06E
:100590001095812301C0812B8C939FBF0F90DF9119
:1005A000CF911F910F910895FC01818D228D90E0D4
:1005B000805C9F4F821B91098F7399270895FC01DE
:1005C000918D828D981731F0828DE80FF11D858D08
:1005D00090E008958FEF9FEF0895FC01918D828D3B
:1005E000981761F0828DDF01A80FB11D5D968C9187
:1005F000928D9F5F9F73928F90E008958FEF9FEF92
:10060000089581E794E0892B49F080E090E0892B00
:1006100029F00E94710481110C9400000895FC01DE
:10062000848DDF01A80FB11DA35ABF4F2C91848D7B
:1006300090E001968F739927848FA689B7892C93B0
:10064000A089B1898C9180648C93938D848D98134B
:1006500006C00288F389E02D80818F7D8083089514
:10066000CF93DF93EC01888D8823C9F0EA89FB8959
:10067000808185FD05C0A889B9898C9186FD0FC050
:100680000FB607FCF5CF808185FFF2CFA889B98925
:100690008C9185FFEDCFCE010E940F03E7CFDF9154
:1006A000CF910895CF92DF92FF920F931F93CF9334
:1006B000DF931F92CDB7DEB76C0181E0D60158966B
:1006C0008C9358975B969C915B975C968C915C970A
:1006D000981307C05096ED91FC915197808185FD4C
:1006E0002EC0F601038D10E00F5F1F4F0F7311270F
:1006F000F02EF601848DF81211C00FB607FCF9CF69
:10070000D6015096ED91FC915197808185FFF1CFF4
:10071000C60169830E940F036981EBCF838DE80FC7
:10072000F11DE35AFF4F6083D6015B960C935B97F4
:100730005296ED91FC915397808180620CC0D60156
:100740005696ED91FC91579760835096ED91FC91F0
:10075000519780818064808381E090E00F90DF91E9
:10076000CF911F910F91FF90DF90CF900895BF928E
:10077000CF92DF92EF92FF92CF93DF93EC016A0169
:100780007B01B22EE889F98982E08083411581EEF0
:10079000580761057105A1F060E079E08DE390E014
:1007A000A70196010E94890521503109410951098B
:1007B0005695479537952795211580E1380798F08C
:1007C000E889F989108260E874E88EE190E0A70179
:1007D00096010E9489052150310941095109569518
:1007E000479537952795EC85FD853083EE85FF8508
:1007F0002083188EEC89FD89B082EA89FB8980818B
:1008000080618083EA89FB89808188608083EA89AE
:10081000FB89808180688083EA89FB8980818F7D64
:100820008083DF91CF91FF90EF90DF90CF90BF90CA
:1008300008951F920F920FB60F9211242F938F934A
:100840009F93EF93FF93E0914901F0914A018081DA
:10085000E0914F01F091500182FD12C09081809192
:1008600052018F5F8F7320915301821751F0E091F5
:100870005201F0E0E75CFE4F958F8093520101C07A
:100880008081FF91EF919F918F912F910F900FBEDB
:100890000F901F9018951F920F920FB60F92112470
:1008A0002F933F934F935F936F937F938F939F9378
:1008B000AF93BF93EF93FF9389E391E00E940F03FF
:1008C000FF91EF91BF91AF919F918F917F916F9128
:1008D0005F914F913F912F910F900FBE0F901F90FE
:1008E000189589E391E00E94D40221E0892B09F454
:1008F00020E0822F089510923C0110923B0188EE77
:1009000093E0A0E0B0E080933D0190933E01A0937E
:100910003F01B093400186E091E090933A018093CB
:10092000390185EC90E0909346018093450184EC79
:1009300090E0909348018093470180EC90E0909381
:100940004A018093490181EC90E090934C0180939F
:100950004B0182EC90E090934E0180934D0186EC28
:1009600090E09093500180934F01109252011092A9
:1009700053011092540110925501089508950E9458
:1009800001020E94BE040E949B00C1E0D3E00E94CD
:10099000B9002097E1F30E940103F9CFCF92DF92D3
:1009A000EF92FF920F931F93CF93DF936C017A0125
:1009B000EB01E60EF71E00E010E0CE15DF0561F05A
:1009C0006991D601ED91FC910190F081E02DC60175
:1009D0000995080F191FF1CFC801DF91CF911F9121
:1009E0000F91FF90EF90DF90CF9008956115710502
:1009F00081F0DB010D900020E9F7AD014150510974
:100A0000461B570BDC01ED91FC910280F381E02D38
:100A1000099480E090E0089562E171E00C94F6049E
:100A20008F929F92AF92BF92CF92DF92EF92FF92FE
:100A30000F931F93CF93DF93CDB7DEB7A1970FB678
:100A4000F894DEBF0FBECDBF7C01C42EE52FCB01D5
:100A5000D22E19A221E02D1510F02AE0D22E8E01FF
:100A60000F5D1F4F8D2C912CA12CB12C6C2D7E2F46
:100A7000A50194010E9489058C2DD29E8019112414
:100A8000015011098A3014F4805D01C0895CF801BD
:100A90008083211531054105510521F0C22EE32F38
:100AA000CA01E4CFB801C7010E94F604A1960FB6AF
:100AB000F894DEBF0FBECDBFDF91CF911F910F9194
:100AC000FF90EF90DF90CF90BF90AF909F908F906E
:100AD00008952115310541F4DC01ED91FC9101905F
:100AE000F081E02D642F09940C9410050F931F934F
:100AF000CF93DF93EC010E9469058C01CE010E9427
:100B00000C05800F911FDF91CF911F910F910895D8
:100B10000895A1E21A2EAA1BBB1BFD010DC0AA1F3E
:100B2000BB1FEE1FFF1FA217B307E407F50720F056
:100B3000A21BB30BE40BF50B661F771F881F991FD1
:100B40001A9469F760957095809590959B01AC011A
:100B5000BD01CF010895EE0FFF1F0590F491E02D28
:060B60000994F894FFCF98
:100B66000100000000005203CE04D402ED02DF02B1
:100B760030030D0A006E616E00696E66006F766660
:040B8600002E00003D
:00000001FF
