:100000000C945A000C9482000C9482000C94820090
:100010000C9482000C9482000C9482000C94820058
:100020000C9482000C9482000C9482000C94820048
:100030000C9482000C9482000C9482000C94820038
:100040000C94E4020C9482000C9458050C948A05DC
:100050000C9482000C9482000C9482000C94820018
:100060000C9482000C948200000000080002010041
:100070000003040700000000000000000102040863
:100080001020408001020408102001020408102002
:10009000040404040404040402020202020203032E
:1000A0000303030300000000250028002B00A60125
:1000B000BA05B20111241FBECFEFD8E0DEBFCDBF1D
:1000C00011E0A0E0B1E0E4E1FAE102C005900D9298
:1000D000AC31B107D9F721E0ACE1B1E001C01D922C
:1000E000AB3DB207E1F710E0C2EBD0E004C02297CD
:1000F000FE010E942309CE3AD107C9F70E94FE05EE
:100100000C94FD0C0C94000026E040E855E260E001
:1001100070E087E391E00C94F6048F929F92AF9287
:10012000BF92CF92DF92EF92FF920F931F93CF93E4
:10013000DF93CDB7DEB76C970FB6F894DEBF0FBE76
:10014000CDBF982E8B0184E5A82EA9829A8288279C
:1001500077FD8095982F0E9404086B017C012FE6A3
:1001600032E143E85AE30E9490080E94D607862FA6
:100170001AE0612F0E94F308B92E9B832AE037ED25
:1001800043E25CE3C701B6010E9490080E94D607D3
:10019000862F612F0E94F308892E9C832DEC3CEC66
:1001A0004CEC5DE3C701B6010E9490080E94D6079F
:1001B000862F612F0E94F308292F9D83802F0E9494
:1001C000F3089E8399269A249B24982492269F8242
:1001D0004AE06B2DCE010B960E94F10660E070E0C4
:1001E000CE010B960E947E07FC0180818B83CE019D
:1001F0000B960E9435064AE06C81CE010B960E9458
:10020000F10660E070E0CE010B960E947E07FC01D3
:1002100080818C83CE010B960E9435064AE06D8169
:10022000CE010B960E94F10660E070E0CE010B96C5
:100230000E947E07FC0180818D83CE010B960E9477
:1002400035064AE06E81CE010B960E94F10660E011
:1002500070E0CE010B960E947E07FC0180818E83A8
:10026000CE010B960E94350640E16F81CE0141968A
:100270000E94F10666E071E0CE010B960E94A30693
:10028000BE016F5E7F4FCE010B960E945D07BC01E1
:10029000CE0147960E94D006CE010B960E943506ED
:1002A000CE0141960E9435062B8D3C8DA90142500E
:1002B0005109BE01695E7F4FCE010B960E949007E7
:1002C000BE01655F7F4FCE0147960E94B906CE0101
:1002D0000B960E94350660E070E0CE0147960E94C2
:1002E0007E07FC0180818F8361E070E0CE0147963C
:1002F0000E947E07FC01808188878DE089871A87AC
:10030000E0913701F09138010280F381E02D4AE05D
:1003100050E0BE016F5F7F4F87E391E00995CE010A
:1003200047960E9435066C960FB6F894DEBF0FBE56
:10033000CDBFDF91CF911F910F91FF90EF90DF9094
:10034000CF90BF90AF909F908F90089567E071E03D
:1003500088E291E00E94A30667E071E08EE191E0FF
:100360000C94A3068EE191E00E94350688E291E0AC
:100370000C943506FF920F931F93CF93DF9300D019
:1003800000D000D0CDB7DEB787E391E00E94130420
:10039000181619060CF0FFC087E391E00E942C04A8
:1003A000F82E8AE0F816A9F068E271E0CE01019615
:1003B0000E94D0066F2DCE0101960E947007BC01ED
:1003C00088E291E00E94B906CE0101960E943506AE
:1003D000E2C060E070E088E291E00E947E07FC01EC
:1003E00080818093270161E070E088E291E00E94C3
:1003F0007E07FC0180818093260162E070E088E244
:1004000091E00E947E07FC012081332727FD309573
:100410002053310948EE53E0249F8001259F100DA1
:10042000349F100D112463E070E088E291E00E9497
:100430007E07FC012081332727FD309520533109A9
:1004400084E6829FA001839F500D1124040F151F85
:1004500064E070E088E291E00E947E07FC01208168
:10046000332727FD309520533109F29EA001F39EDA
:10047000500D1124040F151F65E070E088E291E033
:100480000E947E07FC018081992787FD9095C09787
:10049000800F911F909325018093240166E070E006
:1004A00088E291E00E947E07FC010081112707FD90
:1004B000109567E070E088E291E00E947E07FC0101
:1004C0008081B801680F711D87FD7A95685F7E4F46
:1004D0008EE191E00E94D90660E070E08EE191E04B
:1004E0000E947E0740E150E060E070E00E94180B3F
:1004F00060931D011091260180912701182762E069
:1005000070E088E291E00E947E07FC0180818053C8
:10051000182763E070E088E291E00E947E07FC010A
:1005200080818053182764E070E088E291E00E94A7
:100530007E07FC0180818053182765E070E088E227
:1005400091E00E947E07FC01808180538127809387
:100550001C01909127019F34C1F490911D019813C3
:1005600014C080912601853441F0843551F08134E6
:1005700061F461E08DE00E94DD0360E08DE00E94A7
:10058000DD0361E08DE00E94DD0367E071E088E259
:1005900091E00E94D90626960FB6F894DEBF0FBEF2
:1005A000CDBFDF91CF911F910F91FF90089568E724
:1005B00073E082E40E948D000E94BA0164EF71E052
:1005C00080E090E00C9451031F920F920FB60F92AF
:1005D00011242F933F938F939F93AF93BF93809159
:1005E0002F0190913001A0913101B09132013091F1
:1005F0002E0123E0230F2D3720F40196A11DB11DFC
:1006000005C026E8230F0296A11DB11D20932E01DF
:1006100080932F0190933001A0933101B093320168
:100620008091330190913401A0913501B091360150
:100630000196A11DB11D8093330190933401A093C5
:100640003501B0933601BF91AF919F918F913F914A
:100650002F910F900FBE0F901F9018953FB7F894F1
:100660008091330190913401A0913501B091360110
:1006700026B5A89B05C02F3F19F00196A11DB11DFD
:100680003FBF6627782F892F9A2F620F711D811D1A
:10069000911D42E0660F771F881F991F4A95D1F779
:1006A0000895CF92DF92EF92FF92CF93DF936B0189
:1006B0007C010E942E03EB01C114D104E104F1047A
:1006C00089F00E94D5070E942E036C1B7D0B683EAB
:1006D000734090F381E0C81AD108E108F108C851CD
:1006E000DC4FEACFDF91CF91FF90EF90DF90CF907A
:1006F0000895789484B5826084BD84B5816084BD9A
:1007000085B5826085BD85B5816085BDEEE6F0E08A
:10071000808181608083E1E8F0E0108280818260E6
:100720008083808181608083E0E8F0E08081816067
:100730008083E1EBF0E0808184608083E0EBF0E097
:10074000808181608083EAE7F0E08081846080833B
:1007500080818260808380818160808380818068E5
:1007600080831092C1000895833081F028F4813095
:1007700099F08230A1F008958730A9F08830B9F05F
:100780008430D1F4809180008F7D03C080918000FF
:100790008F7780938000089584B58F7702C084B5E9
:1007A0008F7D84BD08958091B0008F7703C08091C4
:1007B000B0008F7D8093B00008950F931F93CF9367
:1007C000DF931F92CDB7DEB7282F30E0F901E8594B
:1007D000FF4F8491F901E458FF4F1491F901E0575C
:1007E000FF4F04910023C9F0882321F069830E9400
:1007F000B4036981E02FF0E0EE0FFF1FEC55FF4FCF
:10080000A591B4919FB7F8948C91611103C0109594
:10081000812301C0812B8C939FBF0F90DF91CF91DB
:100820001F910F910895FC01818D228D90E0805CD5
:100830009F4F821B91098F7399270895FC01918D19
:10084000828D981731F0828DE80FF11D858D90E033
:1008500008958FEF9FEF0895FC01918D828D981779
:1008600061F0828DDF01A80FB11D5D968C91928D94
:100870009F5F9F73928F90E008958FEF9FEF089591
:1008800080EB95E0892B49F080E090E0892B29F0FE
:100890000E94B00581110C9400000895FC01848D24
:1008A000DF01A80FB11DA35ABF4F2C91848D90E09A
:1008B00001968F739927848FA689B7892C93A08975
:1008C000B1898C9180648C93938D848D981306C02C
:1008D0000288F389E02D80818F7D80830895CF93F6
:1008E000DF93EC01888D8823C9F0EA89FB89808138
:1008F00085FD05C0A889B9898C9186FD0FC00FB60A
:1009000007FCF5CF808185FFF2CFA889B9898C914A
:1009100085FFEDCFCE010E944E04E7CFDF91CF914E
:100920000895CF92DF92FF920F931F93CF93DF939F
:100930001F92CDB7DEB76C0181E0D60158968C933B
:1009400058975B969C915B975C968C915C979813FB
:1009500007C05096ED91FC915197808185FD2EC086
:10096000F601038D10E00F5F1F4F0F731127F02E5C
:10097000F601848DF81211C00FB607FCF9CFD6012D
:100980005096ED91FC915197808185FFF1CFC60182
:1009900069830E944E046981EBCF838DE80FF11DBE
:1009A000E35AFF4F6083D6015B960C935B97529698
:1009B000ED91FC915397808180620CC0D6015696D0
:1009C000ED91FC91579760835096ED91FC91519772
:1009D00080818064808381E090E00F90DF91CF91EF
:1009E0001F910F91FF90DF90CF900895BF92CF920B
:1009F000DF92EF92FF92CF93DF93EC016A017B01CC
:100A0000B22EE889F98982E08083411581EE58078A
:100A100061057105A1F060E079E08DE390E0A70148
:100A200096010E94FF08215031094109510956954C
:100A3000479537952795211580E1380798F0E88983
:100A4000F989108260E874E88EE190E0A7019601D0
:100A50000E94FF08215031094109510956954795D7
:100A600037952795EC85FD853083EE85FF852083BE
:100A7000188EEC89FD89B082EA89FB8980818061CA
:100A80008083EA89FB89808188608083EA89FB8989
:100A9000808180688083EA89FB8980818F7D808363
:100AA000DF91CF91FF90EF90DF90CF90BF900895AE
:100AB0001F920F920FB60F9211242F938F939F9333
:100AC000EF93FF93E0914701F09148018081E0911D
:100AD0004D01F0914E0182FD12C090818091500134
:100AE0008F5F8F7320915101821751F0E091500177
:100AF000F0E0E95CFE4F958F8093500101C080814A
:100B0000FF91EF919F918F912F910F900FBE0F90BA
:100B10001F9018951F920F920FB60F9211242F93CA
:100B20003F934F935F936F937F938F939F93AF9375
:100B3000BF93EF93FF9387E391E00E944E04FF91F0
:100B4000EF91BF91AF919F918F917F916F915F9145
:100B50004F913F912F910F900FBE0F901F901895BE
:100B600087E391E00E94130421E0892B09F420E03F
:100B7000822F089510923A011092390188EE93E085
:100B8000A0E0B0E080933B0190933C01A0933D0135
:100B9000B0933E018FE091E090933801809337014C
:100BA00085EC90E0909344018093430184EC90E0C5
:100BB000909346018093450180EC90E0909348012A
:100BC0008093470181EC90E090934A018093490122
:100BD00082EC90E090934C0180934B0186EC90E086
:100BE00090934E0180934D0110925001109251014B
:100BF0001092520110925301089508950E947903B2
:100C00000E94FD050E948400C0E4D4E00E94D70247
:100C10002097E1F30E944004F9CFCF92DF92EF9248
:100C2000FF920F931F93CF93DF936C017A01EB0137
:100C3000E60EF71E00E010E0CE15DF0561F06991C9
:100C4000D601ED91FC910190F081E02DC60109954E
:100C5000080F191FF1CFC801DF91CF911F910F919C
:100C6000FF90EF90DF90CF900895FC0180819181FB
:100C70000C94BF09CF93DF93EC0188819981009791
:100C800011F00E94BF09198218821D821C821B82EA
:100C90001A82DF91CF9108950F931F93CF93DF9323
:100CA000EC018B016F5F7F4F888199810E944E0A12
:100CB000009731F0998388831B830A8381E001C008
:100CC00080E0DF91CF911F910F910895CF93DF9333
:100CD000EC0188819981892B29F08A819B81861773
:100CE000970760F4CE010E944C06882341F08C8166
:100CF0009D81892B19F4E881F981108281E0DF91CF
:100D0000CF910895EF92FF920F931F93CF93DF93AC
:100D1000EC017B018A01BA010E946606811104C0C0
:100D2000CE010E943A0607C01D830C83B70188815B
:100D300099810E945D0CCE01DF91CF911F910F919F
:100D4000FF90EF900895FC011182108213821282AD
:100D5000158214826115710559F0FB010190002084
:100D6000E9F7AF0141505109461B570B0C9482061D
:100D70000895CF93DF93EC01FB018617970761F08D
:100D8000608171816115710529F0448155810E944E
:100D9000820602C00E943A06CE01DF91CF910895EB
:100DA000FC011182108213821282158214820C942B
:100DB000B906CF93DF93EC016115710561F0FB017A
:100DC00001900020E9F7AF0141505109461B570B34
:100DD0000E94820602C00E943A06CE01DF91CF91A6
:100DE00008950F931F93CF93DF93CDB7DEB7299765
:100DF0000FB6F894DEBF0FBECDBF8C01862FF80171
:100E000011821082138212821582148250E0BE0178
:100E10006F5F7F4F90E00E94640CBE016F5F7F4F59
:100E2000C8010E94D90629960FB6F894DEBF0FBEFE
:100E3000CDBFDF91CF911F910F910895EF92FF9257
:100E40000F931F93CF93DF93EC017B010C811D81E6
:100E50006115710511F480E016C04115510591F03E
:100E6000040F151FB8010E9466068823A1F328818C
:100E700039818C819D81B701820F931F0E945D0C87
:100E80001D830C8381E0DF91CF911F910F91FF9023
:100E9000EF900895CF93DF9300D0CDB7DEB769838D
:100EA0001A8241E050E0BE016F5F7F4F0E941E0733
:100EB0000F900F90DF91CF910895CF93DF93EC01C6
:100EC000FB0144815581608171810E941E0781115F
:100ED00003C0CE010E943A06CE01DF91CF91089562
:100EE000CF93DF93EC010E944A07811103C0CE012A
:100EF0000E943A06CE01DF91CF910895FC018481D2
:100F000095816817790720F480819181009729F4F1
:100F10001092D40184ED91E00895860F971F0895F3
:100F2000BF92CF92DF92EF92FF920F931F93CF93D6
:100F3000DF936C017B01EA0189012417350720F456
:100F40008D2FE901042F182F67E071E0C6010E9480
:100F5000A306D70114968D919C911597C817D907B0
:100F6000C8F48017910708F48C01D701ED91FC912A
:100F70001197E00FF11FB08010826D917C916C0F82
:100F80007D1FC6010E94D906D701ED91FC91E00FAB
:100F9000F11FB082C601DF91CF911F910F91FF9099
:100FA000EF90DF90CF90BF900895089598D088F08B
:100FB0009F5790F0B92F9927B751A0F0D1F0660F45
:100FC000771F881F991F1AF0BA95C9F712C0B13060
:100FD00081F09FD0B1E008959CC0672F782F8827BB
:100FE000B85F39F0B93FCCF3869577956795B3959F
:100FF000D9F73EF490958095709561957F4F8F4F0E
:101000009F4F0895E89409C097FB3EF49095809512
:10101000709561957F4F8F4F9F4F9923A9F0F92FBE
:1010200096E9BB279395F695879577956795B7953C
:10103000F111F8CFFAF4BB0F11F460FF1BC06F5F22
:101040007F4F8F4F9F4F16C0882311F096E911C034
:10105000772321F09EE8872F762F05C0662371F055
:1010600096E8862F70E060E02AF09A95660F771F69
:10107000881FDAF7880F9695879597F9089597F95D
:101080009F6780E870E060E008959FEF80EC08952E
:1010900000240A9416161706180609060895002457
:1010A0000A9412161306140605060895092E0394D1
:1010B000000C11F4882352F0BB0F40F4BF2B11F445
:1010C00060FF04C06F5F7F4F8F4F9F4F089557FDA4
:1010D0009058440F551F59F05F3F71F04795880FA6
:1010E00097FB991F61F09F3F79F08795089512163D
:1010F00013061406551FF2CF4695F1DF08C01616E9
:1011000017061806991FF1CF869571056105089499
:101110000895E894BB2766277727CB0197F90895B0
:101120000BD0C4CFB5DF28F0BADF18F0952309F053
:10113000A6CFABCF1124EECFCADFA0F3959FD1F39A
:10114000950F50E0551F629FF001729FBB27F00D75
:10115000B11D639FAA27F00DB11DAA1F649F6627CA
:10116000B00DA11D661F829F2227B00DA11D621F19
:10117000739FB00DA11D621F839FA00D611D221FD3
:10118000749F3327A00D611D231F849F600D211DB7
:10119000822F762F6A2F11249F5750408AF0E1F05A
:1011A00088234AF0EE0FFF1FBB1F661F771F881FA3
:1011B00091505040A9F79E3F510570F060CFAACFE3
:1011C0005F3FECF3983EDCF3869577956795B7958E
:1011D000F795E7959F5FC1F7FE2B880F911D9695B8
:1011E000879597F90895991B79E004C0991F961780
:1011F00008F0961B881F7A95C9F780950895A1E29B
:101200001A2EAA1BBB1BFD010DC0AA1FBB1FEE1F80
:10121000FF1FA217B307E407F50720F0A21BB30BCB
:10122000E40BF50B661F771F881F991F1A9469F747
:1012300060957095809590959B01AC01BD01CF01A3
:101240000895EE0FFF1F0590F491E02D0994CF93C0
:10125000DF938230910510F482E090E0E091D701B5
:10126000F091D80120E030E0A0E0B0E0309739F113
:101270004081518148175907B8F04817590771F450
:1012800082819381109729F013969C938E931297E5
:101290002CC09093D8018093D70127C02115310528
:1012A00031F04217530718F0A901DB0101C0EF012B
:1012B0009A01BD01DF010280F381E02DD7CF211516
:1012C0003105F9F0281B390B2430310580F48A816F
:1012D0009B816115710521F0FB019383828304C01A
:1012E0009093D8018093D701FE01329644C0FE014D
:1012F000E20FF31F819391932250310939832883A0
:101300003AC02091D5013091D601232B41F4209190
:101310000201309103013093D6012093D501209131
:101320000001309101012115310541F42DB73EB77F
:101330004091040150910501241B350BE091D5012A
:10134000F091D601E217F307A0F42E1B3F0B2817EC
:10135000390778F0AC014E5F5F4F2417350748F02E
:101360004E0F5F1F5093D6014093D5018193919307
:1013700002C0E0E0F0E0CF01DF91CF910895CF937C
:10138000DF93009709F487C0FC0132971382128221
:10139000C091D701D091D801209781F4208131816B
:1013A000280F391F8091D5019091D601821793079C
:1013B00079F5F093D601E093D5016DC0DE0120E010
:1013C00030E0AE17BF0750F412964D915C91139721
:1013D0009D014115510509F1DA01F3CFB383A283D1
:1013E00040815181840F951F8A179B0771F48D915D
:1013F0009C911197840F951F02969183808312967A
:101400008D919C911397938382832115310529F443
:10141000F093D801E093D7013EC0D9011396FC9315
:10142000EE9312974D915D91A40FB51FEA17FB073C
:1014300079F480819181840F951F0296D9011196CC
:101440009C938E938281938113969C938E93129793
:10145000E0E0F0E08A819B81009719F0FE01EC0149
:10146000F9CFCE01029628813981820F931F2091F6
:10147000D5013091D6012817390769F4309729F43E
:101480001092D8011092D70102C013821282D09319
:10149000D601C093D501DF91CF910895A0E0B0E0CF
:1014A000E4E5FAE00C94BB0CEC01CB01209719F4B5
:1014B0000E942709B8C0FE01E60FF71F9E012250C7
:1014C0003109E217F30708F4ACC0D9010D911C9162
:1014D000119706171707B8F00530110508F49FC0DB
:1014E000A801445051094617570708F498C0025004
:1014F0001109061B170B019311936D937C93CF0178
:101500000E94BF098CC05B01A01AB10A4E01800E77
:10151000911EA091D701B091D801612C712C60E08F
:1015200070E0109709F449C0A815B905C9F5ED9008
:10153000FC901197670142E0C40ED11CCA14DB0471
:1015400078F147018A189B08640142E0C40ED11C5F
:101550001296BC9012971396AC91B5E0CB16D104BD
:1015600040F0B282A38391828082D9018D939C93B3
:1015700009C00E5F1F4F0E0D1F1DF901118300835F
:10158000EB2DFA2F6115710531F0DB011396FC93F9
:10159000EE93129744C0F093D801E093D7013FC077
:1015A0006D917C9111976616770608F43B01BD0199
:1015B00012960D90BC91A02DB4CF6091D501709181
:1015C000D60168157905E9F468167906D0F44091DA
:1015D0000001509101014115510541F44DB75EB72D
:1015E0006091040170910501461B570BE417F50744
:1015F000C0F4F093D601E093D501F9019183808383
:101600000EC00E9427097C01009759F0A801BE0175
:101610000E94540CCE010E94BF09C70104C0CE0134
:1016200002C080E090E0CDB7DEB7EEE00C94D70CBE
:101630002F923F925F926F927F928F929F92AF9282
:10164000BF92CF92DF92EF92FF920F931F93CF93AF
:10165000DF938B01EA016115710521F0DB018C93A9
:1016600011969C93209739F09E0122503109233224
:10167000310508F0FBC07C016701BFEFCB1ADB0A24
:101680005601F7016080862D90E00E944C0C892B5A
:1016900011F07601F1CFFDE26F120AC0570182E02E
:1016A000A80EB11CD70111966C90772473940BC0CF
:1016B000BBE26B1207C05701E2E0AE0EB11CD701CE
:1016C00011966C90712CCE018F7E892B89F4B0E33A
:1016D0006B1222C0F50180818F7D883541F56180D4
:1016E000F2E0AF0EB11C872D8260782EC0E1D0E011
:1016F000C830D105F1F04CF4C230D10511F5C12C40
:10170000D12CE12CB0E4FB2E2FC0CA30D10531F032
:10171000C031D10521F115C0209751F7CAE0D0E0C2
:10172000ACECCA2EDC2CEC2CACE0FA2E1DC02097C1
:10173000F9F6C8E0D0E0C12CD12CE12CF0E1FF2E6D
:1017400013C060E070E080E090E89E01442737FD20
:101750004095542F0E94FF0869017A0105C0C12CF1
:10176000D12CE12CE8E0FE2EF50160E020E030E035
:10177000A9014E01AA2497FCA094BA2C1F0170ED78
:10178000572E560CA9E0A51570F48FEB860D8A3103
:1017900018F499EC592E06C08FE9860D8A3130F580
:1017A00089EA582E560C852D90E08C179D07F4F48D
:1017B00067FD18C0C216D306E406F50680F0C50121
:1017C000B4010E949C0C9B01AC01250D311D411DF3
:1017D000511D213031054105B0E85B0710F06FEF76
:1017E00001C061E03196D1016C90C8CF872D817026
:1017F0000115110571F0662329F03197D801ED9399
:10180000FC9307C071FE19C03297D801ED93FC9389
:1018100014C067FF12C0882329F020E030E040E0C8
:1018200050E804C02FEF3FEF4FEF5FE782E290E018
:101830009093DA018093D90116C0882341F0509526
:101840004095309521953F4F4F4F5F4F0CC057FF4C
:101850000AC082E290E09093DA018093D9012FEFE1
:101860003FEF4FEF5FE7B901CA0104C060E070E0ED
:1018700080E090E0DF91CF911F910F91FF90EF906A
:10188000DF90CF90BF90AF909F908F907F906F90A0
:101890005F903F902F90089591113BC0803219F0D6
:1018A00089508550D0F70895FB01DC0102C00190FA
:1018B0000D9241505040D8F70895FB01DC01019092
:1018C0000D920020E1F708954532510520F4423091
:1018D00010F00C946F0CFB011082CB010895BB2714
:1018E000FB015527AA27880F991FAA1FA41710F0DC
:1018F000A41B83955051B9F7A05DAA3308F0A95DE8
:10190000A193009779F7B111B1931192CB010C9487
:101910008C0C992788270895DC01FC01672F7191B1
:101920007723E1F7329704C07C916D9370836291C5
:10193000AE17BF07C8F30895DB018F939F930E94F2
:10194000AC0CBF91AF91A29F800D911DA39F900DF4
:10195000B29F900D112408950E94EE0CA59F900D4A
:10196000B49F900DA49F800D911D112408952F9276
:101970003F924F925F926F927F928F929F92AF921F
:10198000BF92CF92DF92EF92FF920F931F93CF936C
:10199000DF93CDB7DEB7CA1BDB0B0FB6F894DEBF03
:1019A0000FBECDBF09942A88398848885F846E8429
:1019B0007D848C849B84AA84B984C884DF80EE8073
:1019C000FD800C811B81AA81B981CE0FD11D0FB67C
:1019D000F894DEBF0FBECDBFED010895A29FB00108
:1019E000B39FC001A39F700D811D1124911DB29F53
:1019F000700D811D1124911D089510E0C2EBD0E0FF
:101A000004C0FE010E9423092296C43BD107C9F7F6
:041A1000F894FFCF78
:101A14000000DB01800030003078000000000091FD
:0C1A2400040D0613042C041E046F0400C3
:00000001FF
