:100000000C9466000C9478000C9478000C947800A2
:100010000C9478000C9478000C9478000C94780080
:100020000C9478000C9478000C9478000C94780070
:100030000C9478000C9478000C9478000C94780060
:100040000C94A6010C9478000C9478000C94780021
:100050000C9478000C9478000C9478000C94780040
:100060000C9478000C947800C800CA00B700B9005E
:10007000BB00BD00BF00C100C300C50000000008F8
:10008000000201000003040700000000000000005F
:10009000010204081020408001020408102001021F
:1000A00004081020040404040404040402020202EC
:1000B00002020303030303030000000025002800DD
:1000C0002B0000000000240027002A0011241FBE7E
:1000D000CFEFD8E0DEBFCDBF21E0A0E0B1E001C0AE
:1000E0001D92AA30B207E1F70E9497010C943102E9
:1000F0000C94000061E08DE00E94270161E08CE03B
:100100000E94270161E08BE00E94270161E08AE004
:100110000E94270161E089E00E94270161E088E0F8
:100120000E94270161E087E00E94270161E086E0EC
:100130000E94270161E085E00E94270161E084E0E0
:100140000E94270161E083E00E94270161E082E0D4
:100150000E9427018BE580930001089590E08A308A
:100160009105A8F4FC01EC5CFF4F0C942B028DE68A
:10017000089589E7089583E308958BE508958FE551
:10018000089580E708958FE708958BE7089508950F
:100190008EE7089580E308950F931F93CF93DF9325
:1001A0000E94AE00082F61E082E00E94600160E0E2
:1001B00082E00E946001C0E0D0E010E0B8010C2EA7
:1001C00002C0759567950A94E2F76170772785E01C
:1001D0000E94600161E083E00E94600160E085E0D0
:1001E0000E9460012196C830D10541F7DF91CF917F
:1001F0001F910F91089585E00C94CC00833081F01D
:1002000028F4813099F08230A1F008958730A9F068
:100210008830B9F08430D1F4809180008F7D03C0A4
:10022000809180008F7780938000089584B58F77C8
:1002300002C084B58F7D84BD08958091B0008F7712
:1002400003C08091B0008F7D8093B0000895CF935C
:10025000DF9390E0FC01E057FF4F2491FC01EC5547
:10026000FF4F8491882349F190E0880F991FFC018A
:10027000EE53FF4FA591B49188549F4FFC01C59157
:10028000D4919FB7611108C0F8948C912095822376
:100290008C93888182230AC0623051F4F8948C9147
:1002A000322F309583238C938881822B888304C0DE
:1002B000F8948C91822B8C939FBFDF91CF910895FE
:1002C0000F931F93CF93DF931F92CDB7DEB7282FE5
:1002D00030E0F901E458FF4F8491F901E057FF4FF6
:1002E0001491F901EC55FF4F04910023C9F08823C4
:1002F00021F069830E94FE006981E02FF0E0EE0F9B
:10030000FF1FE854FF4FA591B4919FB7F8948C91CB
:10031000611103C01095812301C0812B8C939FBF75
:100320000F90DF91CF911F910F91089508950E9432
:10033000F0010E9496010E947A00C0E0D0E00E9485
:10034000FB002097E1F30E940000F9CF1F920F926B
:100350000FB60F9211242F933F938F939F93AF93D8
:10036000BF938091020190910301A0910401B0918B
:1003700005013091010123E0230F2D3720F4019670
:10038000A11DB11D05C026E8230F0296A11DB11DB8
:10039000209301018093020190930301A093040133
:1003A000B09305018091060190910701A091080189
:1003B000B09109010196A11DB11D80930601909392
:1003C0000701A0930801B0930901BF91AF919F91DC
:1003D0008F913F912F910F900FBE0F901F90189506
:1003E000789484B5826084BD84B5816084BD85B510
:1003F000826085BD85B5816085BDEEE6F0E08081D7
:1004000081608083E1E8F0E01082808182608083F7
:10041000808181608083E0E8F0E08081816080837A
:10042000E1EBF0E0808184608083E0EBF0E08081AC
:1004300081608083EAE7F0E080818460808380814E
:1004400082608083808181608083808180688083F6
:100450001092C1000895EE0FFF1F0590F491E02D5A
:060460000994F894FFCF9F
:00000001FF
